{
  "address": "0x4EC1f4e377Df6ab5c2f7e892CdB57CD62c15D6d5",
  "abi": [
    {
      "inputs": [],
      "stateMutability": "nonpayable",
      "type": "constructor"
    },
    {
      "anonymous": false,
      "inputs": [
        {
          "indexed": true,
          "internalType": "address",
          "name": "owner",
          "type": "address"
        },
        {
          "indexed": true,
          "internalType": "address",
          "name": "spender",
          "type": "address"
        },
        {
          "indexed": false,
          "internalType": "uint256",
          "name": "value",
          "type": "uint256"
        }
      ],
      "name": "Approval",
      "type": "event"
    },
    {
      "anonymous": false,
      "inputs": [
        {
          "indexed": true,
          "internalType": "address",
          "name": "previousOwner",
          "type": "address"
        },
        {
          "indexed": true,
          "internalType": "address",
          "name": "newOwner",
          "type": "address"
        }
      ],
      "name": "OwnershipTransferred",
      "type": "event"
    },
    {
      "anonymous": false,
      "inputs": [
        {
          "indexed": true,
          "internalType": "address",
          "name": "from",
          "type": "address"
        },
        {
          "indexed": true,
          "internalType": "address",
          "name": "to",
          "type": "address"
        },
        {
          "indexed": false,
          "internalType": "uint256",
          "name": "value",
          "type": "uint256"
        }
      ],
      "name": "Transfer",
      "type": "event"
    },
    {
      "inputs": [
        {
          "internalType": "address",
          "name": "owner",
          "type": "address"
        },
        {
          "internalType": "address",
          "name": "spender",
          "type": "address"
        }
      ],
      "name": "allowance",
      "outputs": [
        {
          "internalType": "uint256",
          "name": "",
          "type": "uint256"
        }
      ],
      "stateMutability": "view",
      "type": "function"
    },
    {
      "inputs": [
        {
          "internalType": "address",
          "name": "spender",
          "type": "address"
        },
        {
          "internalType": "uint256",
          "name": "amount",
          "type": "uint256"
        }
      ],
      "name": "approve",
      "outputs": [
        {
          "internalType": "bool",
          "name": "",
          "type": "bool"
        }
      ],
      "stateMutability": "nonpayable",
      "type": "function"
    },
    {
      "inputs": [
        {
          "internalType": "address",
          "name": "account",
          "type": "address"
        }
      ],
      "name": "balanceOf",
      "outputs": [
        {
          "internalType": "uint256",
          "name": "",
          "type": "uint256"
        }
      ],
      "stateMutability": "view",
      "type": "function"
    },
    {
      "inputs": [
        {
          "internalType": "address",
          "name": "_account",
          "type": "address"
        },
        {
          "internalType": "uint256",
          "name": "_amount",
          "type": "uint256"
        }
      ],
      "name": "burn",
      "outputs": [
        {
          "internalType": "bool",
          "name": "",
          "type": "bool"
        }
      ],
      "stateMutability": "nonpayable",
      "type": "function"
    },
    {
      "inputs": [],
      "name": "cap",
      "outputs": [
        {
          "internalType": "uint256",
          "name": "",
          "type": "uint256"
        }
      ],
      "stateMutability": "view",
      "type": "function"
    },
    {
      "inputs": [],
      "name": "decimals",
      "outputs": [
        {
          "internalType": "uint8",
          "name": "",
          "type": "uint8"
        }
      ],
      "stateMutability": "view",
      "type": "function"
    },
    {
      "inputs": [
        {
          "internalType": "address",
          "name": "spender",
          "type": "address"
        },
        {
          "internalType": "uint256",
          "name": "subtractedValue",
          "type": "uint256"
        }
      ],
      "name": "decreaseAllowance",
      "outputs": [
        {
          "internalType": "bool",
          "name": "",
          "type": "bool"
        }
      ],
      "stateMutability": "nonpayable",
      "type": "function"
    },
    {
      "inputs": [
        {
          "internalType": "address",
          "name": "spender",
          "type": "address"
        },
        {
          "internalType": "uint256",
          "name": "addedValue",
          "type": "uint256"
        }
      ],
      "name": "increaseAllowance",
      "outputs": [
        {
          "internalType": "bool",
          "name": "",
          "type": "bool"
        }
      ],
      "stateMutability": "nonpayable",
      "type": "function"
    },
    {
      "inputs": [],
      "name": "initialize",
      "outputs": [],
      "stateMutability": "nonpayable",
      "type": "function"
    },
    {
      "inputs": [],
      "name": "isInitialized",
      "outputs": [
        {
          "internalType": "bool",
          "name": "",
          "type": "bool"
        }
      ],
      "stateMutability": "view",
      "type": "function"
    },
    {
      "inputs": [
        {
          "internalType": "address",
          "name": "_account",
          "type": "address"
        },
        {
          "internalType": "uint256",
          "name": "_amount",
          "type": "uint256"
        }
      ],
      "name": "mint",
      "outputs": [
        {
          "internalType": "bool",
          "name": "",
          "type": "bool"
        }
      ],
      "stateMutability": "nonpayable",
      "type": "function"
    },
    {
      "inputs": [],
      "name": "name",
      "outputs": [
        {
          "internalType": "string",
          "name": "",
          "type": "string"
        }
      ],
      "stateMutability": "view",
      "type": "function"
    },
    {
      "inputs": [],
      "name": "owner",
      "outputs": [
        {
          "internalType": "address",
          "name": "",
          "type": "address"
        }
      ],
      "stateMutability": "view",
      "type": "function"
    },
    {
      "inputs": [],
      "name": "renounceOwnership",
      "outputs": [],
      "stateMutability": "nonpayable",
      "type": "function"
    },
    {
      "inputs": [],
      "name": "symbol",
      "outputs": [
        {
          "internalType": "string",
          "name": "",
          "type": "string"
        }
      ],
      "stateMutability": "view",
      "type": "function"
    },
    {
      "inputs": [],
      "name": "totalSupply",
      "outputs": [
        {
          "internalType": "uint256",
          "name": "",
          "type": "uint256"
        }
      ],
      "stateMutability": "view",
      "type": "function"
    },
    {
      "inputs": [
        {
          "internalType": "address",
          "name": "recipient",
          "type": "address"
        },
        {
          "internalType": "uint256",
          "name": "amount",
          "type": "uint256"
        }
      ],
      "name": "transfer",
      "outputs": [
        {
          "internalType": "bool",
          "name": "",
          "type": "bool"
        }
      ],
      "stateMutability": "nonpayable",
      "type": "function"
    },
    {
      "inputs": [
        {
          "internalType": "address",
          "name": "sender",
          "type": "address"
        },
        {
          "internalType": "address",
          "name": "recipient",
          "type": "address"
        },
        {
          "internalType": "uint256",
          "name": "amount",
          "type": "uint256"
        }
      ],
      "name": "transferFrom",
      "outputs": [
        {
          "internalType": "bool",
          "name": "",
          "type": "bool"
        }
      ],
      "stateMutability": "nonpayable",
      "type": "function"
    },
    {
      "inputs": [
        {
          "internalType": "address",
          "name": "newOwner",
          "type": "address"
        }
      ],
      "name": "transferOwnership",
      "outputs": [],
      "stateMutability": "nonpayable",
      "type": "function"
    }
  ],
  "transactionHash": "0x74fc2fffee8c6405c3cf748de67c9c5411e6046edcf06c48b6855d4e5a761aec",
  "args": [],
  "solcInputHash": "b40a40780cb9fdef3f2fc14f60ed9b80",
  "bytecode": "0x608060405234801561001057600080fd5b50600054610100900460ff168061002a575060005460ff16155b6100915760405162461bcd60e51b815260206004820152602e60248201527f496e697469616c697a61626c653a20636f6e747261637420697320616c72656160448201526d191e481a5b9a5d1a585b1a5e995960921b606482015260840160405180910390fd5b600054610100900460ff161580156100b3576000805461ffff19166101011790555b80156100c5576000805461ff00191690555b50611364806100d56000396000f3fe608060405234801561001057600080fd5b50600436106101215760003560e01c806370a08231116100ad5780639dc29fac116100715780639dc29fac14610234578063a457c2d714610247578063a9059cbb1461025a578063dd62ed3e1461026d578063f2fde38b146102a657600080fd5b806370a08231146101d6578063715018a6146101ff5780638129fc1c146102095780638da5cb5b1461021157806395d89b411461022c57600080fd5b8063313ce567116100f4578063313ce5671461018c578063355274ea1461019b578063392e53cd146101a357806339509351146101b057806340c10f19146101c357600080fd5b806306fdde0314610126578063095ea7b31461014457806318160ddd1461016757806323b872dd14610179575b600080fd5b61012e6102b9565b60405161013b91906110ff565b60405180910390f35b610157610152366004611170565b61034b565b604051901515815260200161013b565b6035545b60405190815260200161013b565b61015761018736600461119a565b610361565b6040516012815260200161013b565b60655461016b565b60ca546101579060ff1681565b6101576101be366004611170565b610410565b6101576101d1366004611170565b61044c565b61016b6101e43660046111d6565b6001600160a01b031660009081526033602052604090205490565b610207610483565b005b6102076104b9565b6098546040516001600160a01b03909116815260200161013b565b61012e610598565b610157610242366004611170565b6105a7565b610157610255366004611170565b6105b3565b610157610268366004611170565b61064c565b61016b61027b3660046111f8565b6001600160a01b03918216600090815260346020908152604080832093909416825291909152205490565b6102076102b43660046111d6565b610659565b6060603680546102c89061122b565b80601f01602080910402602001604051908101604052809291908181526020018280546102f49061122b565b80156103415780601f1061031657610100808354040283529160200191610341565b820191906000526020600020905b81548152906001019060200180831161032457829003601f168201915b5050505050905090565b60006103583384846106f1565b50600192915050565b600061036e848484610815565b6001600160a01b0384166000908152603460209081526040808320338452909152902054828110156103f85760405162461bcd60e51b815260206004820152602860248201527f45524332303a207472616e7366657220616d6f756e74206578636565647320616044820152676c6c6f77616e636560c01b60648201526084015b60405180910390fd5b61040585338584036106f1565b506001949350505050565b3360008181526034602090815260408083206001600160a01b0387168452909152812054909161035891859061044790869061127c565b6106f1565b6098546000906001600160a01b031633146104795760405162461bcd60e51b81526004016103ef90611294565b61035883836109e4565b6098546001600160a01b031633146104ad5760405162461bcd60e51b81526004016103ef90611294565b6104b76000610a57565b565b600054610100900460ff16806104d2575060005460ff16155b6104ee5760405162461bcd60e51b81526004016103ef906112c9565b600054610100900460ff16158015610510576000805461ffff19166101011790555b6105246a52b7d2dcc80cd2e4000000610aa9565b61052c610b26565b6105766040518060400160405280600b81526020016a21aba7a623102a37b5b2b760a91b8152506040518060400160405280600581526020016421aba7a62360d91b815250610ba1565b60ca805460ff191660011790558015610595576000805461ff00191690555b50565b6060603780546102c89061122b565b60006103588383610c21565b3360009081526034602090815260408083206001600160a01b0386168452909152812054828110156106355760405162461bcd60e51b815260206004820152602560248201527f45524332303a2064656372656173656420616c6c6f77616e63652062656c6f77604482015264207a65726f60d81b60648201526084016103ef565b61064233858584036106f1565b5060019392505050565b6000610358338484610815565b6098546001600160a01b031633146106835760405162461bcd60e51b81526004016103ef90611294565b6001600160a01b0381166106e85760405162461bcd60e51b815260206004820152602660248201527f4f776e61626c653a206e6577206f776e657220697320746865207a65726f206160448201526564647265737360d01b60648201526084016103ef565b61059581610a57565b6001600160a01b0383166107535760405162461bcd60e51b8152602060048201526024808201527f45524332303a20617070726f76652066726f6d20746865207a65726f206164646044820152637265737360e01b60648201526084016103ef565b6001600160a01b0382166107b45760405162461bcd60e51b815260206004820152602260248201527f45524332303a20617070726f766520746f20746865207a65726f206164647265604482015261737360f01b60648201526084016103ef565b6001600160a01b0383811660008181526034602090815260408083209487168084529482529182902085905590518481527f8c5be1e5ebec7d5bd14f71427d1e84f3dd0314c0f7b2291e5b200ac8c7c3b925910160405180910390a3505050565b6001600160a01b0383166108795760405162461bcd60e51b815260206004820152602560248201527f45524332303a207472616e736665722066726f6d20746865207a65726f206164604482015264647265737360d81b60648201526084016103ef565b6001600160a01b0382166108db5760405162461bcd60e51b815260206004820152602360248201527f45524332303a207472616e7366657220746f20746865207a65726f206164647260448201526265737360e81b60648201526084016103ef565b6001600160a01b038316600090815260336020526040902054818110156109535760405162461bcd60e51b815260206004820152602660248201527f45524332303a207472616e7366657220616d6f756e7420657863656564732062604482015265616c616e636560d01b60648201526084016103ef565b6001600160a01b0380851660009081526033602052604080822085850390559185168152908120805484929061098a90849061127c565b92505081905550826001600160a01b0316846001600160a01b03167fddf252ad1be2c89b69c2b068fc378daa952ba7f163c4a11628f55a4df523b3ef846040516109d691815260200190565b60405180910390a350505050565b606554816109f160355490565b6109fb919061127c565b1115610a495760405162461bcd60e51b815260206004820152601960248201527f45524332304361707065643a206361702065786365656465640000000000000060448201526064016103ef565b610a538282610d6f565b5050565b609880546001600160a01b038381166001600160a01b0319831681179093556040519116919082907f8be0079c531659141344cd1fd0a4f28419497f9722a3daafe3b4186f6b6457e090600090a35050565b600054610100900460ff1680610ac2575060005460ff16155b610ade5760405162461bcd60e51b81526004016103ef906112c9565b600054610100900460ff16158015610b00576000805461ffff19166101011790555b610b08610e4e565b610b1182610eb8565b8015610a53576000805461ff00191690555050565b600054610100900460ff1680610b3f575060005460ff16155b610b5b5760405162461bcd60e51b81526004016103ef906112c9565b600054610100900460ff16158015610b7d576000805461ffff19166101011790555b610b85610e4e565b610b8d610f71565b8015610595576000805461ff001916905550565b600054610100900460ff1680610bba575060005460ff16155b610bd65760405162461bcd60e51b81526004016103ef906112c9565b600054610100900460ff16158015610bf8576000805461ffff19166101011790555b610c00610e4e565b610c0a8383610fd1565b8015610c1c576000805461ff00191690555b505050565b6001600160a01b038216610c815760405162461bcd60e51b815260206004820152602160248201527f45524332303a206275726e2066726f6d20746865207a65726f206164647265736044820152607360f81b60648201526084016103ef565b6001600160a01b03821660009081526033602052604090205481811015610cf55760405162461bcd60e51b815260206004820152602260248201527f45524332303a206275726e20616d6f756e7420657863656564732062616c616e604482015261636560f01b60648201526084016103ef565b6001600160a01b0383166000908152603360205260408120838303905560358054849290610d24908490611317565b90915550506040518281526000906001600160a01b038516907fddf252ad1be2c89b69c2b068fc378daa952ba7f163c4a11628f55a4df523b3ef9060200160405180910390a3505050565b6001600160a01b038216610dc55760405162461bcd60e51b815260206004820152601f60248201527f45524332303a206d696e7420746f20746865207a65726f20616464726573730060448201526064016103ef565b8060356000828254610dd7919061127c565b90915550506001600160a01b03821660009081526033602052604081208054839290610e0490849061127c565b90915550506040518181526001600160a01b038316906000907fddf252ad1be2c89b69c2b068fc378daa952ba7f163c4a11628f55a4df523b3ef9060200160405180910390a35050565b600054610100900460ff1680610e67575060005460ff16155b610e835760405162461bcd60e51b81526004016103ef906112c9565b600054610100900460ff16158015610b8d576000805461ffff19166101011790558015610595576000805461ff001916905550565b600054610100900460ff1680610ed1575060005460ff16155b610eed5760405162461bcd60e51b81526004016103ef906112c9565b600054610100900460ff16158015610f0f576000805461ffff19166101011790555b60008211610f575760405162461bcd60e51b8152602060048201526015602482015274045524332304361707065643a20636170206973203605c1b60448201526064016103ef565b60658290558015610a53576000805461ff00191690555050565b600054610100900460ff1680610f8a575060005460ff16155b610fa65760405162461bcd60e51b81526004016103ef906112c9565b600054610100900460ff16158015610fc8576000805461ffff19166101011790555b610b8d33610a57565b600054610100900460ff1680610fea575060005460ff16155b6110065760405162461bcd60e51b81526004016103ef906112c9565b600054610100900460ff16158015611028576000805461ffff19166101011790555b825161103b906036906020860190611066565b50815161104f906037906020850190611066565b508015610c1c576000805461ff0019169055505050565b8280546110729061122b565b90600052602060002090601f01602090048101928261109457600085556110da565b82601f106110ad57805160ff19168380011785556110da565b828001600101855582156110da579182015b828111156110da5782518255916020019190600101906110bf565b506110e69291506110ea565b5090565b5b808211156110e657600081556001016110eb565b600060208083528351808285015260005b8181101561112c57858101830151858201604001528201611110565b8181111561113e576000604083870101525b50601f01601f1916929092016040019392505050565b80356001600160a01b038116811461116b57600080fd5b919050565b6000806040838503121561118357600080fd5b61118c83611154565b946020939093013593505050565b6000806000606084860312156111af57600080fd5b6111b884611154565b92506111c660208501611154565b9150604084013590509250925092565b6000602082840312156111e857600080fd5b6111f182611154565b9392505050565b6000806040838503121561120b57600080fd5b61121483611154565b915061122260208401611154565b90509250929050565b600181811c9082168061123f57607f821691505b6020821081141561126057634e487b7160e01b600052602260045260246000fd5b50919050565b634e487b7160e01b600052601160045260246000fd5b6000821982111561128f5761128f611266565b500190565b6020808252818101527f4f776e61626c653a2063616c6c6572206973206e6f7420746865206f776e6572604082015260600190565b6020808252602e908201527f496e697469616c697a61626c653a20636f6e747261637420697320616c72656160408201526d191e481a5b9a5d1a585b1a5e995960921b606082015260800190565b60008282101561132957611329611266565b50039056fea26469706673582212209b569fea1289b3401d725dfdb537ecb351083d79398f2d57864685cd00927e4164736f6c63430008090033",
  "devdoc": {
    "kind": "dev",
    "methods": {
      "allowance(address,address)": {
        "details": "See {IERC20-allowance}."
      },
      "approve(address,uint256)": {
        "details": "See {IERC20-approve}. Requirements: - `spender` cannot be the zero address."
      },
      "balanceOf(address)": {
        "details": "See {IERC20-balanceOf}."
      },
      "cap()": {
        "details": "Returns the cap on the token's total supply."
      },
      "decimals()": {
        "details": "Returns the number of decimals used to get its user representation. For example, if `decimals` equals `2`, a balance of `505` tokens should be displayed to a user as `5.05` (`505 / 10 ** 2`). Tokens usually opt for a value of 18, imitating the relationship between Ether and Wei. This is the value {ERC20} uses, unless this function is overridden; NOTE: This information is only used for _display_ purposes: it in no way affects any of the arithmetic of the contract, including {IERC20-balanceOf} and {IERC20-transfer}."
      },
      "decreaseAllowance(address,uint256)": {
        "details": "Atomically decreases the allowance granted to `spender` by the caller. This is an alternative to {approve} that can be used as a mitigation for problems described in {IERC20-approve}. Emits an {Approval} event indicating the updated allowance. Requirements: - `spender` cannot be the zero address. - `spender` must have allowance for the caller of at least `subtractedValue`."
      },
      "increaseAllowance(address,uint256)": {
        "details": "Atomically increases the allowance granted to `spender` by the caller. This is an alternative to {approve} that can be used as a mitigation for problems described in {IERC20-approve}. Emits an {Approval} event indicating the updated allowance. Requirements: - `spender` cannot be the zero address."
      },
      "name()": {
        "details": "Returns the name of the token."
      },
      "owner()": {
        "details": "Returns the address of the current owner."
      },
      "renounceOwnership()": {
        "details": "Leaves the contract without owner. It will not be possible to call `onlyOwner` functions anymore. Can only be called by the current owner. NOTE: Renouncing ownership will leave the contract without an owner, thereby removing any functionality that is only available to the owner."
      },
      "symbol()": {
        "details": "Returns the symbol of the token, usually a shorter version of the name."
      },
      "totalSupply()": {
        "details": "See {IERC20-totalSupply}."
      },
      "transfer(address,uint256)": {
        "details": "See {IERC20-transfer}. Requirements: - `recipient` cannot be the zero address. - the caller must have a balance of at least `amount`."
      },
      "transferFrom(address,address,uint256)": {
        "details": "See {IERC20-transferFrom}. Emits an {Approval} event indicating the updated allowance. This is not required by the EIP. See the note at the beginning of {ERC20}. Requirements: - `sender` and `recipient` cannot be the zero address. - `sender` must have a balance of at least `amount`. - the caller must have allowance for ``sender``'s tokens of at least `amount`."
      },
      "transferOwnership(address)": {
        "details": "Transfers ownership of the contract to a new account (`newOwner`). Can only be called by the current owner."
      }
    },
    "version": 1
  },
  "userdoc": {
    "kind": "user",
    "methods": {},
    "version": 1
  },
  "storageLayout": {
    "storage": [
      {
        "astId": 131,
        "contract": "contracts/CWolfToken.sol:CWolfToken",
        "label": "_initialized",
        "offset": 0,
        "slot": "0",
        "type": "t_bool"
      },
      {
        "astId": 134,
        "contract": "contracts/CWolfToken.sol:CWolfToken",
        "label": "_initializing",
        "offset": 1,
        "slot": "0",
        "type": "t_bool"
      },
      {
        "astId": 3038,
        "contract": "contracts/CWolfToken.sol:CWolfToken",
        "label": "__gap",
        "offset": 0,
        "slot": "1",
        "type": "t_array(t_uint256)50_storage"
      },
      {
        "astId": 361,
        "contract": "contracts/CWolfToken.sol:CWolfToken",
        "label": "_balances",
        "offset": 0,
        "slot": "51",
        "type": "t_mapping(t_address,t_uint256)"
      },
      {
        "astId": 367,
        "contract": "contracts/CWolfToken.sol:CWolfToken",
        "label": "_allowances",
        "offset": 0,
        "slot": "52",
        "type": "t_mapping(t_address,t_mapping(t_address,t_uint256))"
      },
      {
        "astId": 369,
        "contract": "contracts/CWolfToken.sol:CWolfToken",
        "label": "_totalSupply",
        "offset": 0,
        "slot": "53",
        "type": "t_uint256"
      },
      {
        "astId": 371,
        "contract": "contracts/CWolfToken.sol:CWolfToken",
        "label": "_name",
        "offset": 0,
        "slot": "54",
        "type": "t_string_storage"
      },
      {
        "astId": 373,
        "contract": "contracts/CWolfToken.sol:CWolfToken",
        "label": "_symbol",
        "offset": 0,
        "slot": "55",
        "type": "t_string_storage"
      },
      {
        "astId": 914,
        "contract": "contracts/CWolfToken.sol:CWolfToken",
        "label": "__gap",
        "offset": 0,
        "slot": "56",
        "type": "t_array(t_uint256)45_storage"
      },
      {
        "astId": 1004,
        "contract": "contracts/CWolfToken.sol:CWolfToken",
        "label": "_cap",
        "offset": 0,
        "slot": "101",
        "type": "t_uint256"
      },
      {
        "astId": 1081,
        "contract": "contracts/CWolfToken.sol:CWolfToken",
        "label": "__gap",
        "offset": 0,
        "slot": "102",
        "type": "t_array(t_uint256)50_storage"
      },
      {
        "astId": 10,
        "contract": "contracts/CWolfToken.sol:CWolfToken",
        "label": "_owner",
        "offset": 0,
        "slot": "152",
        "type": "t_address"
      },
      {
        "astId": 124,
        "contract": "contracts/CWolfToken.sol:CWolfToken",
        "label": "__gap",
        "offset": 0,
        "slot": "153",
        "type": "t_array(t_uint256)49_storage"
      },
      {
        "astId": 3635,
        "contract": "contracts/CWolfToken.sol:CWolfToken",
        "label": "isInitialized",
        "offset": 0,
        "slot": "202",
        "type": "t_bool"
      }
    ],
    "types": {
      "t_address": {
        "encoding": "inplace",
        "label": "address",
        "numberOfBytes": "20"
      },
      "t_array(t_uint256)45_storage": {
        "base": "t_uint256",
        "encoding": "inplace",
        "label": "uint256[45]",
        "numberOfBytes": "1440"
      },
      "t_array(t_uint256)49_storage": {
        "base": "t_uint256",
        "encoding": "inplace",
        "label": "uint256[49]",
        "numberOfBytes": "1568"
      },
      "t_array(t_uint256)50_storage": {
        "base": "t_uint256",
        "encoding": "inplace",
        "label": "uint256[50]",
        "numberOfBytes": "1600"
      },
      "t_bool": {
        "encoding": "inplace",
        "label": "bool",
        "numberOfBytes": "1"
      },
      "t_mapping(t_address,t_mapping(t_address,t_uint256))": {
        "encoding": "mapping",
        "key": "t_address",
        "label": "mapping(address => mapping(address => uint256))",
        "numberOfBytes": "32",
        "value": "t_mapping(t_address,t_uint256)"
      },
      "t_mapping(t_address,t_uint256)": {
        "encoding": "mapping",
        "key": "t_address",
        "label": "mapping(address => uint256)",
        "numberOfBytes": "32",
        "value": "t_uint256"
      },
      "t_string_storage": {
        "encoding": "bytes",
        "label": "string",
        "numberOfBytes": "32"
      },
      "t_uint256": {
        "encoding": "inplace",
        "label": "uint256",
        "numberOfBytes": "32"
      }
    }
  }
}