{
  "address": "0x5330E98f0C103C8F1Bc6238142E7fbEc9c659091",
  "abi": [
    {
      "inputs": [],
      "stateMutability": "nonpayable",
      "type": "constructor"
    },
    {
      "anonymous": false,
      "inputs": [
        {
          "indexed": true,
          "internalType": "address",
          "name": "owner",
          "type": "address"
        },
        {
          "indexed": true,
          "internalType": "address",
          "name": "approved",
          "type": "address"
        },
        {
          "indexed": true,
          "internalType": "uint256",
          "name": "tokenId",
          "type": "uint256"
        }
      ],
      "name": "Approval",
      "type": "event"
    },
    {
      "anonymous": false,
      "inputs": [
        {
          "indexed": true,
          "internalType": "address",
          "name": "owner",
          "type": "address"
        },
        {
          "indexed": true,
          "internalType": "address",
          "name": "operator",
          "type": "address"
        },
        {
          "indexed": false,
          "internalType": "bool",
          "name": "approved",
          "type": "bool"
        }
      ],
      "name": "ApprovalForAll",
      "type": "event"
    },
    {
      "anonymous": false,
      "inputs": [
        {
          "indexed": true,
          "internalType": "uint256",
          "name": "tokenId",
          "type": "uint256"
        }
      ],
      "name": "GeneratedResultNFT",
      "type": "event"
    },
    {
      "anonymous": false,
      "inputs": [
        {
          "indexed": true,
          "internalType": "address",
          "name": "to",
          "type": "address"
        },
        {
          "indexed": true,
          "internalType": "uint256",
          "name": "id",
          "type": "uint256"
        }
      ],
      "name": "MintedNFT",
      "type": "event"
    },
    {
      "anonymous": false,
      "inputs": [
        {
          "indexed": true,
          "internalType": "address",
          "name": "previousOwner",
          "type": "address"
        },
        {
          "indexed": true,
          "internalType": "address",
          "name": "newOwner",
          "type": "address"
        }
      ],
      "name": "OwnershipTransferred",
      "type": "event"
    },
    {
      "anonymous": false,
      "inputs": [
        {
          "indexed": false,
          "internalType": "address",
          "name": "account",
          "type": "address"
        }
      ],
      "name": "Paused",
      "type": "event"
    },
    {
      "anonymous": false,
      "inputs": [
        {
          "indexed": true,
          "internalType": "address",
          "name": "from",
          "type": "address"
        },
        {
          "indexed": true,
          "internalType": "address",
          "name": "to",
          "type": "address"
        },
        {
          "indexed": true,
          "internalType": "uint256",
          "name": "tokenId",
          "type": "uint256"
        }
      ],
      "name": "Transfer",
      "type": "event"
    },
    {
      "anonymous": false,
      "inputs": [
        {
          "indexed": false,
          "internalType": "address",
          "name": "account",
          "type": "address"
        }
      ],
      "name": "Unpaused",
      "type": "event"
    },
    {
      "inputs": [],
      "name": "CWOLFContractAddress",
      "outputs": [
        {
          "internalType": "address",
          "name": "",
          "type": "address"
        }
      ],
      "stateMutability": "view",
      "type": "function"
    },
    {
      "inputs": [],
      "name": "ClaimContractAddress",
      "outputs": [
        {
          "internalType": "address",
          "name": "",
          "type": "address"
        }
      ],
      "stateMutability": "view",
      "type": "function"
    },
    {
      "inputs": [],
      "name": "VariablesContractAddress",
      "outputs": [
        {
          "internalType": "address",
          "name": "",
          "type": "address"
        }
      ],
      "stateMutability": "view",
      "type": "function"
    },
    {
      "inputs": [],
      "name": "WolfPackNFTContractAddress",
      "outputs": [
        {
          "internalType": "address",
          "name": "",
          "type": "address"
        }
      ],
      "stateMutability": "view",
      "type": "function"
    },
    {
      "inputs": [
        {
          "internalType": "uint256",
          "name": "",
          "type": "uint256"
        }
      ],
      "name": "animalsPoints",
      "outputs": [
        {
          "internalType": "uint256",
          "name": "",
          "type": "uint256"
        }
      ],
      "stateMutability": "view",
      "type": "function"
    },
    {
      "inputs": [
        {
          "internalType": "uint256",
          "name": "",
          "type": "uint256"
        }
      ],
      "name": "animalsProbability",
      "outputs": [
        {
          "internalType": "uint256",
          "name": "",
          "type": "uint256"
        }
      ],
      "stateMutability": "view",
      "type": "function"
    },
    {
      "inputs": [
        {
          "internalType": "uint256",
          "name": "",
          "type": "uint256"
        }
      ],
      "name": "animalsRewards",
      "outputs": [
        {
          "internalType": "uint256",
          "name": "",
          "type": "uint256"
        }
      ],
      "stateMutability": "view",
      "type": "function"
    },
    {
      "inputs": [
        {
          "internalType": "address",
          "name": "to",
          "type": "address"
        },
        {
          "internalType": "uint256",
          "name": "tokenId",
          "type": "uint256"
        }
      ],
      "name": "approve",
      "outputs": [],
      "stateMutability": "nonpayable",
      "type": "function"
    },
    {
      "inputs": [
        {
          "internalType": "address",
          "name": "owner",
          "type": "address"
        }
      ],
      "name": "balanceOf",
      "outputs": [
        {
          "internalType": "uint256",
          "name": "",
          "type": "uint256"
        }
      ],
      "stateMutability": "view",
      "type": "function"
    },
    {
      "inputs": [
        {
          "internalType": "uint256",
          "name": "",
          "type": "uint256"
        }
      ],
      "name": "benefit",
      "outputs": [
        {
          "internalType": "uint256",
          "name": "",
          "type": "uint256"
        }
      ],
      "stateMutability": "view",
      "type": "function"
    },
    {
      "inputs": [
        {
          "internalType": "uint256",
          "name": "",
          "type": "uint256"
        }
      ],
      "name": "bnbForMint",
      "outputs": [
        {
          "internalType": "uint256",
          "name": "",
          "type": "uint256"
        }
      ],
      "stateMutability": "view",
      "type": "function"
    },
    {
      "inputs": [],
      "name": "boxPriceCWOLF",
      "outputs": [
        {
          "internalType": "uint256",
          "name": "",
          "type": "uint256"
        }
      ],
      "stateMutability": "view",
      "type": "function"
    },
    {
      "inputs": [
        {
          "internalType": "uint256",
          "name": "_positionToAttack",
          "type": "uint256"
        }
      ],
      "name": "calculateGasAndCommissions",
      "outputs": [
        {
          "internalType": "uint256[3]",
          "name": "",
          "type": "uint256[3]"
        }
      ],
      "stateMutability": "view",
      "type": "function"
    },
    {
      "inputs": [
        {
          "internalType": "address",
          "name": "_newAddress",
          "type": "address"
        }
      ],
      "name": "changeAddressMinterWallet",
      "outputs": [
        {
          "internalType": "bool",
          "name": "",
          "type": "bool"
        }
      ],
      "stateMutability": "nonpayable",
      "type": "function"
    },
    {
      "inputs": [
        {
          "internalType": "address",
          "name": "_newAddress",
          "type": "address"
        }
      ],
      "name": "changeAddressMinterWallet2",
      "outputs": [
        {
          "internalType": "bool",
          "name": "",
          "type": "bool"
        }
      ],
      "stateMutability": "nonpayable",
      "type": "function"
    },
    {
      "inputs": [
        {
          "internalType": "address",
          "name": "_newAddress",
          "type": "address"
        }
      ],
      "name": "changeAddressMinterWallet3",
      "outputs": [
        {
          "internalType": "bool",
          "name": "",
          "type": "bool"
        }
      ],
      "stateMutability": "nonpayable",
      "type": "function"
    },
    {
      "inputs": [
        {
          "internalType": "address",
          "name": "_newAddress",
          "type": "address"
        }
      ],
      "name": "changeAddressMinterWallet4",
      "outputs": [
        {
          "internalType": "bool",
          "name": "",
          "type": "bool"
        }
      ],
      "stateMutability": "nonpayable",
      "type": "function"
    },
    {
      "inputs": [
        {
          "internalType": "uint256[]",
          "name": "_newData",
          "type": "uint256[]"
        }
      ],
      "name": "changeAnimalsPoints",
      "outputs": [
        {
          "internalType": "bool",
          "name": "",
          "type": "bool"
        }
      ],
      "stateMutability": "nonpayable",
      "type": "function"
    },
    {
      "inputs": [
        {
          "internalType": "uint256[]",
          "name": "_newData",
          "type": "uint256[]"
        }
      ],
      "name": "changeAnimalsProbability",
      "outputs": [
        {
          "internalType": "bool",
          "name": "",
          "type": "bool"
        }
      ],
      "stateMutability": "nonpayable",
      "type": "function"
    },
    {
      "inputs": [
        {
          "internalType": "uint256[]",
          "name": "_newData",
          "type": "uint256[]"
        }
      ],
      "name": "changeAnimalsRewards",
      "outputs": [
        {
          "internalType": "bool",
          "name": "",
          "type": "bool"
        }
      ],
      "stateMutability": "nonpayable",
      "type": "function"
    },
    {
      "inputs": [
        {
          "internalType": "string",
          "name": "newBaseTokenURI",
          "type": "string"
        }
      ],
      "name": "changeBaseTokenURI",
      "outputs": [],
      "stateMutability": "nonpayable",
      "type": "function"
    },
    {
      "inputs": [
        {
          "internalType": "uint256",
          "name": "_newPrice",
          "type": "uint256"
        }
      ],
      "name": "changeBoxPriceCWolf",
      "outputs": [
        {
          "internalType": "bool",
          "name": "",
          "type": "bool"
        }
      ],
      "stateMutability": "nonpayable",
      "type": "function"
    },
    {
      "inputs": [
        {
          "internalType": "address",
          "name": "_newAddress",
          "type": "address"
        }
      ],
      "name": "changeCWOLFContractAddress",
      "outputs": [
        {
          "internalType": "bool",
          "name": "",
          "type": "bool"
        }
      ],
      "stateMutability": "nonpayable",
      "type": "function"
    },
    {
      "inputs": [
        {
          "internalType": "address",
          "name": "_newAddress",
          "type": "address"
        }
      ],
      "name": "changeClaimContractAddress",
      "outputs": [
        {
          "internalType": "bool",
          "name": "",
          "type": "bool"
        }
      ],
      "stateMutability": "nonpayable",
      "type": "function"
    },
    {
      "inputs": [
        {
          "internalType": "address",
          "name": "_newAddress",
          "type": "address"
        }
      ],
      "name": "changeCommissionWalletAddress",
      "outputs": [
        {
          "internalType": "bool",
          "name": "",
          "type": "bool"
        }
      ],
      "stateMutability": "nonpayable",
      "type": "function"
    },
    {
      "inputs": [
        {
          "internalType": "uint256",
          "name": "_newValue",
          "type": "uint256"
        }
      ],
      "name": "changeGasToMinter",
      "outputs": [
        {
          "internalType": "bool",
          "name": "",
          "type": "bool"
        }
      ],
      "stateMutability": "nonpayable",
      "type": "function"
    },
    {
      "inputs": [
        {
          "internalType": "address",
          "name": "_newAddress",
          "type": "address"
        }
      ],
      "name": "changeRewardsPool",
      "outputs": [
        {
          "internalType": "bool",
          "name": "",
          "type": "bool"
        }
      ],
      "stateMutability": "nonpayable",
      "type": "function"
    },
    {
      "inputs": [
        {
          "internalType": "address",
          "name": "_newAddress",
          "type": "address"
        }
      ],
      "name": "changeVariablesContractAddress",
      "outputs": [
        {
          "internalType": "bool",
          "name": "",
          "type": "bool"
        }
      ],
      "stateMutability": "nonpayable",
      "type": "function"
    },
    {
      "inputs": [
        {
          "internalType": "address",
          "name": "_newAddress",
          "type": "address"
        }
      ],
      "name": "changeWolfPackNFTContractAddress",
      "outputs": [
        {
          "internalType": "bool",
          "name": "",
          "type": "bool"
        }
      ],
      "stateMutability": "nonpayable",
      "type": "function"
    },
    {
      "inputs": [
        {
          "internalType": "uint256",
          "name": "_wolfPackId",
          "type": "uint256"
        },
        {
          "internalType": "uint256",
          "name": "_positionToAttack",
          "type": "uint256"
        }
      ],
      "name": "checkWolfPack",
      "outputs": [
        {
          "internalType": "bool",
          "name": "",
          "type": "bool"
        }
      ],
      "stateMutability": "view",
      "type": "function"
    },
    {
      "inputs": [],
      "name": "commissionWalletAddress",
      "outputs": [
        {
          "internalType": "address",
          "name": "",
          "type": "address"
        }
      ],
      "stateMutability": "view",
      "type": "function"
    },
    {
      "inputs": [
        {
          "internalType": "uint256",
          "name": "",
          "type": "uint256"
        }
      ],
      "name": "dateOfHunting",
      "outputs": [
        {
          "internalType": "uint256",
          "name": "",
          "type": "uint256"
        }
      ],
      "stateMutability": "view",
      "type": "function"
    },
    {
      "inputs": [],
      "name": "gasToMinter",
      "outputs": [
        {
          "internalType": "uint256",
          "name": "",
          "type": "uint256"
        }
      ],
      "stateMutability": "view",
      "type": "function"
    },
    {
      "inputs": [
        {
          "internalType": "uint256[]",
          "name": "_huntingIds",
          "type": "uint256[]"
        },
        {
          "internalType": "bytes32",
          "name": "_seed",
          "type": "bytes32"
        }
      ],
      "name": "generateResult",
      "outputs": [
        {
          "internalType": "bool",
          "name": "",
          "type": "bool"
        }
      ],
      "stateMutability": "nonpayable",
      "type": "function"
    },
    {
      "inputs": [
        {
          "internalType": "uint256",
          "name": "tokenId",
          "type": "uint256"
        }
      ],
      "name": "getApproved",
      "outputs": [
        {
          "internalType": "address",
          "name": "",
          "type": "address"
        }
      ],
      "stateMutability": "view",
      "type": "function"
    },
    {
      "inputs": [
        {
          "internalType": "uint256",
          "name": "_wolfPackId",
          "type": "uint256"
        },
        {
          "internalType": "uint256",
          "name": "_positionToAttack",
          "type": "uint256"
        }
      ],
      "name": "getWinProbability",
      "outputs": [
        {
          "internalType": "uint256",
          "name": "",
          "type": "uint256"
        }
      ],
      "stateMutability": "view",
      "type": "function"
    },
    {
      "inputs": [
        {
          "internalType": "address",
          "name": "CWOLFContractAddress_",
          "type": "address"
        },
        {
          "internalType": "address",
          "name": "rewardsPoolAddress_",
          "type": "address"
        },
        {
          "internalType": "address",
          "name": "minterWalletAddress_",
          "type": "address"
        },
        {
          "internalType": "address",
          "name": "WolfPackNFTContractAddress_",
          "type": "address"
        },
        {
          "internalType": "address",
          "name": "commissionWalletAddress_",
          "type": "address"
        }
      ],
      "name": "initialize",
      "outputs": [],
      "stateMutability": "nonpayable",
      "type": "function"
    },
    {
      "inputs": [],
      "name": "initializeBenefits",
      "outputs": [
        {
          "internalType": "bool",
          "name": "",
          "type": "bool"
        }
      ],
      "stateMutability": "nonpayable",
      "type": "function"
    },
    {
      "inputs": [],
      "name": "initializeBnbForMint",
      "outputs": [
        {
          "internalType": "bool",
          "name": "",
          "type": "bool"
        }
      ],
      "stateMutability": "nonpayable",
      "type": "function"
    },
    {
      "inputs": [
        {
          "internalType": "address",
          "name": "owner",
          "type": "address"
        },
        {
          "internalType": "address",
          "name": "operator",
          "type": "address"
        }
      ],
      "name": "isApprovedForAll",
      "outputs": [
        {
          "internalType": "bool",
          "name": "",
          "type": "bool"
        }
      ],
      "stateMutability": "view",
      "type": "function"
    },
    {
      "inputs": [
        {
          "internalType": "uint256",
          "name": "",
          "type": "uint256"
        }
      ],
      "name": "isClaimed",
      "outputs": [
        {
          "internalType": "bool",
          "name": "",
          "type": "bool"
        }
      ],
      "stateMutability": "view",
      "type": "function"
    },
    {
      "inputs": [
        {
          "internalType": "uint256",
          "name": "",
          "type": "uint256"
        }
      ],
      "name": "isGenerated",
      "outputs": [
        {
          "internalType": "bool",
          "name": "",
          "type": "bool"
        }
      ],
      "stateMutability": "view",
      "type": "function"
    },
    {
      "inputs": [],
      "name": "isInitialized",
      "outputs": [
        {
          "internalType": "bool",
          "name": "",
          "type": "bool"
        }
      ],
      "stateMutability": "view",
      "type": "function"
    },
    {
      "inputs": [
        {
          "internalType": "uint256",
          "name": "_wolfPackId",
          "type": "uint256"
        },
        {
          "internalType": "uint256",
          "name": "_positionToAttack",
          "type": "uint256"
        }
      ],
      "name": "mintWithCWOLF",
      "outputs": [
        {
          "internalType": "bool",
          "name": "",
          "type": "bool"
        }
      ],
      "stateMutability": "payable",
      "type": "function"
    },
    {
      "inputs": [],
      "name": "minterWalletAddress",
      "outputs": [
        {
          "internalType": "address",
          "name": "",
          "type": "address"
        }
      ],
      "stateMutability": "view",
      "type": "function"
    },
    {
      "inputs": [],
      "name": "minterWalletAddress2",
      "outputs": [
        {
          "internalType": "address",
          "name": "",
          "type": "address"
        }
      ],
      "stateMutability": "view",
      "type": "function"
    },
    {
      "inputs": [],
      "name": "minterWalletAddress3",
      "outputs": [
        {
          "internalType": "address",
          "name": "",
          "type": "address"
        }
      ],
      "stateMutability": "view",
      "type": "function"
    },
    {
      "inputs": [],
      "name": "minterWalletAddress4",
      "outputs": [
        {
          "internalType": "address",
          "name": "",
          "type": "address"
        }
      ],
      "stateMutability": "view",
      "type": "function"
    },
    {
      "inputs": [],
      "name": "name",
      "outputs": [
        {
          "internalType": "string",
          "name": "",
          "type": "string"
        }
      ],
      "stateMutability": "view",
      "type": "function"
    },
    {
      "inputs": [],
      "name": "owner",
      "outputs": [
        {
          "internalType": "address",
          "name": "",
          "type": "address"
        }
      ],
      "stateMutability": "view",
      "type": "function"
    },
    {
      "inputs": [
        {
          "internalType": "uint256",
          "name": "tokenId",
          "type": "uint256"
        }
      ],
      "name": "ownerOf",
      "outputs": [
        {
          "internalType": "address",
          "name": "",
          "type": "address"
        }
      ],
      "stateMutability": "view",
      "type": "function"
    },
    {
      "inputs": [],
      "name": "pause",
      "outputs": [
        {
          "internalType": "bool",
          "name": "",
          "type": "bool"
        }
      ],
      "stateMutability": "nonpayable",
      "type": "function"
    },
    {
      "inputs": [],
      "name": "paused",
      "outputs": [
        {
          "internalType": "bool",
          "name": "",
          "type": "bool"
        }
      ],
      "stateMutability": "view",
      "type": "function"
    },
    {
      "inputs": [
        {
          "internalType": "uint256",
          "name": "",
          "type": "uint256"
        }
      ],
      "name": "positionToAttack",
      "outputs": [
        {
          "internalType": "uint256",
          "name": "",
          "type": "uint256"
        }
      ],
      "stateMutability": "view",
      "type": "function"
    },
    {
      "inputs": [],
      "name": "renounceOwnership",
      "outputs": [],
      "stateMutability": "nonpayable",
      "type": "function"
    },
    {
      "inputs": [
        {
          "internalType": "uint256",
          "name": "",
          "type": "uint256"
        }
      ],
      "name": "rewards",
      "outputs": [
        {
          "internalType": "uint256",
          "name": "",
          "type": "uint256"
        }
      ],
      "stateMutability": "view",
      "type": "function"
    },
    {
      "inputs": [],
      "name": "rewardsPoolAddress",
      "outputs": [
        {
          "internalType": "address",
          "name": "",
          "type": "address"
        }
      ],
      "stateMutability": "view",
      "type": "function"
    },
    {
      "inputs": [
        {
          "internalType": "address",
          "name": "from",
          "type": "address"
        },
        {
          "internalType": "address",
          "name": "to",
          "type": "address"
        },
        {
          "internalType": "uint256",
          "name": "tokenId",
          "type": "uint256"
        }
      ],
      "name": "safeTransferFrom",
      "outputs": [],
      "stateMutability": "nonpayable",
      "type": "function"
    },
    {
      "inputs": [
        {
          "internalType": "address",
          "name": "from",
          "type": "address"
        },
        {
          "internalType": "address",
          "name": "to",
          "type": "address"
        },
        {
          "internalType": "uint256",
          "name": "tokenId",
          "type": "uint256"
        },
        {
          "internalType": "bytes",
          "name": "_data",
          "type": "bytes"
        }
      ],
      "name": "safeTransferFrom",
      "outputs": [],
      "stateMutability": "nonpayable",
      "type": "function"
    },
    {
      "inputs": [
        {
          "internalType": "address",
          "name": "operator",
          "type": "address"
        },
        {
          "internalType": "bool",
          "name": "approved",
          "type": "bool"
        }
      ],
      "name": "setApprovalForAll",
      "outputs": [],
      "stateMutability": "nonpayable",
      "type": "function"
    },
    {
      "inputs": [],
      "name": "strBaseTokenURI",
      "outputs": [
        {
          "internalType": "string",
          "name": "",
          "type": "string"
        }
      ],
      "stateMutability": "view",
      "type": "function"
    },
    {
      "inputs": [
        {
          "internalType": "bytes4",
          "name": "interfaceId",
          "type": "bytes4"
        }
      ],
      "name": "supportsInterface",
      "outputs": [
        {
          "internalType": "bool",
          "name": "",
          "type": "bool"
        }
      ],
      "stateMutability": "view",
      "type": "function"
    },
    {
      "inputs": [],
      "name": "symbol",
      "outputs": [
        {
          "internalType": "string",
          "name": "",
          "type": "string"
        }
      ],
      "stateMutability": "view",
      "type": "function"
    },
    {
      "inputs": [
        {
          "internalType": "uint256",
          "name": "index",
          "type": "uint256"
        }
      ],
      "name": "tokenByIndex",
      "outputs": [
        {
          "internalType": "uint256",
          "name": "",
          "type": "uint256"
        }
      ],
      "stateMutability": "view",
      "type": "function"
    },
    {
      "inputs": [
        {
          "internalType": "address",
          "name": "owner",
          "type": "address"
        },
        {
          "internalType": "uint256",
          "name": "index",
          "type": "uint256"
        }
      ],
      "name": "tokenOfOwnerByIndex",
      "outputs": [
        {
          "internalType": "uint256",
          "name": "",
          "type": "uint256"
        }
      ],
      "stateMutability": "view",
      "type": "function"
    },
    {
      "inputs": [
        {
          "internalType": "uint256",
          "name": "_tokenId",
          "type": "uint256"
        }
      ],
      "name": "tokenURI",
      "outputs": [
        {
          "internalType": "string",
          "name": "",
          "type": "string"
        }
      ],
      "stateMutability": "view",
      "type": "function"
    },
    {
      "inputs": [],
      "name": "totalSupply",
      "outputs": [
        {
          "internalType": "uint256",
          "name": "",
          "type": "uint256"
        }
      ],
      "stateMutability": "view",
      "type": "function"
    },
    {
      "inputs": [
        {
          "internalType": "address",
          "name": "from",
          "type": "address"
        },
        {
          "internalType": "address",
          "name": "to",
          "type": "address"
        },
        {
          "internalType": "uint256",
          "name": "tokenId",
          "type": "uint256"
        }
      ],
      "name": "transferFrom",
      "outputs": [],
      "stateMutability": "nonpayable",
      "type": "function"
    },
    {
      "inputs": [
        {
          "internalType": "address",
          "name": "newOwner",
          "type": "address"
        }
      ],
      "name": "transferOwnership",
      "outputs": [],
      "stateMutability": "nonpayable",
      "type": "function"
    },
    {
      "inputs": [],
      "name": "unpause",
      "outputs": [
        {
          "internalType": "bool",
          "name": "",
          "type": "bool"
        }
      ],
      "stateMutability": "nonpayable",
      "type": "function"
    },
    {
      "inputs": [
        {
          "internalType": "address",
          "name": "_owner",
          "type": "address"
        }
      ],
      "name": "walletOfOwner",
      "outputs": [
        {
          "internalType": "uint256[]",
          "name": "",
          "type": "uint256[]"
        }
      ],
      "stateMutability": "view",
      "type": "function"
    },
    {
      "inputs": [
        {
          "internalType": "uint256",
          "name": "",
          "type": "uint256"
        }
      ],
      "name": "wolfPackId",
      "outputs": [
        {
          "internalType": "uint256",
          "name": "",
          "type": "uint256"
        }
      ],
      "stateMutability": "view",
      "type": "function"
    }
  ],
  "transactionHash": "0x4e38e593d764a364669e1ae55986ba8f38b73152da6dbae61e44240e1c311ea8",
  "args": [],
  "solcInputHash": "460517f05ec957444267af0d2f89b6ca",
  "bytecode": "0x60806040523480156200001157600080fd5b50600054610100900460ff16806200002c575060005460ff16155b620000945760405162461bcd60e51b815260206004820152602e60248201527f496e697469616c697a61626c653a20636f6e747261637420697320616c72656160448201526d191e481a5b9a5d1a585b1a5e995960921b606482015260840160405180910390fd5b600054610100900460ff16158015620000b7576000805461ffff19166101011790555b8015620000ca576000805461ff00191690555b506150fc80620000db6000396000f3fe60806040526004361061041a5760003560e01c80638456cb591161021e578063c79af5ec11610123578063e2361414116100ab578063e985e9c51161007a578063e985e9c514610ca9578063ee3a26a614610cf2578063f2fde38b14610d12578063f301af4214610d32578063f4f4030814610d6057600080fd5b8063e236141414610c28578063e40e97a714610c48578063e524da0d14610c68578063e724348a14610c8957600080fd5b8063cce85055116100f2578063cce8505514610b78578063ce4086a914610b99578063d6ded3bc14610bc7578063d935a57b14610be7578063da6401ab14610c1557600080fd5b8063c79af5ec14610af4578063c87b56dd14610b22578063c981612614610b42578063ca84763314610b6357600080fd5b8063a1d3567a116101a6578063af094d7411610175578063af094d7414610a65578063b8798df414610a7c578063b88d4fde14610a9c578063b95e84ef14610abc578063bd0e346c14610add57600080fd5b8063a1d3567a146109e3578063a22cb465146109f8578063aaa2400b14610a18578063ae06564314610a3857600080fd5b80639232b5c7116101ed5780639232b5c71461093c57806395d89b411461095c5780639731c4f71461097157806398f00442146109915780639e34070f146109b257600080fd5b80638456cb59146108c75780638d4c0667146108dc5780638da5cb5b146108fd57806390343f5e1461091c57600080fd5b80632f745c591161032457806357ca800f116102ac57806370a082311161027b57806370a082311461082c578063715018a61461084c57806379e9de25146108615780637d31cc40146108815780637f46ecd81461089657600080fd5b806357ca800f146107b35780635c975abb146107d45780636352211e146107ec5780636448bb431461080c57600080fd5b8063438b6300116102f3578063438b63001461070657806343dd5eb1146107335780634f4ba418146107535780634f6ccce71461077357806351793e291461079357600080fd5b80632f745c5914610696578063392e53cd146106b65780633f4ba83a146106d157806342842e0e146106e657600080fd5b806310d006d8116103a757806318160ddd1161037657806318160ddd14610600578063219860831461061557806323b872dd14610635578063266108c9146106555780632b29f5981461067657600080fd5b806310d006d81461057f5780631459457a1461059f57806317354b73146105bf5780631755ce9b146105e057600080fd5b8063081812fc116103ee578063081812fc146104c4578063095ea7b3146104fc5780630d30059d1461051e5780630eb8fb691461053e5780630f51dd3b1461055e57600080fd5b80629959b21461041f57806301ffc9a714610452578063027c41f41461048257806306fdde03146104a2575b600080fd5b34801561042b57600080fd5b5061043f61043a36600461473b565b610d80565b6040519081526020015b60405180910390f35b34801561045e57600080fd5b5061047261046d36600461476a565b610da2565b6040519015158152602001610449565b34801561048e57600080fd5b5061047261049d3660046147a3565b610dcd565b3480156104ae57600080fd5b506104b7610e2a565b6040516104499190614818565b3480156104d057600080fd5b506104e46104df36600461473b565b610ebc565b6040516001600160a01b039091168152602001610449565b34801561050857600080fd5b5061051c61051736600461482b565b610f51565b005b34801561052a57600080fd5b5061047261053936600461473b565b611067565b34801561054a57600080fd5b5061043f61055936600461473b565b61109f565b34801561056a57600080fd5b50610173546104e4906001600160a01b031681565b34801561058b57600080fd5b5061047261059a3660046147a3565b6110b0565b3480156105ab57600080fd5b5061051c6105ba366004614857565b611104565b3480156105cb57600080fd5b50610170546104e4906001600160a01b031681565b3480156105ec57600080fd5b506104726105fb3660046147a3565b61125c565b34801561060c57600080fd5b5060995461043f565b34801561062157600080fd5b5061043f6106303660046148c8565b6112b0565b34801561064157600080fd5b5061051c6106503660046148ea565b6113d6565b34801561066157600080fd5b50610163546104e4906001600160a01b031681565b34801561068257600080fd5b506104726106913660046149f2565b611407565b3480156106a257600080fd5b5061043f6106b136600461482b565b611452565b3480156106c257600080fd5b5061015f546104729060ff1681565b3480156106dd57600080fd5b506104726114e8565b3480156106f257600080fd5b5061051c6107013660046148ea565b611524565b34801561071257600080fd5b506107266107213660046147a3565b61153f565b6040516104499190614a27565b34801561073f57600080fd5b5061047261074e3660046147a3565b6115e1565b34801561075f57600080fd5b5061047261076e36600461473b565b611635565b34801561077f57600080fd5b5061043f61078e36600461473b565b61166d565b34801561079f57600080fd5b506104726107ae3660046147a3565b611700565b3480156107bf57600080fd5b50610164546104e4906001600160a01b031681565b3480156107e057600080fd5b5060c95460ff16610472565b3480156107f857600080fd5b506104e461080736600461473b565b611754565b34801561081857600080fd5b506104726108273660046147a3565b6117cb565b34801561083857600080fd5b5061043f6108473660046147a3565b61181f565b34801561085857600080fd5b5061051c6118a6565b34801561086d57600080fd5b5061043f61087c36600461473b565b6118dd565b34801561088d57600080fd5b506104726118ee565b3480156108a257600080fd5b506104726108b136600461473b565b61016e6020526000908152604090205460ff1681565b3480156108d357600080fd5b50610472611af7565b3480156108e857600080fd5b50610174546104e4906001600160a01b031681565b34801561090957600080fd5b5061012d546001600160a01b03166104e4565b34801561092857600080fd5b506104726109373660046147a3565b611b2d565b34801561094857600080fd5b506104726109573660046147a3565b611b81565b34801561096857600080fd5b506104b7611bd5565b34801561097d57600080fd5b5061047261098c366004614a6b565b611be4565b34801561099d57600080fd5b50610175546104e4906001600160a01b031681565b3480156109be57600080fd5b506104726109cd36600461473b565b61016f6020526000908152604090205460ff1681565b3480156109ef57600080fd5b50610472612232565b348015610a0457600080fd5b5061051c610a13366004614abe565b612415565b348015610a2457600080fd5b50610472610a333660046147a3565b612424565b348015610a4457600080fd5b50610a58610a5336600461473b565b612478565b6040516104499190614af7565b348015610a7157600080fd5b5061043f6101605481565b348015610a8857600080fd5b50610472610a973660046148c8565b612547565b348015610aa857600080fd5b5061051c610ab7366004614b80565b612a16565b348015610ac857600080fd5b50610171546104e4906001600160a01b031681565b348015610ae957600080fd5b5061043f6101615481565b348015610b0057600080fd5b5061043f610b0f36600461473b565b61016a6020526000908152604090205481565b348015610b2e57600080fd5b506104b7610b3d36600461473b565b612a4e565b348015610b4e57600080fd5b50610172546104e4906001600160a01b031681565b348015610b6f57600080fd5b506104b7612ae4565b348015610b8457600080fd5b50610162546104e4906001600160a01b031681565b348015610ba557600080fd5b5061043f610bb436600461473b565b61016b6020526000908152604090205481565b348015610bd357600080fd5b5061043f610be236600461473b565b612b73565b348015610bf357600080fd5b5061043f610c0236600461473b565b61016c6020526000908152604090205481565b610472610c233660046148c8565b612b84565b348015610c3457600080fd5b50610472610c433660046149f2565b6131de565b348015610c5457600080fd5b5061051c610c63366004614c00565b613220565b348015610c7457600080fd5b50610165546104e4906001600160a01b031681565b348015610c9557600080fd5b50610472610ca43660046147a3565b61325f565b348015610cb557600080fd5b50610472610cc4366004614c49565b6001600160a01b039182166000908152606a6020908152604080832093909416825291909152205460ff1690565b348015610cfe57600080fd5b5061043f610d0d36600461473b565b6132b3565b348015610d1e57600080fd5b5061051c610d2d3660046147a3565b6132c4565b348015610d3e57600080fd5b5061043f610d4d36600461473b565b61016d6020526000908152604090205481565b348015610d6c57600080fd5b50610472610d7b3660046149f2565b613360565b6101678181548110610d9157600080fd5b600091825260209091200154905081565b60006001600160e01b0319821663780e9d6360e01b1480610dc75750610dc7826133a2565b92915050565b61012d546000906001600160a01b03163314610e045760405162461bcd60e51b8152600401610dfb90614c77565b60405180910390fd5b5061017280546001600160a01b0383166001600160a01b03199091161790556001919050565b606060658054610e3990614cac565b80601f0160208091040260200160405190810160405280929190818152602001828054610e6590614cac565b8015610eb25780601f10610e8757610100808354040283529160200191610eb2565b820191906000526020600020905b815481529060010190602001808311610e9557829003601f168201915b5050505050905090565b6000818152606760205260408120546001600160a01b0316610f355760405162461bcd60e51b815260206004820152602c60248201527f4552433732313a20617070726f76656420717565727920666f72206e6f6e657860448201526b34b9ba32b73a103a37b5b2b760a11b6064820152608401610dfb565b506000908152606960205260409020546001600160a01b031690565b6000610f5c82611754565b9050806001600160a01b0316836001600160a01b03161415610fca5760405162461bcd60e51b815260206004820152602160248201527f4552433732313a20617070726f76616c20746f2063757272656e74206f776e656044820152603960f91b6064820152608401610dfb565b336001600160a01b0382161480610fe65750610fe68133610cc4565b6110585760405162461bcd60e51b815260206004820152603860248201527f4552433732313a20617070726f76652063616c6c6572206973206e6f74206f7760448201527f6e6572206e6f7220617070726f76656420666f7220616c6c00000000000000006064820152608401610dfb565b61106283836133f2565b505050565b61012d546000906001600160a01b031633146110955760405162461bcd60e51b8152600401610dfb90614c77565b5061016155600190565b6101768181548110610d9157600080fd5b61012d546000906001600160a01b031633146110de5760405162461bcd60e51b8152600401610dfb90614c77565b5061017180546001600160a01b0383166001600160a01b03199091161790556001919050565b600054610100900460ff168061111d575060005460ff16155b6111395760405162461bcd60e51b8152600401610dfb90614ce7565b600054610100900460ff1615801561115b576000805461ffff19166101011790555b6111a96040518060400160405280600a815260200169121d5b9d1a5b99d3919560b21b8152506040518060400160405280600a815260200169121d5b9d1a5b99d3919560b21b815250613460565b6111b16134e7565b61016380546001600160a01b038089166001600160a01b031992831617909255610162805488841690831617905566038d7ea4c68000610161556101658054878416908316179055610164805492861692909116919091179055611216846000613562565b61015f805460ff1916600117905561017280546001600160a01b0384166001600160a01b03199091161790558015611254576000805461ff00191690555b505050505050565b61012d546000906001600160a01b0316331461128a5760405162461bcd60e51b8152600401610dfb90614c77565b5061017480546001600160a01b0383166001600160a01b03199091161790556001919050565b60008061016783815481106112c7576112c7614d35565b90600052602060002001549050600061016884815481106112ea576112ea614d35565b600091825260208220015461016454604051634fb22a7160e11b8152600481018990529193506001600160a01b031690639f6454e29060240160206040518083038186803b15801561133b57600080fd5b505afa15801561134f573d6000803e3d6000fd5b505050506040513d601f19601f820116820180604052508101906113739190614d4b565b9050605a821061138757509150610dc79050565b60006113938483614d7a565b905060006113a2606483614da7565b905060006113b08286614dbb565b9050605a81106113c957605a9650505050505050610dc7565b9550610dc7945050505050565b6113e0338261357c565b6113fc5760405162461bcd60e51b8152600401610dfb90614dd3565b611062838383613673565b61012d546000906001600160a01b031633146114355760405162461bcd60e51b8152600401610dfb90614c77565b8151611449906101679060208501906145bd565b50600192915050565b600061145d8361181f565b82106114bf5760405162461bcd60e51b815260206004820152602b60248201527f455243373231456e756d657261626c653a206f776e657220696e646578206f7560448201526a74206f6620626f756e647360a81b6064820152608401610dfb565b506001600160a01b03919091166000908152609760209081526040808320938352929052205490565b61012d546000906001600160a01b031633146115165760405162461bcd60e51b8152600401610dfb90614c77565b61151e61381e565b50600190565b61106283838360405180602001604052806000815250612a16565b6060600061154c8361181f565b905060008167ffffffffffffffff8111156115695761156961492b565b604051908082528060200260200182016040528015611592578160200160208202803683370190505b50905060005b828110156115d9576115aa8582611452565b8282815181106115bc576115bc614d35565b6020908102919091010152806115d181614e24565b915050611598565b509392505050565b61012d546000906001600160a01b0316331461160f5760405162461bcd60e51b8152600401610dfb90614c77565b5061017080546001600160a01b0383166001600160a01b03199091161790556001919050565b61012d546000906001600160a01b031633146116635760405162461bcd60e51b8152600401610dfb90614c77565b5061016055600190565b600061167860995490565b82106116db5760405162461bcd60e51b815260206004820152602c60248201527f455243373231456e756d657261626c653a20676c6f62616c20696e646578206f60448201526b7574206f6620626f756e647360a01b6064820152608401610dfb565b609982815481106116ee576116ee614d35565b90600052602060002001549050919050565b61012d546000906001600160a01b0316331461172e5760405162461bcd60e51b8152600401610dfb90614c77565b5061016480546001600160a01b0383166001600160a01b03199091161790556001919050565b6000818152606760205260408120546001600160a01b031680610dc75760405162461bcd60e51b815260206004820152602960248201527f4552433732313a206f776e657220717565727920666f72206e6f6e657869737460448201526832b73a103a37b5b2b760b91b6064820152608401610dfb565b61012d546000906001600160a01b031633146117f95760405162461bcd60e51b8152600401610dfb90614c77565b5061016280546001600160a01b0383166001600160a01b03199091161790556001919050565b60006001600160a01b03821661188a5760405162461bcd60e51b815260206004820152602a60248201527f4552433732313a2062616c616e636520717565727920666f7220746865207a65604482015269726f206164647265737360b01b6064820152608401610dfb565b506001600160a01b031660009081526068602052604090205490565b61012d546001600160a01b031633146118d15760405162461bcd60e51b8152600401610dfb90614c77565b6118db60006138b1565b565b6101698181548110610d9157600080fd5b61012d546000906001600160a01b0316331461191c5760405162461bcd60e51b8152600401610dfb90614c77565b604080516103c08101825267058d15e1762800008152670a688906bd8b00006020820152670f43fc2c04ee00009181019190915267141f6f514c51000060608201526718fae27693b400006080820152671dd6559bdb17000060a08201526722b1c8c1227a000060c082015267278d3be669dd000060e0820152672c68af0bb14000006101008201526731442230f8a3000061012082015267361f955640060000610140820152673afb087b87690000610160820152673fd67ba0cecc00006101808201526744b1eec6162f00006101a082015267498d61eb5d9200006101c0820152674e68d510a4f500006101e08201526753444835ec58000061020082015267581fbb5b33bb0000610220820152675cfb2e807b1e00006102408201526761d6a1a5c28100006102608201526766b214cb09e40000610280820152676b8d87f0514700006102a0820152677068fb1598aa00006102c08201526775446e3ae00d00006102e0820152677a1fe16027700000610300820152677efb54856ed300006103208201526783d6c7aab63600006103408201526788b23acffd990000610360820152678d8dadf544fc0000610380820152679269211a8c5f00006103a0820152611aef9061017790601e614608565b506001905090565b61012d546000906001600160a01b03163314611b255760405162461bcd60e51b8152600401610dfb90614c77565b61151e613904565b61012d546000906001600160a01b03163314611b5b5760405162461bcd60e51b8152600401610dfb90614c77565b5061017380546001600160a01b0383166001600160a01b03199091161790556001919050565b61012d546000906001600160a01b03163314611baf5760405162461bcd60e51b8152600401610dfb90614c77565b5061016380546001600160a01b0383166001600160a01b03199091161790556001919050565b606060668054610e3990614cac565b6000805b8351811015612228576000848281518110611c0557611c05614d35565b602002602001015190508060001415611c4e5760405162461bcd60e51b815260206004820152600b60248201526a139bdd08185b1b1bddd95960aa1b6044820152606401610dfb565b61012d546001600160a01b0316331480611c735750610165546001600160a01b031633145b80611c895750610173546001600160a01b031633145b80611c9f5750610174546001600160a01b031633145b80611cb55750610175546001600160a01b031633145b611cef5760405162461bcd60e51b815260206004820152600b60248201526a139bdd08185b1b1bddd95960aa1b6044820152606401610dfb565b6000818152606760205260409020546001600160a01b0316611d4a5760405162461bcd60e51b8152602060048201526014602482015273151bdad95b88191bd95cc81b9bdd08195e1a5cdd60621b6044820152606401610dfb565b600081815261016e602052604090205460ff1615611d6757600080fd5b600081815261016b602090815260408083205461016a9092528220549091611d8e84611754565b90506000611d9c83856112b0565b905060006101698581548110611db457611db4614d35565b600091825260209091200154610164546040516341b5064560e11b8152600481018790529192506001600160a01b03169063836a0c8a9060240160206040518083038186803b158015611e0657600080fd5b505afa158015611e1a573d6000803e3d6000fd5b505050506040513d601f19601f82011682018060405250810190611e3e9190614e3f565b15611eb25760006127106101698781548110611e5c57611e5c614d35565b90600052602060002001546107d0611e749190614e5c565b611e7e9190614da7565b9050806101698781548110611e9557611e95614d35565b9060005260206000200154611eaa9190614dbb565b915050611ed4565b6101698581548110611ec657611ec6614d35565b906000526020600020015490505b6000611f148a89604051602001611ef5929190918252602082015260400190565b604051602081830303815290604052805190602001206000606461397f565b90508281116120c25760006127106101678881548110611f3657611f36614d35565b9060005260206000200154610190611f4e9190614e5c565b611f589190614da7565b61016454604051633a90efed60e01b815260048101899052602481018390529192506001600160a01b031690633a90efed90604401600060405180830381600087803b158015611fa757600080fd5b505af1158015611fbb573d6000803e3d6000fd5b50506101715460405163674adb7d60e01b815260048101879052600093506001600160a01b03909116915063674adb7d9060240160206040518083038186803b15801561200757600080fd5b505afa15801561201b573d6000803e3d6000fd5b505050506040513d601f19601f8201168201806040525081019061203f9190614d4b565b60008a815261016d6020526040908190208290556101705490516309feb8f560e41b81526001600160a01b03898116600483015260248201849052929350911690639feb8f5090604401600060405180830381600087803b1580156120a357600080fd5b505af11580156120b7573d6000803e3d6000fd5b5050505050506121cd565b600061271061016788815481106120db576120db614d35565b90600052602060002001546103e86120f39190614e5c565b6120fd9190614da7565b61016454604051633a90efed60e01b815260048101899052602481018390529192506001600160a01b031690633a90efed90604401600060405180830381600087803b15801561214c57600080fd5b505af1158015612160573d6000803e3d6000fd5b5050610170546040516309feb8f560e41b81526001600160a01b038981166004830152600060248301529091169250639feb8f509150604401600060405180830381600087803b1580156121b357600080fd5b505af11580156121c7573d6000803e3d6000fd5b50505050505b600087815261016e6020526040808220805460ff191660011790555188917f5f542350ac3eb912aa72c9ed7b3822a1cd825abcc4b639c23f0066e7f20304df91a250505050505050808061222090614e24565b915050611be8565b5060019392505050565b61012d546000906001600160a01b031633146122605760405162461bcd60e51b8152600401610dfb90614c77565b604080516103c0810182526603328b944c400081526606c00a3912c000602082015266082bd67afbc00091810191909152660b036efecdc0006060820152660ddb07829fc0006080820152660ffcb9e57d400060a082015266121e6c485ac00060c082015266149b11bbb2800060e08201526617cd9d4ffec0006101008201526619ef4fb2dc4000610120820152661c6bf526340000610140820152661e8da7891180006101608201526620af59ebef00006101808201526622d10c4ecc80006101a08201526624f2beb1aa00006101c08201526626b97e040d40006101e08201526629362377650000610200820152662b57d5da428000610220820152662d79883d200000610240820152662f9b3a9ffd8000610260820152663439927632c0006102808201526638d7ea4c6800006102a0820152663d1b4f122300006102c08201526641b9a6e85840006102e08201526645fd0bae134000610300820152664b5149a53d000061032082015266504a948bec8000610340820152665543df729c0000610360820152665a981d69c5c000610380820152665fec5b60ef80006103a0820152611aef9061017690601e61464f565b6124203383836139e8565b5050565b61012d546000906001600160a01b031633146124525760405162461bcd60e51b8152600401610dfb90614c77565b5061016580546001600160a01b0383166001600160a01b03199091161790556001919050565b612480614695565b600061248b83613ab7565b610171546040516365db5d2560e01b8152600481018390529192506000916001600160a01b03909116906365db5d259060240160206040518083038186803b1580156124d657600080fd5b505afa1580156124ea573d6000803e3d6000fd5b505050506040513d601f19601f8201168201806040525081019061250e9190614d4b565b9050600061251b85613acd565b9050612525614695565b818152602081018390526125398383614dbb565b604082015295945050505050565b61016454604051634fb22a7160e11b8152600481018490526000916001600160a01b03169082908290639f6454e29060240160206040518083038186803b15801561259157600080fd5b505afa1580156125a5573d6000803e3d6000fd5b505050506040513d601f19601f820116820180604052508101906125c99190614d4b565b9050600061016785815481106125e1576125e1614d35565b906000526020600020015490508082101561264e5760405162461bcd60e51b815260206004820152602760248201527f4e6f7420656e6f75676820706f696e747320746f2061747461636b207468697360448201526608185b9a5b585b60ca1b6064820152608401610dfb565b610164546040516310134a6360e21b8152600481018890526000916001600160a01b03169063404d298c9060240160206040518083038186803b15801561269457600080fd5b505afa1580156126a8573d6000803e3d6000fd5b505050506040513d601f19601f820116820180604052508101906126cc9190614d4b565b905080156127675760006126f96126e283613ae3565b6126eb84613b03565b6126f485613b15565b613b27565b9050600061271b61270942613ae3565b61271242613b03565b6126f442613b15565b90508181116127645760405162461bcd60e51b81526020600482015260156024820152744f6e6c79206f6e652074696d65207065722064617960581b6044820152606401610dfb565b50505b6101645460405163070e56bf60e21b8152600481018990526000916001600160a01b031690631c395afc9060240160206040518083038186803b1580156127ad57600080fd5b505afa1580156127c1573d6000803e3d6000fd5b505050506040513d601f19601f820116820180604052508101906127e59190614e3f565b90508061282c5760405162461bcd60e51b8152602060048201526015602482015274165bdd5c881ddbdb199c1858dac81a5cc819195859605a1b6044820152606401610dfb565b61016454604051632188c62f60e11b8152600481018a90526000916001600160a01b0316906343118c5e9060240160206040518083038186803b15801561287257600080fd5b505afa158015612886573d6000803e3d6000fd5b505050506040513d601f19601f820116820180604052508101906128aa9190614d4b565b905060006127106101698a815481106128c5576128c5614d35565b906000526020600020015460fa6128dc9190614e5c565b6128e69190614da7565b9050808210156129385760405162461bcd60e51b815260206004820152601760248201527f596f757220776f6c667061636b206172652074697265640000000000000000006044820152606401610dfb565b6101645460405163782ad08360e11b8152600481018c90526000916001600160a01b03169063f055a1069060240160206040518083038186803b15801561297e57600080fd5b505afa158015612992573d6000803e3d6000fd5b505050506040513d601f19601f820116820180604052508101906129b69190614e3f565b905080612a055760405162461bcd60e51b815260206004820152601e60248201527f596f757220776f6c667061636b20686176656e277420676f74206c696e6b00006044820152606401610dfb565b5060019a9950505050505050505050565b612a20338361357c565b612a3c5760405162461bcd60e51b8152600401610dfb90614dd3565b612a4884848484613b42565b50505050565b6000818152606760205260409020546060906001600160a01b0316612aac5760405162461bcd60e51b8152602060048201526014602482015273151bdad95b88191bd95cc81b9bdd08195e1a5cdd60621b6044820152606401610dfb565b612ab4613b75565b612abd83613b85565b604051602001612ace929190614e7b565b6040516020818303038152906040529050919050565b6101668054612af290614cac565b80601f0160208091040260200160405190810160405280929190818152602001828054612b1e90614cac565b8015612b6b5780601f10612b4057610100808354040283529160200191612b6b565b820191906000526020600020905b815481529060010190602001808311612b4e57829003601f168201915b505050505081565b6101778181548110610d9157600080fd5b6000612b9260c95460ff1690565b15612bd25760405162461bcd60e51b815260206004820152601060248201526f14185d5cd8589b194e881c185d5cd95960821b6044820152606401610dfb565b600260fb541415612c255760405162461bcd60e51b815260206004820152601f60248201527f5265656e7472616e637947756172643a207265656e7472616e742063616c6c006044820152606401610dfb565b600260fb55610164546040516331a9108f60e11b81526004810185905233916001600160a01b031690636352211e9060240160206040518083038186803b158015612c6f57600080fd5b505afa158015612c83573d6000803e3d6000fd5b505050506040513d601f19601f82011682018060405250810190612ca79190614eaa565b6001600160a01b031614612cf55760405162461bcd60e51b81526020600482015260156024820152742cb7ba9030b932903737ba103a34329037bbb732b960591b6044820152606401610dfb565b612cff8383612547565b506000612d0b83613ab7565b610171546040516365db5d2560e01b8152600481018390529192506000916001600160a01b03909116906365db5d259060240160206040518083038186803b158015612d5657600080fd5b505afa158015612d6a573d6000803e3d6000fd5b505050506040513d601f19601f82011682018060405250810190612d8e9190614d4b565b90506000612d9b85613acd565b9050612da78282614dbb565b341015612de75760405162461bcd60e51b815260206004820152600e60248201526d4e6f7420656e6f7567682067617360901b6044820152606401610dfb565b610165546040516001600160a01b039091169082156108fc029083906000818181858888f19350505050158015612e22573d6000803e3d6000fd5b50610172546040516001600160a01b039091169083156108fc029084906000818181858888f19350505050158015612e5e573d6000803e3d6000fd5b50336108fc612e6d8484614dbb565b612e779034614d7a565b6040518115909202916000818181858888f19350505050158015612e9f573d6000803e3d6000fd5b506101605461016354604051636eb1769f60e11b81523360048201523060248201526001600160a01b039091169063dd62ed3e9060440160206040518083038186803b158015612eee57600080fd5b505afa158015612f02573d6000803e3d6000fd5b505050506040513d601f19601f82011682018060405250810190612f269190614d4b565b1015612f6b5760405162461bcd60e51b81526020600482015260146024820152734e6f7420656e6f75676820616c6c6f77616e636560601b6044820152606401610dfb565b6101635461016254610160546040516323b872dd60e01b81523360048201526001600160a01b03928316602482015260448101919091529116906323b872dd90606401602060405180830381600087803b158015612fc857600080fd5b505af1158015612fdc573d6000803e3d6000fd5b505050506040513d601f19601f820116820180604052508101906130009190614e3f565b50600061300c33613c83565b600081815261016a602090815260408083208b905561016b82528083208a905561016c90915290819020429081905561016454915163242cd0f760e11b8152600481018b905260248101919091529192506001600160a01b031690634859a1ee90604401602060405180830381600087803b15801561308a57600080fd5b505af115801561309e573d6000803e3d6000fd5b505050506040513d601f19601f820116820180604052508101906130c29190614e3f565b50600061271061016988815481106130dc576130dc614d35565b906000526020600020015460fa6130f39190614e5c565b6130fd9190614da7565b61016454604051632a40c82f60e01b8152600481018b9052602481018390529192506001600160a01b031690632a40c82f90604401600060405180830381600087803b15801561314c57600080fd5b505af1158015613160573d6000803e3d6000fd5b505061016454604051637cc7257f60e11b8152600481018c9052600160248201526001600160a01b03909116925063f98e4afe9150604401600060405180830381600087803b1580156131b257600080fd5b505af11580156131c6573d6000803e3d6000fd5b50505050600195505050505050600160fb5592915050565b61012d546000906001600160a01b0316331461320c5760405162461bcd60e51b8152600401610dfb90614c77565b8151611449906101699060208501906145bd565b61012d546001600160a01b0316331461324b5760405162461bcd60e51b8152600401610dfb90614c77565b8051612420906101669060208401906146b3565b61012d546000906001600160a01b0316331461328d5760405162461bcd60e51b8152600401610dfb90614c77565b5061017580546001600160a01b0383166001600160a01b03199091161790556001919050565b6101688181548110610d9157600080fd5b61012d546001600160a01b031633146132ef5760405162461bcd60e51b8152600401610dfb90614c77565b6001600160a01b0381166133545760405162461bcd60e51b815260206004820152602660248201527f4f776e61626c653a206e6577206f776e657220697320746865207a65726f206160448201526564647265737360d01b6064820152608401610dfb565b61335d816138b1565b50565b61012d546000906001600160a01b0316331461338e5760405162461bcd60e51b8152600401610dfb90614c77565b8151611449906101689060208501906145bd565b60006001600160e01b031982166380ac58cd60e01b14806133d357506001600160e01b03198216635b5e139f60e01b145b80610dc757506301ffc9a760e01b6001600160e01b0319831614610dc7565b600081815260696020526040902080546001600160a01b0319166001600160a01b038416908117909155819061342782611754565b6001600160a01b03167f8c5be1e5ebec7d5bd14f71427d1e84f3dd0314c0f7b2291e5b200ac8c7c3b92560405160405180910390a45050565b600054610100900460ff1680613479575060005460ff16155b6134955760405162461bcd60e51b8152600401610dfb90614ce7565b600054610100900460ff161580156134b7576000805461ffff19166101011790555b6134bf613cd7565b6134c7613cd7565b6134d18383613d41565b8015611062576000805461ff0019169055505050565b600054610100900460ff1680613500575060005460ff16155b61351c5760405162461bcd60e51b8152600401610dfb90614ce7565b600054610100900460ff1615801561353e576000805461ffff19166101011790555b613546613cd7565b61354e613dd6565b801561335d576000805461ff001916905550565b612420828260405180602001604052806000815250613e36565b6000818152606760205260408120546001600160a01b03166135f55760405162461bcd60e51b815260206004820152602c60248201527f4552433732313a206f70657261746f7220717565727920666f72206e6f6e657860448201526b34b9ba32b73a103a37b5b2b760a11b6064820152608401610dfb565b600061360083611754565b9050806001600160a01b0316846001600160a01b0316148061363b5750836001600160a01b031661363084610ebc565b6001600160a01b0316145b8061366b57506001600160a01b038082166000908152606a602090815260408083209388168352929052205460ff165b949350505050565b826001600160a01b031661368682611754565b6001600160a01b0316146136ee5760405162461bcd60e51b815260206004820152602960248201527f4552433732313a207472616e73666572206f6620746f6b656e2074686174206960448201526839903737ba1037bbb760b91b6064820152608401610dfb565b6001600160a01b0382166137505760405162461bcd60e51b8152602060048201526024808201527f4552433732313a207472616e7366657220746f20746865207a65726f206164646044820152637265737360e01b6064820152608401610dfb565b61375b838383613e69565b6137666000826133f2565b6001600160a01b038316600090815260686020526040812080546001929061378f908490614d7a565b90915550506001600160a01b03821660009081526068602052604081208054600192906137bd908490614dbb565b909155505060008181526067602052604080822080546001600160a01b0319166001600160a01b0386811691821790925591518493918716917fddf252ad1be2c89b69c2b068fc378daa952ba7f163c4a11628f55a4df523b3ef91a4505050565b60c95460ff166138675760405162461bcd60e51b815260206004820152601460248201527314185d5cd8589b194e881b9bdd081c185d5cd95960621b6044820152606401610dfb565b60c9805460ff191690557f5db9ee0a495bf2e6ff9c91a7834c1ba4fdd244a5e8aa4e537bd38aeae4b073aa335b6040516001600160a01b03909116815260200160405180910390a1565b61012d80546001600160a01b038381166001600160a01b0319831681179093556040519116919082907f8be0079c531659141344cd1fd0a4f28419497f9722a3daafe3b4186f6b6457e090600090a35050565b60c95460ff161561394a5760405162461bcd60e51b815260206004820152601060248201526f14185d5cd8589b194e881c185d5cd95960821b6044820152606401610dfb565b60c9805460ff191660011790557f62e78cea01bee320cd4e420270b5ea74000d11b0c9f74754ebdbfc544b05a2586138943390565b60008061398c8484614d7a565b613997906001614dbb565b9050600081866040516020016139af91815260200190565b6040516020818303038152906040528051906020012060001c6139d29190614ec7565b90506139de8582614dbb565b9695505050505050565b816001600160a01b0316836001600160a01b03161415613a4a5760405162461bcd60e51b815260206004820152601960248201527f4552433732313a20617070726f766520746f2063616c6c6572000000000000006044820152606401610dfb565b6001600160a01b038381166000818152606a6020908152604080832094871680845294825291829020805460ff191686151590811790915591519182527f17307eab39ab6107e8899845ad3d59bd9653f200f220920489ca2b5937696c31910160405180910390a3505050565b600061017782815481106116ee576116ee614d35565b600061017682815481106116ee576116ee614d35565b6000613afa613af56201518084614da7565b613f21565b50909392505050565b60006115d9613af56201518084614da7565b600061366b613af56201518084614da7565b600062015180613b38858585614095565b61366b9190614e5c565b613b4d848484613673565b613b59848484846141d2565b612a485760405162461bcd60e51b8152600401610dfb90614edb565b60606101668054610e3990614cac565b606081613ba95750506040805180820190915260018152600360fc1b602082015290565b8160005b8115613bd35780613bbd81614e24565b9150613bcc9050600a83614da7565b9150613bad565b60008167ffffffffffffffff811115613bee57613bee61492b565b6040519080825280601f01601f191660200182016040528015613c18576020820181803683370190505b5090505b841561366b57613c2d600183614d7a565b9150613c3a600a86614ec7565b613c45906030614dbb565b60f81b818381518110613c5a57613c5a614d35565b60200101906001600160f81b031916908160001a905350613c7c600a86614da7565b9450613c1c565b600080613c8f60995490565b9050613c9b8382613562565b60405181906001600160a01b038516907f7a5477f3d257e8974dc6fb5c008b442d975968577dfad5d1283aa0a488bfab0b90600090a392915050565b600054610100900460ff1680613cf0575060005460ff16155b613d0c5760405162461bcd60e51b8152600401610dfb90614ce7565b600054610100900460ff1615801561354e576000805461ffff1916610101179055801561335d576000805461ff001916905550565b600054610100900460ff1680613d5a575060005460ff16155b613d765760405162461bcd60e51b8152600401610dfb90614ce7565b600054610100900460ff16158015613d98576000805461ffff19166101011790555b8251613dab9060659060208601906146b3565b508151613dbf9060669060208501906146b3565b508015611062576000805461ff0019169055505050565b600054610100900460ff1680613def575060005460ff16155b613e0b5760405162461bcd60e51b8152600401610dfb90614ce7565b600054610100900460ff16158015613e2d576000805461ffff19166101011790555b61354e336138b1565b613e4083836142df565b613e4d60008484846141d2565b6110625760405162461bcd60e51b8152600401610dfb90614edb565b6001600160a01b038316613ec457613ebf81609980546000838152609a60205260408120829055600182018355919091527f72a152ddfb8e864297c917af52ea6c1c68aead0fee1a62673fcc7e0c94979d000155565b613ee7565b816001600160a01b0316836001600160a01b031614613ee757613ee7838261442d565b6001600160a01b038216613efe57611062816144ca565b826001600160a01b0316826001600160a01b031614611062576110628282614579565b60008080838162253d8c613f388362010bd9614f2d565b613f429190614f2d565b9050600062023ab1613f55836004614f6e565b613f5f9190614ff3565b90506004613f708262023ab1614f6e565b613f7b906003614f2d565b613f859190614ff3565b613f8f9083615021565b9150600062164b09613fa2846001614f2d565b613fae90610fa0614f6e565b613fb89190614ff3565b90506004613fc8826105b5614f6e565b613fd29190614ff3565b613fdc9084615021565b613fe790601f614f2d565b9250600061098f613ff9856050614f6e565b6140039190614ff3565b9050600060506140158361098f614f6e565b61401f9190614ff3565b6140299086615021565b9050614036600b83614ff3565b945061404385600c614f6e565b61404e836002614f2d565b6140589190615021565b91508483614067603187615021565b614072906064614f6e565b61407c9190614f2d565b6140869190614f2d565b9a919950975095505050505050565b60006107b28410156140a657600080fd5b838383600062253d8c60046064600c6140c0600e88615021565b6140ca9190614ff3565b6140d688611324614f2d565b6140e09190614f2d565b6140ea9190614ff3565b6140f5906003614f6e565b6140ff9190614ff3565b600c8061410d600e88615021565b6141179190614ff3565b61412290600c614f6e565b61412d600288615021565b6141379190615021565b6141439061016f614f6e565b61414d9190614ff3565b6004600c61415c600e89615021565b6141669190614ff3565b614172896112c0614f2d565b61417c9190614f2d565b614188906105b5614f6e565b6141929190614ff3565b61419e617d4b87615021565b6141a89190614f2d565b6141b29190614f2d565b6141bc9190615021565b6141c69190615021565b98975050505050505050565b60006001600160a01b0384163b156142d457604051630a85bd0160e11b81526001600160a01b0385169063150b7a0290614216903390899088908890600401615060565b602060405180830381600087803b15801561423057600080fd5b505af1925050508015614260575060408051601f3d908101601f1916820190925261425d91810190615093565b60015b6142ba573d80801561428e576040519150601f19603f3d011682016040523d82523d6000602084013e614293565b606091505b5080516142b25760405162461bcd60e51b8152600401610dfb90614edb565b805181602001fd5b6001600160e01b031916630a85bd0160e11b14905061366b565b506001949350505050565b6001600160a01b0382166143355760405162461bcd60e51b815260206004820181905260248201527f4552433732313a206d696e7420746f20746865207a65726f20616464726573736044820152606401610dfb565b6000818152606760205260409020546001600160a01b03161561439a5760405162461bcd60e51b815260206004820152601c60248201527f4552433732313a20746f6b656e20616c7265616479206d696e746564000000006044820152606401610dfb565b6143a660008383613e69565b6001600160a01b03821660009081526068602052604081208054600192906143cf908490614dbb565b909155505060008181526067602052604080822080546001600160a01b0319166001600160a01b03861690811790915590518392907fddf252ad1be2c89b69c2b068fc378daa952ba7f163c4a11628f55a4df523b3ef908290a45050565b6000600161443a8461181f565b6144449190614d7a565b600083815260986020526040902054909150808214614497576001600160a01b03841660009081526097602090815260408083208584528252808320548484528184208190558352609890915290208190555b5060009182526098602090815260408084208490556001600160a01b039094168352609781528383209183525290812055565b6099546000906144dc90600190614d7a565b6000838152609a60205260408120546099805493945090928490811061450457614504614d35565b90600052602060002001549050806099838154811061452557614525614d35565b6000918252602080832090910192909255828152609a9091526040808220849055858252812055609980548061455d5761455d6150b0565b6001900381819060005260206000200160009055905550505050565b60006145848361181f565b6001600160a01b039093166000908152609760209081526040808320868452825280832085905593825260989052919091209190915550565b8280548282559060005260206000209081019282156145f8579160200282015b828111156145f85782518255916020019190600101906145dd565b50614604929150614726565b5090565b8280548282559060005260206000209081019282156145f8579160200282015b828111156145f8578251829067ffffffffffffffff16905591602001919060010190614628565b8280548282559060005260206000209081019282156145f8579160200282015b828111156145f8578251829066ffffffffffffff1690559160200191906001019061466f565b60405180606001604052806003906020820280368337509192915050565b8280546146bf90614cac565b90600052602060002090601f0160209004810192826146e157600085556145f8565b82601f106146fa57805160ff19168380011785556145f8565b828001600101855582156145f857918201828111156145f85782518255916020019190600101906145dd565b5b808211156146045760008155600101614727565b60006020828403121561474d57600080fd5b5035919050565b6001600160e01b03198116811461335d57600080fd5b60006020828403121561477c57600080fd5b813561478781614754565b9392505050565b6001600160a01b038116811461335d57600080fd5b6000602082840312156147b557600080fd5b81356147878161478e565b60005b838110156147db5781810151838201526020016147c3565b83811115612a485750506000910152565b600081518084526148048160208601602086016147c0565b601f01601f19169290920160200192915050565b60208152600061478760208301846147ec565b6000806040838503121561483e57600080fd5b82356148498161478e565b946020939093013593505050565b600080600080600060a0868803121561486f57600080fd5b853561487a8161478e565b9450602086013561488a8161478e565b9350604086013561489a8161478e565b925060608601356148aa8161478e565b915060808601356148ba8161478e565b809150509295509295909350565b600080604083850312156148db57600080fd5b50508035926020909101359150565b6000806000606084860312156148ff57600080fd5b833561490a8161478e565b9250602084013561491a8161478e565b929592945050506040919091013590565b634e487b7160e01b600052604160045260246000fd5b604051601f8201601f1916810167ffffffffffffffff8111828210171561496a5761496a61492b565b604052919050565b600082601f83011261498357600080fd5b8135602067ffffffffffffffff82111561499f5761499f61492b565b8160051b6149ae828201614941565b92835284810182019282810190878511156149c857600080fd5b83870192505b848310156149e7578235825291830191908301906149ce565b979650505050505050565b600060208284031215614a0457600080fd5b813567ffffffffffffffff811115614a1b57600080fd5b61366b84828501614972565b6020808252825182820181905260009190848201906040850190845b81811015614a5f57835183529284019291840191600101614a43565b50909695505050505050565b60008060408385031215614a7e57600080fd5b823567ffffffffffffffff811115614a9557600080fd5b614aa185828601614972565b95602094909401359450505050565b801515811461335d57600080fd5b60008060408385031215614ad157600080fd5b8235614adc8161478e565b91506020830135614aec81614ab0565b809150509250929050565b60608101818360005b6003811015614b1f578151835260209283019290910190600101614b00565b50505092915050565b600067ffffffffffffffff831115614b4257614b4261492b565b614b55601f8401601f1916602001614941565b9050828152838383011115614b6957600080fd5b828260208301376000602084830101529392505050565b60008060008060808587031215614b9657600080fd5b8435614ba18161478e565b93506020850135614bb18161478e565b925060408501359150606085013567ffffffffffffffff811115614bd457600080fd5b8501601f81018713614be557600080fd5b614bf487823560208401614b28565b91505092959194509250565b600060208284031215614c1257600080fd5b813567ffffffffffffffff811115614c2957600080fd5b8201601f81018413614c3a57600080fd5b61366b84823560208401614b28565b60008060408385031215614c5c57600080fd5b8235614c678161478e565b91506020830135614aec8161478e565b6020808252818101527f4f776e61626c653a2063616c6c6572206973206e6f7420746865206f776e6572604082015260600190565b600181811c90821680614cc057607f821691505b60208210811415614ce157634e487b7160e01b600052602260045260246000fd5b50919050565b6020808252602e908201527f496e697469616c697a61626c653a20636f6e747261637420697320616c72656160408201526d191e481a5b9a5d1a585b1a5e995960921b606082015260800190565b634e487b7160e01b600052603260045260246000fd5b600060208284031215614d5d57600080fd5b5051919050565b634e487b7160e01b600052601160045260246000fd5b600082821015614d8c57614d8c614d64565b500390565b634e487b7160e01b600052601260045260246000fd5b600082614db657614db6614d91565b500490565b60008219821115614dce57614dce614d64565b500190565b60208082526031908201527f4552433732313a207472616e736665722063616c6c6572206973206e6f74206f6040820152701ddb995c881b9bdc88185c1c1c9bdd9959607a1b606082015260800190565b6000600019821415614e3857614e38614d64565b5060010190565b600060208284031215614e5157600080fd5b815161478781614ab0565b6000816000190483118215151615614e7657614e76614d64565b500290565b60008351614e8d8184602088016147c0565b835190830190614ea18183602088016147c0565b01949350505050565b600060208284031215614ebc57600080fd5b81516147878161478e565b600082614ed657614ed6614d91565b500690565b60208082526032908201527f4552433732313a207472616e7366657220746f206e6f6e20455243373231526560408201527131b2b4bb32b91034b6b83632b6b2b73a32b960711b606082015260800190565b600080821280156001600160ff1b0384900385131615614f4f57614f4f614d64565b600160ff1b8390038412811615614f6857614f68614d64565b50500190565b60006001600160ff1b0381841382841380821686840486111615614f9457614f94614d64565b600160ff1b6000871282811687830589121615614fb357614fb3614d64565b60008712925087820587128484161615614fcf57614fcf614d64565b87850587128184161615614fe557614fe5614d64565b505050929093029392505050565b60008261500257615002614d91565b600160ff1b82146000198414161561501c5761501c614d64565b500590565b60008083128015600160ff1b85018412161561503f5761503f614d64565b6001600160ff1b038401831381161561505a5761505a614d64565b50500390565b6001600160a01b03858116825284166020820152604081018390526080606082018190526000906139de908301846147ec565b6000602082840312156150a557600080fd5b815161478781614754565b634e487b7160e01b600052603160045260246000fdfea2646970667358221220be654c55202df5e5da873730632b2307598333f03218f150f836a6e24b23a0f464736f6c63430008090033",
  "devdoc": {
    "kind": "dev",
    "methods": {
      "approve(address,uint256)": {
        "details": "See {IERC721-approve}."
      },
      "balanceOf(address)": {
        "details": "See {IERC721-balanceOf}."
      },
      "getApproved(uint256)": {
        "details": "See {IERC721-getApproved}."
      },
      "isApprovedForAll(address,address)": {
        "details": "See {IERC721-isApprovedForAll}."
      },
      "name()": {
        "details": "See {IERC721Metadata-name}."
      },
      "owner()": {
        "details": "Returns the address of the current owner."
      },
      "ownerOf(uint256)": {
        "details": "See {IERC721-ownerOf}."
      },
      "paused()": {
        "details": "Returns true if the contract is paused, and false otherwise."
      },
      "renounceOwnership()": {
        "details": "Leaves the contract without owner. It will not be possible to call `onlyOwner` functions anymore. Can only be called by the current owner. NOTE: Renouncing ownership will leave the contract without an owner, thereby removing any functionality that is only available to the owner."
      },
      "safeTransferFrom(address,address,uint256)": {
        "details": "See {IERC721-safeTransferFrom}."
      },
      "safeTransferFrom(address,address,uint256,bytes)": {
        "details": "See {IERC721-safeTransferFrom}."
      },
      "setApprovalForAll(address,bool)": {
        "details": "See {IERC721-setApprovalForAll}."
      },
      "supportsInterface(bytes4)": {
        "details": "See {IERC165-supportsInterface}."
      },
      "symbol()": {
        "details": "See {IERC721Metadata-symbol}."
      },
      "tokenByIndex(uint256)": {
        "details": "See {IERC721Enumerable-tokenByIndex}."
      },
      "tokenOfOwnerByIndex(address,uint256)": {
        "details": "See {IERC721Enumerable-tokenOfOwnerByIndex}."
      },
      "totalSupply()": {
        "details": "See {IERC721Enumerable-totalSupply}."
      },
      "transferFrom(address,address,uint256)": {
        "details": "See {IERC721-transferFrom}."
      },
      "transferOwnership(address)": {
        "details": "Transfers ownership of the contract to a new account (`newOwner`). Can only be called by the current owner."
      }
    },
    "version": 1
  },
  "userdoc": {
    "kind": "user",
    "methods": {},
    "version": 1
  },
  "storageLayout": {
    "storage": [
      {
        "astId": 131,
        "contract": "contracts/HuntingNFT.sol:HuntingNFT",
        "label": "_initialized",
        "offset": 0,
        "slot": "0",
        "type": "t_bool"
      },
      {
        "astId": 134,
        "contract": "contracts/HuntingNFT.sol:HuntingNFT",
        "label": "_initializing",
        "offset": 1,
        "slot": "0",
        "type": "t_bool"
      },
      {
        "astId": 3103,
        "contract": "contracts/HuntingNFT.sol:HuntingNFT",
        "label": "__gap",
        "offset": 0,
        "slot": "1",
        "type": "t_array(t_uint256)50_storage"
      },
      {
        "astId": 3352,
        "contract": "contracts/HuntingNFT.sol:HuntingNFT",
        "label": "__gap",
        "offset": 0,
        "slot": "51",
        "type": "t_array(t_uint256)50_storage"
      },
      {
        "astId": 1425,
        "contract": "contracts/HuntingNFT.sol:HuntingNFT",
        "label": "_name",
        "offset": 0,
        "slot": "101",
        "type": "t_string_storage"
      },
      {
        "astId": 1427,
        "contract": "contracts/HuntingNFT.sol:HuntingNFT",
        "label": "_symbol",
        "offset": 0,
        "slot": "102",
        "type": "t_string_storage"
      },
      {
        "astId": 1431,
        "contract": "contracts/HuntingNFT.sol:HuntingNFT",
        "label": "_owners",
        "offset": 0,
        "slot": "103",
        "type": "t_mapping(t_uint256,t_address)"
      },
      {
        "astId": 1435,
        "contract": "contracts/HuntingNFT.sol:HuntingNFT",
        "label": "_balances",
        "offset": 0,
        "slot": "104",
        "type": "t_mapping(t_address,t_uint256)"
      },
      {
        "astId": 1439,
        "contract": "contracts/HuntingNFT.sol:HuntingNFT",
        "label": "_tokenApprovals",
        "offset": 0,
        "slot": "105",
        "type": "t_mapping(t_uint256,t_address)"
      },
      {
        "astId": 1445,
        "contract": "contracts/HuntingNFT.sol:HuntingNFT",
        "label": "_operatorApprovals",
        "offset": 0,
        "slot": "106",
        "type": "t_mapping(t_address,t_mapping(t_address,t_bool))"
      },
      {
        "astId": 2256,
        "contract": "contracts/HuntingNFT.sol:HuntingNFT",
        "label": "__gap",
        "offset": 0,
        "slot": "107",
        "type": "t_array(t_uint256)44_storage"
      },
      {
        "astId": 2430,
        "contract": "contracts/HuntingNFT.sol:HuntingNFT",
        "label": "_ownedTokens",
        "offset": 0,
        "slot": "151",
        "type": "t_mapping(t_address,t_mapping(t_uint256,t_uint256))"
      },
      {
        "astId": 2434,
        "contract": "contracts/HuntingNFT.sol:HuntingNFT",
        "label": "_ownedTokensIndex",
        "offset": 0,
        "slot": "152",
        "type": "t_mapping(t_uint256,t_uint256)"
      },
      {
        "astId": 2437,
        "contract": "contracts/HuntingNFT.sol:HuntingNFT",
        "label": "_allTokens",
        "offset": 0,
        "slot": "153",
        "type": "t_array(t_uint256)dyn_storage"
      },
      {
        "astId": 2441,
        "contract": "contracts/HuntingNFT.sol:HuntingNFT",
        "label": "_allTokensIndex",
        "offset": 0,
        "slot": "154",
        "type": "t_mapping(t_uint256,t_uint256)"
      },
      {
        "astId": 2756,
        "contract": "contracts/HuntingNFT.sol:HuntingNFT",
        "label": "__gap",
        "offset": 0,
        "slot": "155",
        "type": "t_array(t_uint256)46_storage"
      },
      {
        "astId": 192,
        "contract": "contracts/HuntingNFT.sol:HuntingNFT",
        "label": "_paused",
        "offset": 0,
        "slot": "201",
        "type": "t_bool"
      },
      {
        "astId": 283,
        "contract": "contracts/HuntingNFT.sol:HuntingNFT",
        "label": "__gap",
        "offset": 0,
        "slot": "202",
        "type": "t_array(t_uint256)49_storage"
      },
      {
        "astId": 298,
        "contract": "contracts/HuntingNFT.sol:HuntingNFT",
        "label": "_status",
        "offset": 0,
        "slot": "251",
        "type": "t_uint256"
      },
      {
        "astId": 341,
        "contract": "contracts/HuntingNFT.sol:HuntingNFT",
        "label": "__gap",
        "offset": 0,
        "slot": "252",
        "type": "t_array(t_uint256)49_storage"
      },
      {
        "astId": 10,
        "contract": "contracts/HuntingNFT.sol:HuntingNFT",
        "label": "_owner",
        "offset": 0,
        "slot": "301",
        "type": "t_address"
      },
      {
        "astId": 124,
        "contract": "contracts/HuntingNFT.sol:HuntingNFT",
        "label": "__gap",
        "offset": 0,
        "slot": "302",
        "type": "t_array(t_uint256)49_storage"
      },
      {
        "astId": 6183,
        "contract": "contracts/HuntingNFT.sol:HuntingNFT",
        "label": "isInitialized",
        "offset": 0,
        "slot": "351",
        "type": "t_bool"
      },
      {
        "astId": 6185,
        "contract": "contracts/HuntingNFT.sol:HuntingNFT",
        "label": "boxPriceCWOLF",
        "offset": 0,
        "slot": "352",
        "type": "t_uint256"
      },
      {
        "astId": 6187,
        "contract": "contracts/HuntingNFT.sol:HuntingNFT",
        "label": "gasToMinter",
        "offset": 0,
        "slot": "353",
        "type": "t_uint256"
      },
      {
        "astId": 6189,
        "contract": "contracts/HuntingNFT.sol:HuntingNFT",
        "label": "rewardsPoolAddress",
        "offset": 0,
        "slot": "354",
        "type": "t_address"
      },
      {
        "astId": 6191,
        "contract": "contracts/HuntingNFT.sol:HuntingNFT",
        "label": "CWOLFContractAddress",
        "offset": 0,
        "slot": "355",
        "type": "t_address"
      },
      {
        "astId": 6193,
        "contract": "contracts/HuntingNFT.sol:HuntingNFT",
        "label": "WolfPackNFTContractAddress",
        "offset": 0,
        "slot": "356",
        "type": "t_address"
      },
      {
        "astId": 6195,
        "contract": "contracts/HuntingNFT.sol:HuntingNFT",
        "label": "minterWalletAddress",
        "offset": 0,
        "slot": "357",
        "type": "t_address"
      },
      {
        "astId": 6197,
        "contract": "contracts/HuntingNFT.sol:HuntingNFT",
        "label": "strBaseTokenURI",
        "offset": 0,
        "slot": "358",
        "type": "t_string_storage"
      },
      {
        "astId": 6200,
        "contract": "contracts/HuntingNFT.sol:HuntingNFT",
        "label": "animalsPoints",
        "offset": 0,
        "slot": "359",
        "type": "t_array(t_uint256)dyn_storage"
      },
      {
        "astId": 6203,
        "contract": "contracts/HuntingNFT.sol:HuntingNFT",
        "label": "animalsProbability",
        "offset": 0,
        "slot": "360",
        "type": "t_array(t_uint256)dyn_storage"
      },
      {
        "astId": 6206,
        "contract": "contracts/HuntingNFT.sol:HuntingNFT",
        "label": "animalsRewards",
        "offset": 0,
        "slot": "361",
        "type": "t_array(t_uint256)dyn_storage"
      },
      {
        "astId": 6210,
        "contract": "contracts/HuntingNFT.sol:HuntingNFT",
        "label": "wolfPackId",
        "offset": 0,
        "slot": "362",
        "type": "t_mapping(t_uint256,t_uint256)"
      },
      {
        "astId": 6214,
        "contract": "contracts/HuntingNFT.sol:HuntingNFT",
        "label": "positionToAttack",
        "offset": 0,
        "slot": "363",
        "type": "t_mapping(t_uint256,t_uint256)"
      },
      {
        "astId": 6218,
        "contract": "contracts/HuntingNFT.sol:HuntingNFT",
        "label": "dateOfHunting",
        "offset": 0,
        "slot": "364",
        "type": "t_mapping(t_uint256,t_uint256)"
      },
      {
        "astId": 6222,
        "contract": "contracts/HuntingNFT.sol:HuntingNFT",
        "label": "rewards",
        "offset": 0,
        "slot": "365",
        "type": "t_mapping(t_uint256,t_uint256)"
      },
      {
        "astId": 6226,
        "contract": "contracts/HuntingNFT.sol:HuntingNFT",
        "label": "isGenerated",
        "offset": 0,
        "slot": "366",
        "type": "t_mapping(t_uint256,t_bool)"
      },
      {
        "astId": 6230,
        "contract": "contracts/HuntingNFT.sol:HuntingNFT",
        "label": "isClaimed",
        "offset": 0,
        "slot": "367",
        "type": "t_mapping(t_uint256,t_bool)"
      },
      {
        "astId": 6232,
        "contract": "contracts/HuntingNFT.sol:HuntingNFT",
        "label": "ClaimContractAddress",
        "offset": 0,
        "slot": "368",
        "type": "t_address"
      },
      {
        "astId": 6234,
        "contract": "contracts/HuntingNFT.sol:HuntingNFT",
        "label": "VariablesContractAddress",
        "offset": 0,
        "slot": "369",
        "type": "t_address"
      },
      {
        "astId": 6236,
        "contract": "contracts/HuntingNFT.sol:HuntingNFT",
        "label": "commissionWalletAddress",
        "offset": 0,
        "slot": "370",
        "type": "t_address"
      },
      {
        "astId": 6238,
        "contract": "contracts/HuntingNFT.sol:HuntingNFT",
        "label": "minterWalletAddress2",
        "offset": 0,
        "slot": "371",
        "type": "t_address"
      },
      {
        "astId": 6240,
        "contract": "contracts/HuntingNFT.sol:HuntingNFT",
        "label": "minterWalletAddress3",
        "offset": 0,
        "slot": "372",
        "type": "t_address"
      },
      {
        "astId": 6242,
        "contract": "contracts/HuntingNFT.sol:HuntingNFT",
        "label": "minterWalletAddress4",
        "offset": 0,
        "slot": "373",
        "type": "t_address"
      },
      {
        "astId": 6245,
        "contract": "contracts/HuntingNFT.sol:HuntingNFT",
        "label": "bnbForMint",
        "offset": 0,
        "slot": "374",
        "type": "t_array(t_uint256)dyn_storage"
      },
      {
        "astId": 6248,
        "contract": "contracts/HuntingNFT.sol:HuntingNFT",
        "label": "benefit",
        "offset": 0,
        "slot": "375",
        "type": "t_array(t_uint256)dyn_storage"
      }
    ],
    "types": {
      "t_address": {
        "encoding": "inplace",
        "label": "address",
        "numberOfBytes": "20"
      },
      "t_array(t_uint256)44_storage": {
        "base": "t_uint256",
        "encoding": "inplace",
        "label": "uint256[44]",
        "numberOfBytes": "1408"
      },
      "t_array(t_uint256)46_storage": {
        "base": "t_uint256",
        "encoding": "inplace",
        "label": "uint256[46]",
        "numberOfBytes": "1472"
      },
      "t_array(t_uint256)49_storage": {
        "base": "t_uint256",
        "encoding": "inplace",
        "label": "uint256[49]",
        "numberOfBytes": "1568"
      },
      "t_array(t_uint256)50_storage": {
        "base": "t_uint256",
        "encoding": "inplace",
        "label": "uint256[50]",
        "numberOfBytes": "1600"
      },
      "t_array(t_uint256)dyn_storage": {
        "base": "t_uint256",
        "encoding": "dynamic_array",
        "label": "uint256[]",
        "numberOfBytes": "32"
      },
      "t_bool": {
        "encoding": "inplace",
        "label": "bool",
        "numberOfBytes": "1"
      },
      "t_mapping(t_address,t_bool)": {
        "encoding": "mapping",
        "key": "t_address",
        "label": "mapping(address => bool)",
        "numberOfBytes": "32",
        "value": "t_bool"
      },
      "t_mapping(t_address,t_mapping(t_address,t_bool))": {
        "encoding": "mapping",
        "key": "t_address",
        "label": "mapping(address => mapping(address => bool))",
        "numberOfBytes": "32",
        "value": "t_mapping(t_address,t_bool)"
      },
      "t_mapping(t_address,t_mapping(t_uint256,t_uint256))": {
        "encoding": "mapping",
        "key": "t_address",
        "label": "mapping(address => mapping(uint256 => uint256))",
        "numberOfBytes": "32",
        "value": "t_mapping(t_uint256,t_uint256)"
      },
      "t_mapping(t_address,t_uint256)": {
        "encoding": "mapping",
        "key": "t_address",
        "label": "mapping(address => uint256)",
        "numberOfBytes": "32",
        "value": "t_uint256"
      },
      "t_mapping(t_uint256,t_address)": {
        "encoding": "mapping",
        "key": "t_uint256",
        "label": "mapping(uint256 => address)",
        "numberOfBytes": "32",
        "value": "t_address"
      },
      "t_mapping(t_uint256,t_bool)": {
        "encoding": "mapping",
        "key": "t_uint256",
        "label": "mapping(uint256 => bool)",
        "numberOfBytes": "32",
        "value": "t_bool"
      },
      "t_mapping(t_uint256,t_uint256)": {
        "encoding": "mapping",
        "key": "t_uint256",
        "label": "mapping(uint256 => uint256)",
        "numberOfBytes": "32",
        "value": "t_uint256"
      },
      "t_string_storage": {
        "encoding": "bytes",
        "label": "string",
        "numberOfBytes": "32"
      },
      "t_uint256": {
        "encoding": "inplace",
        "label": "uint256",
        "numberOfBytes": "32"
      }
    }
  }
}