{
  "address": "0x345D348e2479C8e1f5cCcCBFAb6E129Bb349B9d4",
  "abi": [
    {
      "inputs": [],
      "stateMutability": "nonpayable",
      "type": "constructor"
    },
    {
      "anonymous": false,
      "inputs": [
        {
          "indexed": false,
          "internalType": "bool",
          "name": "newState",
          "type": "bool"
        }
      ],
      "name": "ChangedClaimState",
      "type": "event"
    },
    {
      "anonymous": false,
      "inputs": [
        {
          "indexed": true,
          "internalType": "address",
          "name": "addressClaim",
          "type": "address"
        },
        {
          "indexed": false,
          "internalType": "uint256",
          "name": "amount",
          "type": "uint256"
        }
      ],
      "name": "Claim",
      "type": "event"
    },
    {
      "anonymous": false,
      "inputs": [
        {
          "indexed": true,
          "internalType": "address",
          "name": "previousOwner",
          "type": "address"
        },
        {
          "indexed": true,
          "internalType": "address",
          "name": "newOwner",
          "type": "address"
        }
      ],
      "name": "OwnershipTransferred",
      "type": "event"
    },
    {
      "anonymous": false,
      "inputs": [
        {
          "indexed": false,
          "internalType": "address",
          "name": "account",
          "type": "address"
        }
      ],
      "name": "Paused",
      "type": "event"
    },
    {
      "anonymous": false,
      "inputs": [
        {
          "indexed": false,
          "internalType": "address",
          "name": "account",
          "type": "address"
        }
      ],
      "name": "Unpaused",
      "type": "event"
    },
    {
      "inputs": [
        {
          "internalType": "address[]",
          "name": "_addresses",
          "type": "address[]"
        },
        {
          "internalType": "uint256[]",
          "name": "_amountTokens",
          "type": "uint256[]"
        }
      ],
      "name": "addAddresses",
      "outputs": [],
      "stateMutability": "nonpayable",
      "type": "function"
    },
    {
      "inputs": [
        {
          "internalType": "address",
          "name": "",
          "type": "address"
        }
      ],
      "name": "boughtTokens",
      "outputs": [
        {
          "internalType": "uint256",
          "name": "",
          "type": "uint256"
        }
      ],
      "stateMutability": "view",
      "type": "function"
    },
    {
      "inputs": [
        {
          "internalType": "bool",
          "name": "_newState",
          "type": "bool"
        }
      ],
      "name": "changeClaimState",
      "outputs": [
        {
          "internalType": "bool",
          "name": "",
          "type": "bool"
        }
      ],
      "stateMutability": "nonpayable",
      "type": "function"
    },
    {
      "inputs": [
        {
          "internalType": "uint256",
          "name": "_newFirstReleaseDateTs",
          "type": "uint256"
        }
      ],
      "name": "changeFirstReleaseDateTs",
      "outputs": [
        {
          "internalType": "bool",
          "name": "",
          "type": "bool"
        }
      ],
      "stateMutability": "nonpayable",
      "type": "function"
    },
    {
      "inputs": [
        {
          "internalType": "uint256",
          "name": "_amountToClaim",
          "type": "uint256"
        }
      ],
      "name": "claim",
      "outputs": [
        {
          "internalType": "bool",
          "name": "",
          "type": "bool"
        }
      ],
      "stateMutability": "nonpayable",
      "type": "function"
    },
    {
      "inputs": [],
      "name": "claimActive",
      "outputs": [
        {
          "internalType": "bool",
          "name": "",
          "type": "bool"
        }
      ],
      "stateMutability": "view",
      "type": "function"
    },
    {
      "inputs": [
        {
          "internalType": "address",
          "name": "",
          "type": "address"
        }
      ],
      "name": "claimedTokens",
      "outputs": [
        {
          "internalType": "uint256",
          "name": "",
          "type": "uint256"
        }
      ],
      "stateMutability": "view",
      "type": "function"
    },
    {
      "inputs": [],
      "name": "firstReleaseDateTs",
      "outputs": [
        {
          "internalType": "uint256",
          "name": "",
          "type": "uint256"
        }
      ],
      "stateMutability": "view",
      "type": "function"
    },
    {
      "inputs": [
        {
          "internalType": "address",
          "name": "tokenAddress_",
          "type": "address"
        }
      ],
      "name": "initialize",
      "outputs": [],
      "stateMutability": "nonpayable",
      "type": "function"
    },
    {
      "inputs": [],
      "name": "isInitialized",
      "outputs": [
        {
          "internalType": "bool",
          "name": "",
          "type": "bool"
        }
      ],
      "stateMutability": "view",
      "type": "function"
    },
    {
      "inputs": [],
      "name": "owner",
      "outputs": [
        {
          "internalType": "address",
          "name": "",
          "type": "address"
        }
      ],
      "stateMutability": "view",
      "type": "function"
    },
    {
      "inputs": [],
      "name": "pause",
      "outputs": [
        {
          "internalType": "bool",
          "name": "",
          "type": "bool"
        }
      ],
      "stateMutability": "nonpayable",
      "type": "function"
    },
    {
      "inputs": [],
      "name": "paused",
      "outputs": [
        {
          "internalType": "bool",
          "name": "",
          "type": "bool"
        }
      ],
      "stateMutability": "view",
      "type": "function"
    },
    {
      "inputs": [
        {
          "internalType": "address",
          "name": "_address",
          "type": "address"
        }
      ],
      "name": "remainingTokensUser",
      "outputs": [
        {
          "internalType": "uint256",
          "name": "",
          "type": "uint256"
        }
      ],
      "stateMutability": "view",
      "type": "function"
    },
    {
      "inputs": [
        {
          "internalType": "address[]",
          "name": "_addresses",
          "type": "address[]"
        }
      ],
      "name": "removeAddresses",
      "outputs": [],
      "stateMutability": "nonpayable",
      "type": "function"
    },
    {
      "inputs": [],
      "name": "renounceOwnership",
      "outputs": [],
      "stateMutability": "nonpayable",
      "type": "function"
    },
    {
      "inputs": [
        {
          "internalType": "address",
          "name": "_newAddress",
          "type": "address"
        }
      ],
      "name": "setTokenAddress",
      "outputs": [
        {
          "internalType": "bool",
          "name": "",
          "type": "bool"
        }
      ],
      "stateMutability": "nonpayable",
      "type": "function"
    },
    {
      "inputs": [
        {
          "internalType": "address",
          "name": "_address",
          "type": "address"
        }
      ],
      "name": "toBeClaimedNow",
      "outputs": [
        {
          "internalType": "uint256",
          "name": "",
          "type": "uint256"
        }
      ],
      "stateMutability": "view",
      "type": "function"
    },
    {
      "inputs": [],
      "name": "tokenAddress",
      "outputs": [
        {
          "internalType": "address",
          "name": "",
          "type": "address"
        }
      ],
      "stateMutability": "view",
      "type": "function"
    },
    {
      "inputs": [
        {
          "internalType": "address",
          "name": "newOwner",
          "type": "address"
        }
      ],
      "name": "transferOwnership",
      "outputs": [],
      "stateMutability": "nonpayable",
      "type": "function"
    },
    {
      "inputs": [],
      "name": "unpause",
      "outputs": [
        {
          "internalType": "bool",
          "name": "",
          "type": "bool"
        }
      ],
      "stateMutability": "nonpayable",
      "type": "function"
    },
    {
      "inputs": [],
      "name": "withdraw",
      "outputs": [
        {
          "internalType": "bool",
          "name": "",
          "type": "bool"
        }
      ],
      "stateMutability": "nonpayable",
      "type": "function"
    },
    {
      "inputs": [
        {
          "internalType": "uint256",
          "name": "_amount",
          "type": "uint256"
        }
      ],
      "name": "withdrawRemainingTokens",
      "outputs": [
        {
          "internalType": "bool",
          "name": "",
          "type": "bool"
        }
      ],
      "stateMutability": "nonpayable",
      "type": "function"
    },
    {
      "inputs": [
        {
          "internalType": "address",
          "name": "_tokenAddress",
          "type": "address"
        },
        {
          "internalType": "uint256",
          "name": "_amount",
          "type": "uint256"
        }
      ],
      "name": "withdrawToken",
      "outputs": [
        {
          "internalType": "bool",
          "name": "",
          "type": "bool"
        }
      ],
      "stateMutability": "nonpayable",
      "type": "function"
    }
  ],
  "transactionHash": "0x182014b3bd84fae7f91721e867e181a5c2819322290d8f6aa45ad64bfc1eef86",
  "args": [],
  "solcInputHash": "1e56886691af3c3afffa94fc35d4f717",
  "bytecode": "0x608060405234801561001057600080fd5b50600054610100900460ff168061002a575060005460ff16155b6100915760405162461bcd60e51b815260206004820152602e60248201527f496e697469616c697a61626c653a20636f6e747261637420697320616c72656160448201526d191e481a5b9a5d1a585b1a5e995960921b606482015260840160405180910390fd5b600054610100900460ff161580156100b3576000805461ffff19166101011790555b80156100c5576000805461ff00191690555b506113ef806100d56000396000f3fe608060405234801561001057600080fd5b50600436106101585760003560e01c80638456cb59116100c3578063c4d66de81161007c578063c4d66de8146102c0578063d4a6a2fd146102d3578063ee7cab56146102e7578063f2fde38b146102fa578063fb5f8ebd1461030d578063fb93bc191461032057600080fd5b80638456cb591461023a5780638da5cb5b146102425780639d76ea58146102675780639e281a981461027a578063a84eb9991461028d578063a960c65f146102a057600080fd5b80635b4c0b6e116101155780635b4c0b6e146101d65780635c975abb146101e95780637052dad9146101f4578063715018a61461020757806378dfafd51461021157806383bad1af1461021a57600080fd5b806326a4e8d21461015d578063379607f514610185578063392e53cd146101985780633ccfd60b146101a55780633f4ba83a146101ad5780634b91563c146101b5575b600080fd5b61017061016b36600461100c565b610333565b60405190151581526020015b60405180910390f35b610170610193366004611027565b61038d565b60c9546101709060ff1681565b6101706105e3565b610170610664565b6101c86101c336600461100c565b61069f565b60405190815260200161017c565b6101c86101e436600461100c565b6106d3565b60655460ff16610170565b610170610202366004611027565b6106ff565b61020f6107b9565b005b6101c860cd5481565b6101c861022836600461100c565b60ca6020526000908152604090205481565b6101706107ef565b6033546001600160a01b03165b6040516001600160a01b03909116815260200161017c565b60cc5461024f906001600160a01b031681565b610170610288366004611040565b610824565b61020f61029b366004611147565b6108db565b6101c86102ae36600461100c565b60cb6020526000908152604090205481565b61020f6102ce36600461100c565b61096c565b60cc5461017090600160a01b900460ff1681565b61020f6102f536600461117c565b610a17565b61020f61030836600461100c565b610b65565b61017061031b366004611027565b610c00565b61017061032e366004611245565b610c36565b6033546000906001600160a01b031633146103695760405162461bcd60e51b815260040161036090611262565b60405180910390fd5b5060cc80546001600160a01b0319166001600160a01b03831617905560015b919050565b600061039b60655460ff1690565b156103db5760405162461bcd60e51b815260206004820152601060248201526f14185d5cd8589b194e881c185d5cd95960821b6044820152606401610360565b6002609754141561042e5760405162461bcd60e51b815260206004820152601f60248201527f5265656e7472616e637947756172643a207265656e7472616e742063616c6c006044820152606401610360565b600260975560cc54600160a01b900460ff1661047f5760405162461bcd60e51b815260206004820152601060248201526f436c61696d206e6f742061637469766560801b6044820152606401610360565b600061048a33610cc0565b33600090815260cb602052604090205490915081906104a990856112ad565b11156104e95760405162461bcd60e51b815260206004820152600f60248201526e105b5bdd5b9d08195e18d959591959608a1b6044820152606401610360565b33600090815260cb60205260409020546105049084906112ad565b33600081815260cb6020526040908190209290925560cc54915163a9059cbb60e01b81526004810191909152602481018590526001600160a01b039091169063a9059cbb90604401602060405180830381600087803b15801561056657600080fd5b505af115801561057a573d6000803e3d6000fd5b505050506040513d601f19601f8201168201806040525081019061059e91906112c5565b5060405183815233907f47cee97cb7acd717b3c0aa1435d004cd5b3c8c57d70dbceb4e4458bbd60e39d49060200160405180910390a260019150506001609755919050565b6033546000906001600160a01b031633146106105760405162461bcd60e51b815260040161036090611262565b476106236033546001600160a01b031690565b6001600160a01b03166108fc829081150290604051600060405180830381858888f1935050505015801561065b573d6000803e3d6000fd5b50600191505090565b6033546000906001600160a01b031633146106915760405162461bcd60e51b815260040161036090611262565b610699610d22565b50600190565b6001600160a01b038116600090815260cb602090815260408083205460ca9092528220546106cd91906112e2565b92915050565b6001600160a01b038116600090815260cb60205260408120546106f583610cc0565b6106cd91906112e2565b6033546000906001600160a01b0316331461072c5760405162461bcd60e51b815260040161036090611262565b60cc5460405163a9059cbb60e01b8152336004820152602481018490526001600160a01b039091169063a9059cbb90604401602060405180830381600087803b15801561077857600080fd5b505af115801561078c573d6000803e3d6000fd5b505050506040513d601f19601f820116820180604052508101906107b091906112c5565b50600192915050565b6033546001600160a01b031633146107e35760405162461bcd60e51b815260040161036090611262565b6107ed6000610db5565b565b6033546000906001600160a01b0316331461081c5760405162461bcd60e51b815260040161036090611262565b610699610e07565b6033546000906001600160a01b031633146108515760405162461bcd60e51b815260040161036090611262565b60405163a9059cbb60e01b8152336004820152602481018390526001600160a01b0384169063a9059cbb90604401602060405180830381600087803b15801561089957600080fd5b505af11580156108ad573d6000803e3d6000fd5b505050506040513d601f19601f820116820180604052508101906108d191906112c5565b5060019392505050565b6033546001600160a01b031633146109055760405162461bcd60e51b815260040161036090611262565b60005b815181101561096857600060ca6000848481518110610929576109296112f9565b60200260200101516001600160a01b03166001600160a01b031681526020019081526020016000208190555080806109609061130f565b915050610908565b5050565b600054610100900460ff1680610985575060005460ff16155b6109a15760405162461bcd60e51b81526004016103609061132a565b600054610100900460ff161580156109c3576000805461ffff19166101011790555b6109cb610e82565b60cc80546001600160a81b0319166001600160a01b0384161790556109f46403e6c69280610c00565b5060c9805460ff191660011790558015610968576000805461ff00191690555050565b6033546001600160a01b03163314610a415760405162461bcd60e51b815260040161036090611262565b8051825114610a895760405162461bcd60e51b81526020600482015260146024820152734e6f7420657175616c2064696d656e73696f6e7360601b6044820152606401610360565b60005b8251811015610b6057818181518110610aa757610aa76112f9565b6020026020010151670de0b6b3a7640000610ac29190611378565b60ca6000858481518110610ad857610ad86112f9565b60200260200101516001600160a01b03166001600160a01b0316815260200190815260200160002054610b0b91906112ad565b60ca6000858481518110610b2157610b216112f9565b60200260200101516001600160a01b03166001600160a01b03168152602001908152602001600020819055508080610b589061130f565b915050610a8c565b505050565b6033546001600160a01b03163314610b8f5760405162461bcd60e51b815260040161036090611262565b6001600160a01b038116610bf45760405162461bcd60e51b815260206004820152602660248201527f4f776e61626c653a206e6577206f776e657220697320746865207a65726f206160448201526564647265737360d01b6064820152608401610360565b610bfd81610db5565b50565b6033546000906001600160a01b03163314610c2d5760405162461bcd60e51b815260040161036090611262565b5060cd55600190565b6033546000906001600160a01b03163314610c635760405162461bcd60e51b815260040161036090611262565b60cc8054831515600160a01b0260ff60a01b199091161790556040517fed2d04258380881afc7d3eeec7ff753e985596a03cf8d4f31a48d08870f94d1c90610cb090841515815260200190565b60405180910390a1506001919050565b600080610ccf60cd5442610efd565b905060648110610cdd575060645b6001600160a01b038316600090815260ca602052604081205461271090610d05908490611378565b610d10906064611378565b610d1a9190611397565b949350505050565b60655460ff16610d6b5760405162461bcd60e51b815260206004820152601460248201527314185d5cd8589b194e881b9bdd081c185d5cd95960621b6044820152606401610360565b6065805460ff191690557f5db9ee0a495bf2e6ff9c91a7834c1ba4fdd244a5e8aa4e537bd38aeae4b073aa335b6040516001600160a01b03909116815260200160405180910390a1565b603380546001600160a01b038381166001600160a01b0319831681179093556040519116919082907f8be0079c531659141344cd1fd0a4f28419497f9722a3daafe3b4186f6b6457e090600090a35050565b60655460ff1615610e4d5760405162461bcd60e51b815260206004820152601060248201526f14185d5cd8589b194e881c185d5cd95960821b6044820152606401610360565b6065805460ff191660011790557f62e78cea01bee320cd4e420270b5ea74000d11b0c9f74754ebdbfc544b05a258610d983390565b600054610100900460ff1680610e9b575060005460ff16155b610eb75760405162461bcd60e51b81526004016103609061132a565b600054610100900460ff16158015610ed9576000805461ffff19166101011790555b610ee1610f2b565b610ee9610f95565b8015610bfd576000805461ff001916905550565b600081831115610f0c57600080fd5b62015180610f1a84846112e2565b610f249190611397565b9392505050565b600054610100900460ff1680610f44575060005460ff16155b610f605760405162461bcd60e51b81526004016103609061132a565b600054610100900460ff16158015610ee9576000805461ffff19166101011790558015610bfd576000805461ff001916905550565b600054610100900460ff1680610fae575060005460ff16155b610fca5760405162461bcd60e51b81526004016103609061132a565b600054610100900460ff16158015610fec576000805461ffff19166101011790555b610ee933610db5565b80356001600160a01b038116811461038857600080fd5b60006020828403121561101e57600080fd5b610f2482610ff5565b60006020828403121561103957600080fd5b5035919050565b6000806040838503121561105357600080fd5b61105c83610ff5565b946020939093013593505050565b634e487b7160e01b600052604160045260246000fd5b604051601f8201601f1916810167ffffffffffffffff811182821017156110a9576110a961106a565b604052919050565b600067ffffffffffffffff8211156110cb576110cb61106a565b5060051b60200190565b600082601f8301126110e657600080fd5b813560206110fb6110f6836110b1565b611080565b82815260059290921b8401810191818101908684111561111a57600080fd5b8286015b8481101561113c5761112f81610ff5565b835291830191830161111e565b509695505050505050565b60006020828403121561115957600080fd5b813567ffffffffffffffff81111561117057600080fd5b610d1a848285016110d5565b6000806040838503121561118f57600080fd5b823567ffffffffffffffff808211156111a757600080fd5b6111b3868387016110d5565b93506020915081850135818111156111ca57600080fd5b85019050601f810186136111dd57600080fd5b80356111eb6110f6826110b1565b81815260059190911b8201830190838101908883111561120a57600080fd5b928401925b828410156112285783358252928401929084019061120f565b80955050505050509250929050565b8015158114610bfd57600080fd5b60006020828403121561125757600080fd5b8135610f2481611237565b6020808252818101527f4f776e61626c653a2063616c6c6572206973206e6f7420746865206f776e6572604082015260600190565b634e487b7160e01b600052601160045260246000fd5b600082198211156112c0576112c0611297565b500190565b6000602082840312156112d757600080fd5b8151610f2481611237565b6000828210156112f4576112f4611297565b500390565b634e487b7160e01b600052603260045260246000fd5b600060001982141561132357611323611297565b5060010190565b6020808252602e908201527f496e697469616c697a61626c653a20636f6e747261637420697320616c72656160408201526d191e481a5b9a5d1a585b1a5e995960921b606082015260800190565b600081600019048311821515161561139257611392611297565b500290565b6000826113b457634e487b7160e01b600052601260045260246000fd5b50049056fea264697066735822122075f1daa69dfd335b7134b32fe8e603c379bef851b0cd36ad03cdcb35ec1b4d7864736f6c63430008090033",
  "devdoc": {
    "kind": "dev",
    "methods": {
      "owner()": {
        "details": "Returns the address of the current owner."
      },
      "paused()": {
        "details": "Returns true if the contract is paused, and false otherwise."
      },
      "renounceOwnership()": {
        "details": "Leaves the contract without owner. It will not be possible to call `onlyOwner` functions anymore. Can only be called by the current owner. NOTE: Renouncing ownership will leave the contract without an owner, thereby removing any functionality that is only available to the owner."
      },
      "transferOwnership(address)": {
        "details": "Transfers ownership of the contract to a new account (`newOwner`). Can only be called by the current owner."
      }
    },
    "version": 1
  },
  "userdoc": {
    "kind": "user",
    "methods": {},
    "version": 1
  },
  "storageLayout": {
    "storage": [
      {
        "astId": 131,
        "contract": "contracts/PresaleCWOLF.sol:PresaleCWOLF",
        "label": "_initialized",
        "offset": 0,
        "slot": "0",
        "type": "t_bool"
      },
      {
        "astId": 134,
        "contract": "contracts/PresaleCWOLF.sol:PresaleCWOLF",
        "label": "_initializing",
        "offset": 1,
        "slot": "0",
        "type": "t_bool"
      },
      {
        "astId": 3103,
        "contract": "contracts/PresaleCWOLF.sol:PresaleCWOLF",
        "label": "__gap",
        "offset": 0,
        "slot": "1",
        "type": "t_array(t_uint256)50_storage"
      },
      {
        "astId": 10,
        "contract": "contracts/PresaleCWOLF.sol:PresaleCWOLF",
        "label": "_owner",
        "offset": 0,
        "slot": "51",
        "type": "t_address"
      },
      {
        "astId": 124,
        "contract": "contracts/PresaleCWOLF.sol:PresaleCWOLF",
        "label": "__gap",
        "offset": 0,
        "slot": "52",
        "type": "t_array(t_uint256)49_storage"
      },
      {
        "astId": 192,
        "contract": "contracts/PresaleCWOLF.sol:PresaleCWOLF",
        "label": "_paused",
        "offset": 0,
        "slot": "101",
        "type": "t_bool"
      },
      {
        "astId": 283,
        "contract": "contracts/PresaleCWOLF.sol:PresaleCWOLF",
        "label": "__gap",
        "offset": 0,
        "slot": "102",
        "type": "t_array(t_uint256)49_storage"
      },
      {
        "astId": 298,
        "contract": "contracts/PresaleCWOLF.sol:PresaleCWOLF",
        "label": "_status",
        "offset": 0,
        "slot": "151",
        "type": "t_uint256"
      },
      {
        "astId": 341,
        "contract": "contracts/PresaleCWOLF.sol:PresaleCWOLF",
        "label": "__gap",
        "offset": 0,
        "slot": "152",
        "type": "t_array(t_uint256)49_storage"
      },
      {
        "astId": 7719,
        "contract": "contracts/PresaleCWOLF.sol:PresaleCWOLF",
        "label": "isInitialized",
        "offset": 0,
        "slot": "201",
        "type": "t_bool"
      },
      {
        "astId": 7723,
        "contract": "contracts/PresaleCWOLF.sol:PresaleCWOLF",
        "label": "boughtTokens",
        "offset": 0,
        "slot": "202",
        "type": "t_mapping(t_address,t_uint256)"
      },
      {
        "astId": 7727,
        "contract": "contracts/PresaleCWOLF.sol:PresaleCWOLF",
        "label": "claimedTokens",
        "offset": 0,
        "slot": "203",
        "type": "t_mapping(t_address,t_uint256)"
      },
      {
        "astId": 7729,
        "contract": "contracts/PresaleCWOLF.sol:PresaleCWOLF",
        "label": "tokenAddress",
        "offset": 0,
        "slot": "204",
        "type": "t_address"
      },
      {
        "astId": 7731,
        "contract": "contracts/PresaleCWOLF.sol:PresaleCWOLF",
        "label": "claimActive",
        "offset": 20,
        "slot": "204",
        "type": "t_bool"
      },
      {
        "astId": 7733,
        "contract": "contracts/PresaleCWOLF.sol:PresaleCWOLF",
        "label": "firstReleaseDateTs",
        "offset": 0,
        "slot": "205",
        "type": "t_uint256"
      }
    ],
    "types": {
      "t_address": {
        "encoding": "inplace",
        "label": "address",
        "numberOfBytes": "20"
      },
      "t_array(t_uint256)49_storage": {
        "base": "t_uint256",
        "encoding": "inplace",
        "label": "uint256[49]",
        "numberOfBytes": "1568"
      },
      "t_array(t_uint256)50_storage": {
        "base": "t_uint256",
        "encoding": "inplace",
        "label": "uint256[50]",
        "numberOfBytes": "1600"
      },
      "t_bool": {
        "encoding": "inplace",
        "label": "bool",
        "numberOfBytes": "1"
      },
      "t_mapping(t_address,t_uint256)": {
        "encoding": "mapping",
        "key": "t_address",
        "label": "mapping(address => uint256)",
        "numberOfBytes": "32",
        "value": "t_uint256"
      },
      "t_uint256": {
        "encoding": "inplace",
        "label": "uint256",
        "numberOfBytes": "32"
      }
    }
  }
}