{
  "address": "0x905ffD8b3b52A0111a5fd3f7A247EDfE8C89ADa1",
  "abi": [
    {
      "inputs": [],
      "stateMutability": "nonpayable",
      "type": "constructor"
    },
    {
      "anonymous": false,
      "inputs": [
        {
          "indexed": true,
          "internalType": "address",
          "name": "previousOwner",
          "type": "address"
        },
        {
          "indexed": true,
          "internalType": "address",
          "name": "newOwner",
          "type": "address"
        }
      ],
      "name": "OwnershipTransferred",
      "type": "event"
    },
    {
      "anonymous": false,
      "inputs": [
        {
          "indexed": false,
          "internalType": "uint256",
          "name": "newPrice",
          "type": "uint256"
        }
      ],
      "name": "PriceBNBChanged",
      "type": "event"
    },
    {
      "anonymous": false,
      "inputs": [
        {
          "indexed": false,
          "internalType": "uint256",
          "name": "_newPriceCWOLF",
          "type": "uint256"
        },
        {
          "indexed": false,
          "internalType": "uint256",
          "name": "_newPriceBNB",
          "type": "uint256"
        }
      ],
      "name": "PriceCWOLFAndBNBChanged",
      "type": "event"
    },
    {
      "anonymous": false,
      "inputs": [
        {
          "indexed": false,
          "internalType": "uint256",
          "name": "newPrice",
          "type": "uint256"
        }
      ],
      "name": "PriceCWOLFChanged",
      "type": "event"
    },
    {
      "inputs": [
        {
          "internalType": "address",
          "name": "_newAddress",
          "type": "address"
        }
      ],
      "name": "changeAddressMinterWallet",
      "outputs": [
        {
          "internalType": "bool",
          "name": "",
          "type": "bool"
        }
      ],
      "stateMutability": "nonpayable",
      "type": "function"
    },
    {
      "inputs": [
        {
          "internalType": "uint256",
          "name": "_amount",
          "type": "uint256"
        }
      ],
      "name": "getDollarsInBNB",
      "outputs": [
        {
          "internalType": "uint256",
          "name": "",
          "type": "uint256"
        }
      ],
      "stateMutability": "view",
      "type": "function"
    },
    {
      "inputs": [
        {
          "internalType": "uint256",
          "name": "_amount",
          "type": "uint256"
        }
      ],
      "name": "getDollarsInCWOLF",
      "outputs": [
        {
          "internalType": "uint256",
          "name": "",
          "type": "uint256"
        }
      ],
      "stateMutability": "view",
      "type": "function"
    },
    {
      "inputs": [
        {
          "internalType": "address",
          "name": "minterWalletAddress_",
          "type": "address"
        }
      ],
      "name": "initialize",
      "outputs": [],
      "stateMutability": "nonpayable",
      "type": "function"
    },
    {
      "inputs": [],
      "name": "isInitialized",
      "outputs": [
        {
          "internalType": "bool",
          "name": "",
          "type": "bool"
        }
      ],
      "stateMutability": "view",
      "type": "function"
    },
    {
      "inputs": [],
      "name": "minterWalletAddress",
      "outputs": [
        {
          "internalType": "address",
          "name": "",
          "type": "address"
        }
      ],
      "stateMutability": "view",
      "type": "function"
    },
    {
      "inputs": [],
      "name": "owner",
      "outputs": [
        {
          "internalType": "address",
          "name": "",
          "type": "address"
        }
      ],
      "stateMutability": "view",
      "type": "function"
    },
    {
      "inputs": [],
      "name": "priceBNB",
      "outputs": [
        {
          "internalType": "uint256",
          "name": "",
          "type": "uint256"
        }
      ],
      "stateMutability": "view",
      "type": "function"
    },
    {
      "inputs": [],
      "name": "priceCWOLF",
      "outputs": [
        {
          "internalType": "uint256",
          "name": "",
          "type": "uint256"
        }
      ],
      "stateMutability": "view",
      "type": "function"
    },
    {
      "inputs": [],
      "name": "renounceOwnership",
      "outputs": [],
      "stateMutability": "nonpayable",
      "type": "function"
    },
    {
      "inputs": [
        {
          "internalType": "uint256",
          "name": "_newPrice",
          "type": "uint256"
        }
      ],
      "name": "setBNBPriceInDollars",
      "outputs": [],
      "stateMutability": "nonpayable",
      "type": "function"
    },
    {
      "inputs": [
        {
          "internalType": "uint256",
          "name": "_newPriceCWOLF",
          "type": "uint256"
        },
        {
          "internalType": "uint256",
          "name": "_newPriceBNB",
          "type": "uint256"
        }
      ],
      "name": "setCWOLFAndBNBPriceInDollars",
      "outputs": [],
      "stateMutability": "nonpayable",
      "type": "function"
    },
    {
      "inputs": [
        {
          "internalType": "uint256",
          "name": "_newPrice",
          "type": "uint256"
        }
      ],
      "name": "setCWolfPriceInDollars",
      "outputs": [],
      "stateMutability": "nonpayable",
      "type": "function"
    },
    {
      "inputs": [
        {
          "internalType": "address",
          "name": "newOwner",
          "type": "address"
        }
      ],
      "name": "transferOwnership",
      "outputs": [],
      "stateMutability": "nonpayable",
      "type": "function"
    }
  ],
  "transactionHash": "0x1fd264ae5fb3b21b1c85644e95ecb16892063c6b20a2a64e5ad133911ae7f732",
  "args": [],
  "solcInputHash": "b40a40780cb9fdef3f2fc14f60ed9b80",
  "bytecode": "0x608060405234801561001057600080fd5b50600054610100900460ff168061002a575060005460ff16155b6100915760405162461bcd60e51b815260206004820152602e60248201527f496e697469616c697a61626c653a20636f6e747261637420697320616c72656160448201526d191e481a5b9a5d1a585b1a5e995960921b606482015260840160405180910390fd5b600054610100900460ff161580156100b3576000805461ffff19166101011790555b80156100c5576000805461ff00191690555b506108d1806100d56000396000f3fe608060405234801561001057600080fd5b50600436106100ea5760003560e01c8063a8f70d0f1161008c578063c4d66de811610066578063c4d66de8146101bf578063e524da0d146101d2578063e66baf0a146101e5578063f2fde38b146101f857600080fd5b8063a8f70d0f14610190578063aaa2400b14610199578063b61f61b4146101ac57600080fd5b8063674adb7d116100c8578063674adb7d14610147578063715018a61461015a5780637dad3ed0146101625780638da5cb5b1461016b57600080fd5b8063392e53cd146100ef5780634313da551461011157806365db5d2514610126575b600080fd5b6065546100fc9060ff1681565b60405190151581526020015b60405180910390f35b61012461011f366004610739565b61020b565b005b610139610134366004610739565b61028f565b604051908152602001610108565b610139610155366004610739565b6102b7565b6101246102cf565b61013960665481565b6033546001600160a01b03165b6040516001600160a01b039091168152602001610108565b61013960675481565b6100fc6101a7366004610752565b610305565b6101246101ba366004610782565b610357565b6101246101cd366004610752565b6103dd565b606854610178906001600160a01b031681565b6101246101f3366004610739565b610493565b610124610206366004610752565b610507565b6033546001600160a01b031633148061022e57506068546001600160a01b031633145b6102535760405162461bcd60e51b815260040161024a906107a4565b60405180910390fd5b60668190556040518181527f57f6453c868b3f19ced48c8d13a8b98b2a8cdafb496ad127359e7d7d1b07fef4906020015b60405180910390a150565b6067546000906102a783670de0b6b3a76400006107c9565b6102b191906107f6565b92915050565b6066546000906102a783670de0b6b3a76400006107c9565b6033546001600160a01b031633146102f95760405162461bcd60e51b815260040161024a90610818565b61030360006105a2565b565b6033546000906001600160a01b031633146103325760405162461bcd60e51b815260040161024a90610818565b50606880546001600160a01b0383166001600160a01b03199091161790556001919050565b6033546001600160a01b031633148061037a57506068546001600160a01b031633145b6103965760405162461bcd60e51b815260040161024a906107a4565b6066829055606781905560408051838152602081018390527fba6a47aa73c050d8da6d17f712f974f84c6f2ccfff16bf6c5112197be3a3652c910160405180910390a15050565b600054610100900460ff16806103f6575060005460ff16155b6104125760405162461bcd60e51b815260040161024a9061084d565b600054610100900460ff16158015610434576000805461ffff19166101011790555b61043c6105f4565b670b1a2bc2ec500000606655681b1ae4d6e2ef500000606755606880546001600160a01b0319166001600160a01b0384161790556065805460ff19166001179055801561048f576000805461ff00191690555b5050565b6033546001600160a01b03163314806104b657506068546001600160a01b031633145b6104d25760405162461bcd60e51b815260040161024a906107a4565b60678190556040518181527f47245fe1fe347d0117316a639b3c9b4f3194066078425a7c24cbdaaf0ffe926990602001610284565b6033546001600160a01b031633146105315760405162461bcd60e51b815260040161024a90610818565b6001600160a01b0381166105965760405162461bcd60e51b815260206004820152602660248201527f4f776e61626c653a206e6577206f776e657220697320746865207a65726f206160448201526564647265737360d01b606482015260840161024a565b61059f816105a2565b50565b603380546001600160a01b038381166001600160a01b0319831681179093556040519116919082907f8be0079c531659141344cd1fd0a4f28419497f9722a3daafe3b4186f6b6457e090600090a35050565b600054610100900460ff168061060d575060005460ff16155b6106295760405162461bcd60e51b815260040161024a9061084d565b600054610100900460ff1615801561064b576000805461ffff19166101011790555b61065361066f565b61065b6106d9565b801561059f576000805461ff001916905550565b600054610100900460ff1680610688575060005460ff16155b6106a45760405162461bcd60e51b815260040161024a9061084d565b600054610100900460ff1615801561065b576000805461ffff1916610101179055801561059f576000805461ff001916905550565b600054610100900460ff16806106f2575060005460ff16155b61070e5760405162461bcd60e51b815260040161024a9061084d565b600054610100900460ff16158015610730576000805461ffff19166101011790555b61065b336105a2565b60006020828403121561074b57600080fd5b5035919050565b60006020828403121561076457600080fd5b81356001600160a01b038116811461077b57600080fd5b9392505050565b6000806040838503121561079557600080fd5b50508035926020909101359150565b6020808252600b908201526a139bdd08185b1b1bddd95960aa1b604082015260600190565b60008160001904831182151516156107f157634e487b7160e01b600052601160045260246000fd5b500290565b60008261081357634e487b7160e01b600052601260045260246000fd5b500490565b6020808252818101527f4f776e61626c653a2063616c6c6572206973206e6f7420746865206f776e6572604082015260600190565b6020808252602e908201527f496e697469616c697a61626c653a20636f6e747261637420697320616c72656160408201526d191e481a5b9a5d1a585b1a5e995960921b60608201526080019056fea2646970667358221220ecb8043705518f29069e02bff0ae64c9196ac0d1ff85212186b275add5a260ec64736f6c63430008090033",
  "devdoc": {
    "kind": "dev",
    "methods": {
      "owner()": {
        "details": "Returns the address of the current owner."
      },
      "renounceOwnership()": {
        "details": "Leaves the contract without owner. It will not be possible to call `onlyOwner` functions anymore. Can only be called by the current owner. NOTE: Renouncing ownership will leave the contract without an owner, thereby removing any functionality that is only available to the owner."
      },
      "transferOwnership(address)": {
        "details": "Transfers ownership of the contract to a new account (`newOwner`). Can only be called by the current owner."
      }
    },
    "version": 1
  },
  "userdoc": {
    "kind": "user",
    "methods": {},
    "version": 1
  },
  "storageLayout": {
    "storage": [
      {
        "astId": 131,
        "contract": "contracts/Variables.sol:Variables",
        "label": "_initialized",
        "offset": 0,
        "slot": "0",
        "type": "t_bool"
      },
      {
        "astId": 134,
        "contract": "contracts/Variables.sol:Variables",
        "label": "_initializing",
        "offset": 1,
        "slot": "0",
        "type": "t_bool"
      },
      {
        "astId": 3038,
        "contract": "contracts/Variables.sol:Variables",
        "label": "__gap",
        "offset": 0,
        "slot": "1",
        "type": "t_array(t_uint256)50_storage"
      },
      {
        "astId": 10,
        "contract": "contracts/Variables.sol:Variables",
        "label": "_owner",
        "offset": 0,
        "slot": "51",
        "type": "t_address"
      },
      {
        "astId": 124,
        "contract": "contracts/Variables.sol:Variables",
        "label": "__gap",
        "offset": 0,
        "slot": "52",
        "type": "t_array(t_uint256)49_storage"
      },
      {
        "astId": 7158,
        "contract": "contracts/Variables.sol:Variables",
        "label": "isInitialized",
        "offset": 0,
        "slot": "101",
        "type": "t_bool"
      },
      {
        "astId": 7160,
        "contract": "contracts/Variables.sol:Variables",
        "label": "priceCWOLF",
        "offset": 0,
        "slot": "102",
        "type": "t_uint256"
      },
      {
        "astId": 7162,
        "contract": "contracts/Variables.sol:Variables",
        "label": "priceBNB",
        "offset": 0,
        "slot": "103",
        "type": "t_uint256"
      },
      {
        "astId": 7164,
        "contract": "contracts/Variables.sol:Variables",
        "label": "minterWalletAddress",
        "offset": 0,
        "slot": "104",
        "type": "t_address"
      }
    ],
    "types": {
      "t_address": {
        "encoding": "inplace",
        "label": "address",
        "numberOfBytes": "20"
      },
      "t_array(t_uint256)49_storage": {
        "base": "t_uint256",
        "encoding": "inplace",
        "label": "uint256[49]",
        "numberOfBytes": "1568"
      },
      "t_array(t_uint256)50_storage": {
        "base": "t_uint256",
        "encoding": "inplace",
        "label": "uint256[50]",
        "numberOfBytes": "1600"
      },
      "t_bool": {
        "encoding": "inplace",
        "label": "bool",
        "numberOfBytes": "1"
      },
      "t_uint256": {
        "encoding": "inplace",
        "label": "uint256",
        "numberOfBytes": "32"
      }
    }
  }
}