{
  "address": "0x47E0B35dFEbd4ADbb04474BcE722B9B4F9E9c87c",
  "abi": [
    {
      "inputs": [],
      "stateMutability": "nonpayable",
      "type": "constructor"
    },
    {
      "anonymous": false,
      "inputs": [
        {
          "indexed": true,
          "internalType": "address",
          "name": "owner",
          "type": "address"
        },
        {
          "indexed": true,
          "internalType": "address",
          "name": "approved",
          "type": "address"
        },
        {
          "indexed": true,
          "internalType": "uint256",
          "name": "tokenId",
          "type": "uint256"
        }
      ],
      "name": "Approval",
      "type": "event"
    },
    {
      "anonymous": false,
      "inputs": [
        {
          "indexed": true,
          "internalType": "address",
          "name": "owner",
          "type": "address"
        },
        {
          "indexed": true,
          "internalType": "address",
          "name": "operator",
          "type": "address"
        },
        {
          "indexed": false,
          "internalType": "bool",
          "name": "approved",
          "type": "bool"
        }
      ],
      "name": "ApprovalForAll",
      "type": "event"
    },
    {
      "anonymous": false,
      "inputs": [
        {
          "indexed": true,
          "internalType": "uint256",
          "name": "_wolfPackId",
          "type": "uint256"
        },
        {
          "indexed": true,
          "internalType": "uint256",
          "name": "_amount",
          "type": "uint256"
        }
      ],
      "name": "DecreasedEnergy",
      "type": "event"
    },
    {
      "anonymous": false,
      "inputs": [
        {
          "indexed": true,
          "internalType": "uint256",
          "name": "_wolfPackId",
          "type": "uint256"
        },
        {
          "indexed": true,
          "internalType": "uint256",
          "name": "_amount",
          "type": "uint256"
        }
      ],
      "name": "DecreasedLife",
      "type": "event"
    },
    {
      "anonymous": false,
      "inputs": [
        {
          "indexed": true,
          "internalType": "uint256",
          "name": "_wolfPackId",
          "type": "uint256"
        },
        {
          "indexed": true,
          "internalType": "uint256",
          "name": "_amount",
          "type": "uint256"
        }
      ],
      "name": "DecreasedLink",
      "type": "event"
    },
    {
      "anonymous": false,
      "inputs": [
        {
          "indexed": true,
          "internalType": "uint256",
          "name": "_wolfPackId",
          "type": "uint256"
        },
        {
          "indexed": true,
          "internalType": "uint256",
          "name": "_amount",
          "type": "uint256"
        }
      ],
      "name": "IncreasedEnergy",
      "type": "event"
    },
    {
      "anonymous": false,
      "inputs": [
        {
          "indexed": true,
          "internalType": "uint256",
          "name": "_wolfPackId",
          "type": "uint256"
        },
        {
          "indexed": true,
          "internalType": "uint256",
          "name": "_amount",
          "type": "uint256"
        }
      ],
      "name": "IncreasedLife",
      "type": "event"
    },
    {
      "anonymous": false,
      "inputs": [
        {
          "indexed": true,
          "internalType": "uint256",
          "name": "_wolfPackId",
          "type": "uint256"
        },
        {
          "indexed": true,
          "internalType": "uint256",
          "name": "_amount",
          "type": "uint256"
        }
      ],
      "name": "IncreasedLink",
      "type": "event"
    },
    {
      "anonymous": false,
      "inputs": [
        {
          "indexed": true,
          "internalType": "address",
          "name": "_to",
          "type": "address"
        },
        {
          "indexed": true,
          "internalType": "uint256",
          "name": "_id",
          "type": "uint256"
        }
      ],
      "name": "MintedNFT",
      "type": "event"
    },
    {
      "anonymous": false,
      "inputs": [
        {
          "indexed": true,
          "internalType": "address",
          "name": "previousOwner",
          "type": "address"
        },
        {
          "indexed": true,
          "internalType": "address",
          "name": "newOwner",
          "type": "address"
        }
      ],
      "name": "OwnershipTransferred",
      "type": "event"
    },
    {
      "anonymous": false,
      "inputs": [
        {
          "indexed": false,
          "internalType": "address",
          "name": "account",
          "type": "address"
        }
      ],
      "name": "Paused",
      "type": "event"
    },
    {
      "anonymous": false,
      "inputs": [
        {
          "indexed": true,
          "internalType": "address",
          "name": "from",
          "type": "address"
        },
        {
          "indexed": true,
          "internalType": "address",
          "name": "to",
          "type": "address"
        },
        {
          "indexed": true,
          "internalType": "uint256",
          "name": "tokenId",
          "type": "uint256"
        }
      ],
      "name": "Transfer",
      "type": "event"
    },
    {
      "anonymous": false,
      "inputs": [
        {
          "indexed": false,
          "internalType": "address",
          "name": "account",
          "type": "address"
        }
      ],
      "name": "Unpaused",
      "type": "event"
    },
    {
      "inputs": [],
      "name": "CWOLFContractAddress",
      "outputs": [
        {
          "internalType": "address",
          "name": "",
          "type": "address"
        }
      ],
      "stateMutability": "view",
      "type": "function"
    },
    {
      "inputs": [],
      "name": "HuntingNFTContractAddress",
      "outputs": [
        {
          "internalType": "address",
          "name": "",
          "type": "address"
        }
      ],
      "stateMutability": "view",
      "type": "function"
    },
    {
      "inputs": [],
      "name": "MaterialsNFTContractAddress",
      "outputs": [
        {
          "internalType": "address",
          "name": "",
          "type": "address"
        }
      ],
      "stateMutability": "view",
      "type": "function"
    },
    {
      "inputs": [],
      "name": "VariablesContractAddress",
      "outputs": [
        {
          "internalType": "address",
          "name": "",
          "type": "address"
        }
      ],
      "stateMutability": "view",
      "type": "function"
    },
    {
      "inputs": [],
      "name": "WolfsNFTContractAddress",
      "outputs": [
        {
          "internalType": "address",
          "name": "",
          "type": "address"
        }
      ],
      "stateMutability": "view",
      "type": "function"
    },
    {
      "inputs": [],
      "name": "activateDeactivatePromo",
      "outputs": [
        {
          "internalType": "bool",
          "name": "",
          "type": "bool"
        }
      ],
      "stateMutability": "nonpayable",
      "type": "function"
    },
    {
      "inputs": [
        {
          "internalType": "uint256",
          "name": "_wolfPackId",
          "type": "uint256"
        },
        {
          "internalType": "uint256",
          "name": "_materialId",
          "type": "uint256"
        }
      ],
      "name": "addMaterialToWolfPack",
      "outputs": [
        {
          "internalType": "bool",
          "name": "",
          "type": "bool"
        }
      ],
      "stateMutability": "nonpayable",
      "type": "function"
    },
    {
      "inputs": [
        {
          "internalType": "uint256",
          "name": "_wolfPackId",
          "type": "uint256"
        },
        {
          "internalType": "uint256[]",
          "name": "_materialsIds",
          "type": "uint256[]"
        },
        {
          "internalType": "uint256[]",
          "name": "_wolfsIds",
          "type": "uint256[]"
        }
      ],
      "name": "addMultipleMaterialsAndWolfsToWolfPack",
      "outputs": [
        {
          "internalType": "bool",
          "name": "",
          "type": "bool"
        }
      ],
      "stateMutability": "nonpayable",
      "type": "function"
    },
    {
      "inputs": [
        {
          "internalType": "uint256",
          "name": "_wolfPackId",
          "type": "uint256"
        },
        {
          "internalType": "uint256[]",
          "name": "_materialsIds",
          "type": "uint256[]"
        }
      ],
      "name": "addMultipleMaterialsToWolfPack",
      "outputs": [
        {
          "internalType": "bool",
          "name": "",
          "type": "bool"
        }
      ],
      "stateMutability": "nonpayable",
      "type": "function"
    },
    {
      "inputs": [
        {
          "internalType": "uint256",
          "name": "_wolfPackId",
          "type": "uint256"
        },
        {
          "internalType": "uint256[]",
          "name": "_wolfsIds",
          "type": "uint256[]"
        }
      ],
      "name": "addMultipleWolfsToWolfPack",
      "outputs": [
        {
          "internalType": "bool",
          "name": "",
          "type": "bool"
        }
      ],
      "stateMutability": "nonpayable",
      "type": "function"
    },
    {
      "inputs": [],
      "name": "addWolfOrMaterialCWOLFInDollar",
      "outputs": [
        {
          "internalType": "uint256",
          "name": "",
          "type": "uint256"
        }
      ],
      "stateMutability": "view",
      "type": "function"
    },
    {
      "inputs": [
        {
          "internalType": "uint256",
          "name": "_wolfPackId",
          "type": "uint256"
        },
        {
          "internalType": "uint256",
          "name": "_wolfId",
          "type": "uint256"
        }
      ],
      "name": "addWolfToWolfPack",
      "outputs": [
        {
          "internalType": "bool",
          "name": "",
          "type": "bool"
        }
      ],
      "stateMutability": "nonpayable",
      "type": "function"
    },
    {
      "inputs": [
        {
          "internalType": "address",
          "name": "to",
          "type": "address"
        },
        {
          "internalType": "uint256",
          "name": "tokenId",
          "type": "uint256"
        }
      ],
      "name": "approve",
      "outputs": [],
      "stateMutability": "nonpayable",
      "type": "function"
    },
    {
      "inputs": [
        {
          "internalType": "address",
          "name": "owner",
          "type": "address"
        }
      ],
      "name": "balanceOf",
      "outputs": [
        {
          "internalType": "uint256",
          "name": "",
          "type": "uint256"
        }
      ],
      "stateMutability": "view",
      "type": "function"
    },
    {
      "inputs": [
        {
          "internalType": "uint256",
          "name": "_wolfPackId",
          "type": "uint256"
        },
        {
          "internalType": "uint256",
          "name": "_amountCWOLF",
          "type": "uint256"
        }
      ],
      "name": "buyEnergy",
      "outputs": [],
      "stateMutability": "payable",
      "type": "function"
    },
    {
      "inputs": [
        {
          "internalType": "uint256",
          "name": "_wolfPackId",
          "type": "uint256"
        },
        {
          "internalType": "uint256",
          "name": "_amountOfDays",
          "type": "uint256"
        }
      ],
      "name": "buyWolfPackLink",
      "outputs": [],
      "stateMutability": "payable",
      "type": "function"
    },
    {
      "inputs": [],
      "name": "calculateGasAndCommissions",
      "outputs": [
        {
          "internalType": "uint256[3]",
          "name": "",
          "type": "uint256[3]"
        }
      ],
      "stateMutability": "view",
      "type": "function"
    },
    {
      "inputs": [
        {
          "internalType": "uint256",
          "name": "_wolfPackId",
          "type": "uint256"
        }
      ],
      "name": "calculateInitialWolfPackLife",
      "outputs": [
        {
          "internalType": "uint256",
          "name": "",
          "type": "uint256"
        }
      ],
      "stateMutability": "view",
      "type": "function"
    },
    {
      "inputs": [
        {
          "internalType": "string",
          "name": "newBaseTokenURI",
          "type": "string"
        }
      ],
      "name": "changeBaseTokenURI",
      "outputs": [],
      "stateMutability": "nonpayable",
      "type": "function"
    },
    {
      "inputs": [
        {
          "internalType": "address",
          "name": "_newAddress",
          "type": "address"
        }
      ],
      "name": "changeClaimContractAddress",
      "outputs": [
        {
          "internalType": "bool",
          "name": "",
          "type": "bool"
        }
      ],
      "stateMutability": "nonpayable",
      "type": "function"
    },
    {
      "inputs": [
        {
          "internalType": "address",
          "name": "_newAddress",
          "type": "address"
        }
      ],
      "name": "changeMarketplaceContractAddress",
      "outputs": [
        {
          "internalType": "bool",
          "name": "",
          "type": "bool"
        }
      ],
      "stateMutability": "nonpayable",
      "type": "function"
    },
    {
      "inputs": [
        {
          "internalType": "uint256",
          "name": "_wolfPackId",
          "type": "uint256"
        }
      ],
      "name": "checkWolfPackLink",
      "outputs": [
        {
          "internalType": "bool",
          "name": "",
          "type": "bool"
        }
      ],
      "stateMutability": "view",
      "type": "function"
    },
    {
      "inputs": [
        {
          "internalType": "uint256",
          "name": "_wolfPackId",
          "type": "uint256"
        }
      ],
      "name": "checkWolfPackStatusDeadOrAlive",
      "outputs": [
        {
          "internalType": "bool",
          "name": "",
          "type": "bool"
        }
      ],
      "stateMutability": "view",
      "type": "function"
    },
    {
      "inputs": [
        {
          "internalType": "uint256",
          "name": "_wolfPackId",
          "type": "uint256"
        }
      ],
      "name": "checkWolfPackStatusPromo",
      "outputs": [
        {
          "internalType": "bool",
          "name": "",
          "type": "bool"
        }
      ],
      "stateMutability": "view",
      "type": "function"
    },
    {
      "inputs": [],
      "name": "claimContractAddress",
      "outputs": [
        {
          "internalType": "address",
          "name": "",
          "type": "address"
        }
      ],
      "stateMutability": "view",
      "type": "function"
    },
    {
      "inputs": [],
      "name": "commissionInDollar",
      "outputs": [
        {
          "internalType": "uint256",
          "name": "",
          "type": "uint256"
        }
      ],
      "stateMutability": "view",
      "type": "function"
    },
    {
      "inputs": [],
      "name": "commissionWalletAddress",
      "outputs": [
        {
          "internalType": "address",
          "name": "",
          "type": "address"
        }
      ],
      "stateMutability": "view",
      "type": "function"
    },
    {
      "inputs": [
        {
          "internalType": "uint256[]",
          "name": "_materialsIds",
          "type": "uint256[]"
        },
        {
          "internalType": "uint256[]",
          "name": "_wolfsIds",
          "type": "uint256[]"
        }
      ],
      "name": "createWolfPackAndAddWolfsAndMaterials",
      "outputs": [
        {
          "internalType": "bool",
          "name": "",
          "type": "bool"
        }
      ],
      "stateMutability": "payable",
      "type": "function"
    },
    {
      "inputs": [],
      "name": "dateLastPromoActivation",
      "outputs": [
        {
          "internalType": "uint256",
          "name": "",
          "type": "uint256"
        }
      ],
      "stateMutability": "view",
      "type": "function"
    },
    {
      "inputs": [],
      "name": "daysOfPromo",
      "outputs": [
        {
          "internalType": "uint256",
          "name": "",
          "type": "uint256"
        }
      ],
      "stateMutability": "view",
      "type": "function"
    },
    {
      "inputs": [
        {
          "internalType": "uint256",
          "name": "_wolfPackId",
          "type": "uint256"
        },
        {
          "internalType": "uint256",
          "name": "_amountToDecrease",
          "type": "uint256"
        }
      ],
      "name": "decreaseEnergy",
      "outputs": [],
      "stateMutability": "nonpayable",
      "type": "function"
    },
    {
      "inputs": [
        {
          "internalType": "uint256",
          "name": "_wolfPackId",
          "type": "uint256"
        },
        {
          "internalType": "uint256",
          "name": "_amountToDecrease",
          "type": "uint256"
        }
      ],
      "name": "decreaseWolfPackLife",
      "outputs": [],
      "stateMutability": "nonpayable",
      "type": "function"
    },
    {
      "inputs": [
        {
          "internalType": "uint256",
          "name": "_wolfPackId",
          "type": "uint256"
        },
        {
          "internalType": "uint256",
          "name": "_amountToDecrease",
          "type": "uint256"
        }
      ],
      "name": "decreaseWolfPackLink",
      "outputs": [],
      "stateMutability": "nonpayable",
      "type": "function"
    },
    {
      "inputs": [
        {
          "internalType": "uint256",
          "name": "_wolfPackId",
          "type": "uint256"
        }
      ],
      "name": "destroyWolfPack",
      "outputs": [
        {
          "internalType": "bool",
          "name": "",
          "type": "bool"
        }
      ],
      "stateMutability": "nonpayable",
      "type": "function"
    },
    {
      "inputs": [],
      "name": "energyCommission",
      "outputs": [
        {
          "internalType": "uint256",
          "name": "",
          "type": "uint256"
        }
      ],
      "stateMutability": "view",
      "type": "function"
    },
    {
      "inputs": [],
      "name": "energyPointPriceInCWOLF",
      "outputs": [
        {
          "internalType": "uint256",
          "name": "",
          "type": "uint256"
        }
      ],
      "stateMutability": "view",
      "type": "function"
    },
    {
      "inputs": [],
      "name": "gasToMinter",
      "outputs": [
        {
          "internalType": "uint256",
          "name": "",
          "type": "uint256"
        }
      ],
      "stateMutability": "view",
      "type": "function"
    },
    {
      "inputs": [
        {
          "internalType": "uint256",
          "name": "tokenId",
          "type": "uint256"
        }
      ],
      "name": "getApproved",
      "outputs": [
        {
          "internalType": "address",
          "name": "",
          "type": "address"
        }
      ],
      "stateMutability": "view",
      "type": "function"
    },
    {
      "inputs": [
        {
          "internalType": "uint256",
          "name": "_amountOfDays",
          "type": "uint256"
        }
      ],
      "name": "getConfigurationLinkDays",
      "outputs": [
        {
          "internalType": "bool",
          "name": "",
          "type": "bool"
        }
      ],
      "stateMutability": "view",
      "type": "function"
    },
    {
      "inputs": [
        {
          "internalType": "uint256",
          "name": "_wolfPackId",
          "type": "uint256"
        }
      ],
      "name": "getTotalMaterialsInWolfPack",
      "outputs": [
        {
          "internalType": "uint256",
          "name": "",
          "type": "uint256"
        }
      ],
      "stateMutability": "view",
      "type": "function"
    },
    {
      "inputs": [
        {
          "internalType": "uint256",
          "name": "_wolfPackId",
          "type": "uint256"
        }
      ],
      "name": "getTotalSlotsAvailableInWolfPack",
      "outputs": [
        {
          "internalType": "uint256",
          "name": "",
          "type": "uint256"
        }
      ],
      "stateMutability": "view",
      "type": "function"
    },
    {
      "inputs": [
        {
          "internalType": "uint256",
          "name": "_wolfPackId",
          "type": "uint256"
        }
      ],
      "name": "getTotalSlotsInWolfPack",
      "outputs": [
        {
          "internalType": "uint256",
          "name": "",
          "type": "uint256"
        }
      ],
      "stateMutability": "view",
      "type": "function"
    },
    {
      "inputs": [
        {
          "internalType": "uint256",
          "name": "_wolfPackId",
          "type": "uint256"
        }
      ],
      "name": "getWolfPackLength",
      "outputs": [
        {
          "internalType": "uint256",
          "name": "",
          "type": "uint256"
        }
      ],
      "stateMutability": "view",
      "type": "function"
    },
    {
      "inputs": [
        {
          "internalType": "uint256",
          "name": "_wolfPackId",
          "type": "uint256"
        },
        {
          "internalType": "uint256",
          "name": "_amountToIncrease",
          "type": "uint256"
        }
      ],
      "name": "increaseEnergy",
      "outputs": [],
      "stateMutability": "nonpayable",
      "type": "function"
    },
    {
      "inputs": [
        {
          "internalType": "uint256",
          "name": "_wolfPackId",
          "type": "uint256"
        },
        {
          "internalType": "uint256",
          "name": "_amountToIncrease",
          "type": "uint256"
        }
      ],
      "name": "increaseWolfPackLife",
      "outputs": [],
      "stateMutability": "nonpayable",
      "type": "function"
    },
    {
      "inputs": [
        {
          "internalType": "uint256",
          "name": "_wolfPackId",
          "type": "uint256"
        },
        {
          "internalType": "uint256",
          "name": "_amountToIncrease",
          "type": "uint256"
        }
      ],
      "name": "increaseWolfPackLink",
      "outputs": [],
      "stateMutability": "nonpayable",
      "type": "function"
    },
    {
      "inputs": [
        {
          "internalType": "address",
          "name": "CWOLFContractAddress_",
          "type": "address"
        },
        {
          "internalType": "address",
          "name": "rewardsPoolAddress_",
          "type": "address"
        },
        {
          "internalType": "address",
          "name": "minterWalletAddress_",
          "type": "address"
        },
        {
          "internalType": "address",
          "name": "WolfsNFTContractAddress_",
          "type": "address"
        },
        {
          "internalType": "address",
          "name": "MaterialsNFTContractAddress_",
          "type": "address"
        },
        {
          "internalType": "address",
          "name": "VariablesContractAddress_",
          "type": "address"
        },
        {
          "internalType": "address",
          "name": "commissionWalletAddress_",
          "type": "address"
        }
      ],
      "name": "initialize",
      "outputs": [],
      "stateMutability": "nonpayable",
      "type": "function"
    },
    {
      "inputs": [
        {
          "internalType": "address",
          "name": "owner",
          "type": "address"
        },
        {
          "internalType": "address",
          "name": "operator",
          "type": "address"
        }
      ],
      "name": "isApprovedForAll",
      "outputs": [
        {
          "internalType": "bool",
          "name": "",
          "type": "bool"
        }
      ],
      "stateMutability": "view",
      "type": "function"
    },
    {
      "inputs": [],
      "name": "isInitialized",
      "outputs": [
        {
          "internalType": "bool",
          "name": "",
          "type": "bool"
        }
      ],
      "stateMutability": "view",
      "type": "function"
    },
    {
      "inputs": [],
      "name": "isPromoActive",
      "outputs": [
        {
          "internalType": "bool",
          "name": "",
          "type": "bool"
        }
      ],
      "stateMutability": "view",
      "type": "function"
    },
    {
      "inputs": [
        {
          "internalType": "uint256",
          "name": "",
          "type": "uint256"
        }
      ],
      "name": "lastHunting",
      "outputs": [
        {
          "internalType": "uint256",
          "name": "",
          "type": "uint256"
        }
      ],
      "stateMutability": "view",
      "type": "function"
    },
    {
      "inputs": [],
      "name": "linkCommission",
      "outputs": [
        {
          "internalType": "uint256",
          "name": "",
          "type": "uint256"
        }
      ],
      "stateMutability": "view",
      "type": "function"
    },
    {
      "inputs": [],
      "name": "marketPlaceAddress",
      "outputs": [
        {
          "internalType": "address",
          "name": "",
          "type": "address"
        }
      ],
      "stateMutability": "view",
      "type": "function"
    },
    {
      "inputs": [
        {
          "internalType": "uint256",
          "name": "",
          "type": "uint256"
        },
        {
          "internalType": "uint256",
          "name": "",
          "type": "uint256"
        }
      ],
      "name": "materialsInWolfPack",
      "outputs": [
        {
          "internalType": "uint256",
          "name": "",
          "type": "uint256"
        }
      ],
      "stateMutability": "view",
      "type": "function"
    },
    {
      "inputs": [
        {
          "internalType": "uint256",
          "name": "",
          "type": "uint256"
        }
      ],
      "name": "materialsUsed",
      "outputs": [
        {
          "internalType": "bool",
          "name": "",
          "type": "bool"
        }
      ],
      "stateMutability": "view",
      "type": "function"
    },
    {
      "inputs": [
        {
          "internalType": "address",
          "name": "_to",
          "type": "address"
        }
      ],
      "name": "mintOwner",
      "outputs": [
        {
          "internalType": "uint256",
          "name": "",
          "type": "uint256"
        }
      ],
      "stateMutability": "nonpayable",
      "type": "function"
    },
    {
      "inputs": [],
      "name": "mintWithCWOLF",
      "outputs": [
        {
          "internalType": "uint256",
          "name": "",
          "type": "uint256"
        }
      ],
      "stateMutability": "payable",
      "type": "function"
    },
    {
      "inputs": [],
      "name": "minterWalletAddress",
      "outputs": [
        {
          "internalType": "address",
          "name": "",
          "type": "address"
        }
      ],
      "stateMutability": "view",
      "type": "function"
    },
    {
      "inputs": [],
      "name": "name",
      "outputs": [
        {
          "internalType": "string",
          "name": "",
          "type": "string"
        }
      ],
      "stateMutability": "view",
      "type": "function"
    },
    {
      "inputs": [],
      "name": "owner",
      "outputs": [
        {
          "internalType": "address",
          "name": "",
          "type": "address"
        }
      ],
      "stateMutability": "view",
      "type": "function"
    },
    {
      "inputs": [
        {
          "internalType": "uint256",
          "name": "tokenId",
          "type": "uint256"
        }
      ],
      "name": "ownerOf",
      "outputs": [
        {
          "internalType": "address",
          "name": "",
          "type": "address"
        }
      ],
      "stateMutability": "view",
      "type": "function"
    },
    {
      "inputs": [],
      "name": "pause",
      "outputs": [
        {
          "internalType": "bool",
          "name": "",
          "type": "bool"
        }
      ],
      "stateMutability": "nonpayable",
      "type": "function"
    },
    {
      "inputs": [],
      "name": "paused",
      "outputs": [
        {
          "internalType": "bool",
          "name": "",
          "type": "bool"
        }
      ],
      "stateMutability": "view",
      "type": "function"
    },
    {
      "inputs": [
        {
          "internalType": "uint256",
          "name": "_wolfPackId",
          "type": "uint256"
        }
      ],
      "name": "pointsOfWolfPack",
      "outputs": [
        {
          "internalType": "uint256",
          "name": "",
          "type": "uint256"
        }
      ],
      "stateMutability": "view",
      "type": "function"
    },
    {
      "inputs": [],
      "name": "renounceOwnership",
      "outputs": [],
      "stateMutability": "nonpayable",
      "type": "function"
    },
    {
      "inputs": [],
      "name": "rewardsPoolAddress",
      "outputs": [
        {
          "internalType": "address",
          "name": "",
          "type": "address"
        }
      ],
      "stateMutability": "view",
      "type": "function"
    },
    {
      "inputs": [
        {
          "internalType": "address",
          "name": "from",
          "type": "address"
        },
        {
          "internalType": "address",
          "name": "to",
          "type": "address"
        },
        {
          "internalType": "uint256",
          "name": "tokenId",
          "type": "uint256"
        }
      ],
      "name": "safeTransferFrom",
      "outputs": [],
      "stateMutability": "nonpayable",
      "type": "function"
    },
    {
      "inputs": [
        {
          "internalType": "address",
          "name": "from",
          "type": "address"
        },
        {
          "internalType": "address",
          "name": "to",
          "type": "address"
        },
        {
          "internalType": "uint256",
          "name": "tokenId",
          "type": "uint256"
        },
        {
          "internalType": "bytes",
          "name": "_data",
          "type": "bytes"
        }
      ],
      "name": "safeTransferFrom",
      "outputs": [],
      "stateMutability": "nonpayable",
      "type": "function"
    },
    {
      "inputs": [
        {
          "internalType": "address",
          "name": "operator",
          "type": "address"
        },
        {
          "internalType": "bool",
          "name": "approved",
          "type": "bool"
        }
      ],
      "name": "setApprovalForAll",
      "outputs": [],
      "stateMutability": "nonpayable",
      "type": "function"
    },
    {
      "inputs": [
        {
          "internalType": "uint256",
          "name": "_newDaysOfPromo",
          "type": "uint256"
        }
      ],
      "name": "setDaysOfPromo",
      "outputs": [
        {
          "internalType": "bool",
          "name": "",
          "type": "bool"
        }
      ],
      "stateMutability": "nonpayable",
      "type": "function"
    },
    {
      "inputs": [
        {
          "internalType": "uint256",
          "name": "_wolfPackId",
          "type": "uint256"
        },
        {
          "internalType": "uint256",
          "name": "_lastHunting",
          "type": "uint256"
        }
      ],
      "name": "setLastHunting",
      "outputs": [
        {
          "internalType": "bool",
          "name": "",
          "type": "bool"
        }
      ],
      "stateMutability": "nonpayable",
      "type": "function"
    },
    {
      "inputs": [
        {
          "internalType": "uint256",
          "name": "_wolfPackId",
          "type": "uint256"
        },
        {
          "internalType": "bool",
          "name": "_status",
          "type": "bool"
        }
      ],
      "name": "setPromoStatusForWolfPack",
      "outputs": [
        {
          "internalType": "bool",
          "name": "",
          "type": "bool"
        }
      ],
      "stateMutability": "nonpayable",
      "type": "function"
    },
    {
      "inputs": [],
      "name": "strBaseTokenURI",
      "outputs": [
        {
          "internalType": "string",
          "name": "",
          "type": "string"
        }
      ],
      "stateMutability": "view",
      "type": "function"
    },
    {
      "inputs": [
        {
          "internalType": "bytes4",
          "name": "interfaceId",
          "type": "bytes4"
        }
      ],
      "name": "supportsInterface",
      "outputs": [
        {
          "internalType": "bool",
          "name": "",
          "type": "bool"
        }
      ],
      "stateMutability": "view",
      "type": "function"
    },
    {
      "inputs": [],
      "name": "symbol",
      "outputs": [
        {
          "internalType": "string",
          "name": "",
          "type": "string"
        }
      ],
      "stateMutability": "view",
      "type": "function"
    },
    {
      "inputs": [
        {
          "internalType": "uint256",
          "name": "index",
          "type": "uint256"
        }
      ],
      "name": "tokenByIndex",
      "outputs": [
        {
          "internalType": "uint256",
          "name": "",
          "type": "uint256"
        }
      ],
      "stateMutability": "view",
      "type": "function"
    },
    {
      "inputs": [
        {
          "internalType": "address",
          "name": "owner",
          "type": "address"
        },
        {
          "internalType": "uint256",
          "name": "index",
          "type": "uint256"
        }
      ],
      "name": "tokenOfOwnerByIndex",
      "outputs": [
        {
          "internalType": "uint256",
          "name": "",
          "type": "uint256"
        }
      ],
      "stateMutability": "view",
      "type": "function"
    },
    {
      "inputs": [
        {
          "internalType": "uint256",
          "name": "_tokenId",
          "type": "uint256"
        }
      ],
      "name": "tokenURI",
      "outputs": [
        {
          "internalType": "string",
          "name": "",
          "type": "string"
        }
      ],
      "stateMutability": "view",
      "type": "function"
    },
    {
      "inputs": [],
      "name": "totalSupply",
      "outputs": [
        {
          "internalType": "uint256",
          "name": "",
          "type": "uint256"
        }
      ],
      "stateMutability": "view",
      "type": "function"
    },
    {
      "inputs": [
        {
          "internalType": "address",
          "name": "from",
          "type": "address"
        },
        {
          "internalType": "address",
          "name": "to",
          "type": "address"
        },
        {
          "internalType": "uint256",
          "name": "tokenId",
          "type": "uint256"
        }
      ],
      "name": "transferFrom",
      "outputs": [],
      "stateMutability": "nonpayable",
      "type": "function"
    },
    {
      "inputs": [
        {
          "internalType": "address",
          "name": "newOwner",
          "type": "address"
        }
      ],
      "name": "transferOwnership",
      "outputs": [],
      "stateMutability": "nonpayable",
      "type": "function"
    },
    {
      "inputs": [],
      "name": "unpause",
      "outputs": [
        {
          "internalType": "bool",
          "name": "",
          "type": "bool"
        }
      ],
      "stateMutability": "nonpayable",
      "type": "function"
    },
    {
      "inputs": [
        {
          "internalType": "address",
          "name": "_owner",
          "type": "address"
        }
      ],
      "name": "walletOfOwner",
      "outputs": [
        {
          "internalType": "uint256[]",
          "name": "",
          "type": "uint256[]"
        }
      ],
      "stateMutability": "view",
      "type": "function"
    },
    {
      "inputs": [
        {
          "internalType": "uint256",
          "name": "",
          "type": "uint256"
        }
      ],
      "name": "wolfPackEnergy",
      "outputs": [
        {
          "internalType": "uint256",
          "name": "",
          "type": "uint256"
        }
      ],
      "stateMutability": "view",
      "type": "function"
    },
    {
      "inputs": [
        {
          "internalType": "uint256",
          "name": "",
          "type": "uint256"
        }
      ],
      "name": "wolfPackInPromo",
      "outputs": [
        {
          "internalType": "bool",
          "name": "",
          "type": "bool"
        }
      ],
      "stateMutability": "view",
      "type": "function"
    },
    {
      "inputs": [
        {
          "internalType": "uint256",
          "name": "",
          "type": "uint256"
        }
      ],
      "name": "wolfPackLife",
      "outputs": [
        {
          "internalType": "uint256",
          "name": "",
          "type": "uint256"
        }
      ],
      "stateMutability": "view",
      "type": "function"
    },
    {
      "inputs": [
        {
          "internalType": "uint256",
          "name": "",
          "type": "uint256"
        }
      ],
      "name": "wolfPackLinkDate",
      "outputs": [
        {
          "internalType": "uint256",
          "name": "",
          "type": "uint256"
        }
      ],
      "stateMutability": "view",
      "type": "function"
    },
    {
      "inputs": [
        {
          "internalType": "uint256",
          "name": "",
          "type": "uint256"
        }
      ],
      "name": "wolfPackLinkDays",
      "outputs": [
        {
          "internalType": "uint256",
          "name": "",
          "type": "uint256"
        }
      ],
      "stateMutability": "view",
      "type": "function"
    },
    {
      "inputs": [
        {
          "internalType": "uint256",
          "name": "",
          "type": "uint256"
        },
        {
          "internalType": "uint256",
          "name": "",
          "type": "uint256"
        }
      ],
      "name": "wolfsInWolfPack",
      "outputs": [
        {
          "internalType": "uint256",
          "name": "",
          "type": "uint256"
        }
      ],
      "stateMutability": "view",
      "type": "function"
    },
    {
      "inputs": [
        {
          "internalType": "uint256",
          "name": "",
          "type": "uint256"
        }
      ],
      "name": "wolfsUsed",
      "outputs": [
        {
          "internalType": "bool",
          "name": "",
          "type": "bool"
        }
      ],
      "stateMutability": "view",
      "type": "function"
    }
  ],
  "transactionHash": "0x054739ac29d0c6091512517d7624352e45733f86e640dc1c5bc956f0582759ea",
  "args": [],
  "solcInputHash": "06e007c94bd4bdc65844a831d4ab7746",
  "bytecode": "0x60806040523480156200001157600080fd5b50600054610100900460ff16806200002c575060005460ff16155b620000945760405162461bcd60e51b815260206004820152602e60248201527f496e697469616c697a61626c653a20636f6e747261637420697320616c72656160448201526d191e481a5b9a5d1a585b1a5e995960921b606482015260840160405180910390fd5b600054610100900460ff16158015620000b7576000805461ffff19166101011790555b8015620000ca576000805461ff00191690555b50615d4880620000db6000396000f3fe6080604052600436106104e15760003560e01c8063789381e511610281578063b95e84ef1161015a578063d706199b116100cc578063ed27107b11610085578063ed27107b14610fc6578063f055a10614610fe7578063f2fde38b14611017578063f83d802414611037578063f98e4afe14611057578063f9cba78e1461107757600080fd5b8063d706199b14610eca578063dcd13a6014610eeb578063e40e97a714610f1c578063e524da0d14610f3c578063e985e9c514610f5d578063ec58a70b14610fa657600080fd5b8063c98161261161011e578063c981612614610e1c578063ca84763314610e3d578063ca9be5ac14610e52578063cce8505514610e83578063cdb6d52d14610ea4578063d194b13714610eb757600080fd5b8063b95e84ef14610d83578063ba5d72b214610da4578063bd0e346c14610dc4578063be9d93f714610ddb578063c87b56dd14610dfc57600080fd5b80639f6223ee116101f3578063a64c1f80116101b7578063a64c1f8014610cbe578063a90df25414610cd3578063abee8f0414610cf3578063b191d86914610d13578063b811568314610d41578063b88d4fde14610d6357600080fd5b80639f6223ee14610c345780639f6454e214610c4b5780639fbeae7d14610c6b578063a180b08314610c8b578063a22cb46514610c9e57600080fd5b806384bfa2bf1161024557806384bfa2bf14610b8457806387e7147914610bb257806388e5205114610bc95780638b8ab6e614610be05780638da5cb5b14610c0057806395d89b4114610c1f57600080fd5b8063789381e514610aec5780637af9439e14610b075780637d74d55f14610b1e578063836a0c8a14610b3e5780638456cb5914610b6f57600080fd5b80633bebcabb116103be57806349c6421d116103305780636352211e116102e95780636352211e14610a4f578063667ff43a14610a6f5780636bf881da14610a8f5780636d7310cb14610a9757806370a0823114610ab7578063715018a614610ad757600080fd5b806349c6421d1461098f5780634f6ccce7146109af5780634f9cfb7b146109cf5780635a4182d614610a005780635c975abb14610a1757806361f80f8814610a2f57600080fd5b806343118c5e1161038257806343118c5e146108a55780634321b9be146108d3578063438b6300146108f457806343dd5eb11461092157806344dd6485146109415780634859a1ee1461096f57600080fd5b80633bebcabb146108025780633f4ba83a14610822578063404d298c1461083757806341be29011461086557806342842e0e1461088557600080fd5b806320555067116104575780632f745c591161041b5780632f745c59146107475780632f9e9eaf14610767578063358764761461078757806335c2401e146107a7578063392e53cd146107c75780633a90efed146107e257600080fd5b8063205550671461069757806323b872dd146106c5578063266108c9146106e55780632a045cf4146107065780632a40c82f1461072757600080fd5b806309565367116104a957806309565367146105cb578063095ea7b3146105eb5780630f352bc71461060d57806311b031f71461063b57806318160ddd146106525780631c395afc1461066757600080fd5b806301f042af146104e657806301ffc9a7146105105780630221585c1461054057806306fdde0314610571578063081812fc14610593575b600080fd5b3480156104f257600080fd5b506104fd6101605481565b6040519081526020015b60405180910390f35b34801561051c57600080fd5b5061053061052b36600461522e565b611097565b6040519015158152602001610507565b34801561054c57600080fd5b5061053061055b36600461524b565b61016f6020526000908152604090205460ff1681565b34801561057d57600080fd5b506105866110c2565b60405161050791906152bc565b34801561059f57600080fd5b506105b36105ae36600461524b565b611154565b6040516001600160a01b039091168152602001610507565b3480156105d757600080fd5b506104fd6105e63660046152cf565b6111ee565b3480156105f757600080fd5b5061060b610606366004615306565b611220565b005b34801561061957600080fd5b506104fd61062836600461524b565b6101736020526000908152604090205481565b34801561064757600080fd5b506104fd6101635481565b34801561065e57600080fd5b506099546104fd565b34801561067357600080fd5b5061053061068236600461524b565b60009081526101716020526040902054151590565b3480156106a357600080fd5b506104fd6106b236600461524b565b600090815261016d602052604090205490565b3480156106d157600080fd5b5061060b6106e0366004615332565b611336565b3480156106f157600080fd5b50610166546105b3906001600160a01b031681565b34801561071257600080fd5b50610168546105b3906001600160a01b031681565b34801561073357600080fd5b5061060b6107423660046152cf565b611367565b34801561075357600080fd5b506104fd610762366004615306565b61145d565b34801561077357600080fd5b506105306107823660046152cf565b6114f3565b34801561079357600080fd5b5061060b6107a2366004615373565b6118af565b3480156107b357600080fd5b506105306107c23660046154df565b611aed565b3480156107d357600080fd5b5061015f546105309060ff1681565b3480156107ee57600080fd5b5061060b6107fd3660046152cf565b611b3a565b34801561080e57600080fd5b5061053061081d3660046154df565b611c19565b34801561082e57600080fd5b50610530611cc5565b34801561084357600080fd5b506104fd61085236600461524b565b6101756020526000908152604090205481565b34801561087157600080fd5b50610530610880366004615534565b611d01565b34801561089157600080fd5b5061060b6108a0366004615332565b611d6e565b3480156108b157600080fd5b506104fd6108c036600461524b565b6101726020526000908152604090205481565b3480156108df57600080fd5b5061017e546105b3906001600160a01b031681565b34801561090057600080fd5b5061091461090f366004615564565b611d89565b6040516105079190615581565b34801561092d57600080fd5b5061053061093c366004615564565b611e2b565b34801561094d57600080fd5b506104fd61095c36600461524b565b600090815261016e602052604090205490565b34801561097b57600080fd5b5061053061098a3660046152cf565b611e7f565b34801561099b57600080fd5b506104fd6109aa3660046152cf565b611eb1565b3480156109bb57600080fd5b506104fd6109ca36600461524b565b611ece565b3480156109db57600080fd5b506105306109ea36600461524b565b6000908152610178602052604090205460ff1690565b348015610a0c57600080fd5b506104fd61017c5481565b348015610a2357600080fd5b5060c95460ff16610530565b348015610a3b57600080fd5b506104fd610a4a366004615564565b611f61565b348015610a5b57600080fd5b506105b3610a6a36600461524b565b611f98565b348015610a7b57600080fd5b50610530610a8a366004615564565b61200f565b6104fd612063565b348015610aa357600080fd5b506104fd610ab236600461524b565b6122b5565b348015610ac357600080fd5b506104fd610ad2366004615564565b612409565b348015610ae357600080fd5b5061060b612490565b348015610af857600080fd5b50610177546105309060ff1681565b348015610b1357600080fd5b506104fd6101795481565b348015610b2a57600080fd5b506104fd610b3936600461524b565b6124c7565b348015610b4a57600080fd5b50610530610b5936600461524b565b6101786020526000908152604090205460ff1681565b348015610b7b57600080fd5b506105306125f8565b348015610b9057600080fd5b506104fd610b9f36600461524b565b6101746020526000908152604090205481565b348015610bbe57600080fd5b506104fd6101625481565b348015610bd557600080fd5b506104fd61017a5481565b348015610bec57600080fd5b5061060b610bfb3660046152cf565b61262e565b348015610c0c57600080fd5b5061012d546001600160a01b03166105b3565b348015610c2b57600080fd5b506105866126e6565b348015610c4057600080fd5b506104fd61017b5481565b348015610c5757600080fd5b506104fd610c6636600461524b565b6126f5565b348015610c7757600080fd5b50610530610c863660046152cf565b61289a565b610530610c993660046155c5565b612e45565b348015610caa57600080fd5b5061060b610cb936600461561f565b612e67565b348015610cca57600080fd5b50610530612e72565b348015610cdf57600080fd5b50610530610cee36600461564d565b612ecf565b348015610cff57600080fd5b5061060b610d0e3660046152cf565b612f3b565b348015610d1f57600080fd5b506104fd610d2e36600461524b565b6101716020526000908152604090205481565b348015610d4d57600080fd5b50610d56612ff3565b60405161050791906156ba565b348015610d6f57600080fd5b5061060b610d7e366004615743565b6130ac565b348015610d8f57600080fd5b5061016a546105b3906001600160a01b031681565b348015610db057600080fd5b5061060b610dbf3660046152cf565b6130e4565b348015610dd057600080fd5b506104fd6101615481565b348015610de757600080fd5b50610169546105b3906001600160a01b031681565b348015610e0857600080fd5b50610586610e1736600461524b565b61316c565b348015610e2857600080fd5b50610165546105b3906001600160a01b031681565b348015610e4957600080fd5b50610586613202565b348015610e5e57600080fd5b50610530610e6d36600461524b565b6000908152610176602052604090205460ff1690565b348015610e8f57600080fd5b50610164546105b3906001600160a01b031681565b61060b610eb23660046152cf565b613291565b61060b610ec53660046152cf565b6136ad565b348015610ed657600080fd5b50610167546105b3906001600160a01b031681565b348015610ef757600080fd5b50610530610f0636600461524b565b6101706020526000908152604090205460ff1681565b348015610f2857600080fd5b5061060b610f373660046157c3565b613b54565b348015610f4857600080fd5b5061016b546105b3906001600160a01b031681565b348015610f6957600080fd5b50610530610f7836600461580c565b6001600160a01b039182166000908152606a6020908152604080832093909416825291909152205460ff1690565b348015610fb257600080fd5b506104fd610fc136600461524b565b613b93565b348015610fd257600080fd5b5061017d546105b3906001600160a01b031681565b348015610ff357600080fd5b5061053061100236600461524b565b60009081526101736020526040902054151590565b34801561102357600080fd5b5061060b611032366004615564565b613d90565b34801561104357600080fd5b5061053061105236600461524b565b613e2c565b34801561106357600080fd5b5061060b6110723660046152cf565b613e64565b34801561108357600080fd5b5061053061109236600461524b565b613eec565b60006001600160e01b0319821663780e9d6360e01b14806110bc57506110bc826141e8565b92915050565b6060606580546110d19061583a565b80601f01602080910402602001604051908101604052809291908181526020018280546110fd9061583a565b801561114a5780601f1061111f5761010080835404028352916020019161114a565b820191906000526020600020905b81548152906001019060200180831161112d57829003601f168201915b5050505050905090565b6000818152606760205260408120546001600160a01b03166111d25760405162461bcd60e51b815260206004820152602c60248201527f4552433732313a20617070726f76656420717565727920666f72206e6f6e657860448201526b34b9ba32b73a103a37b5b2b760a11b60648201526084015b60405180910390fd5b506000908152606960205260409020546001600160a01b031690565b61016e602052816000526040600020818154811061120b57600080fd5b90600052602060002001600091509150505481565b600061122b82611f98565b9050806001600160a01b0316836001600160a01b031614156112995760405162461bcd60e51b815260206004820152602160248201527f4552433732313a20617070726f76616c20746f2063757272656e74206f776e656044820152603960f91b60648201526084016111c9565b336001600160a01b03821614806112b557506112b58133610f78565b6113275760405162461bcd60e51b815260206004820152603860248201527f4552433732313a20617070726f76652063616c6c6572206973206e6f74206f7760448201527f6e6572206e6f7220617070726f76656420666f7220616c6c000000000000000060648201526084016111c9565b6113318383614238565b505050565b61134033826142a6565b61135c5760405162461bcd60e51b81526004016111c990615875565b611331838383614399565b610167546001600160a01b031633146113925760405162461bcd60e51b81526004016111c9906158c6565b600082815261017260205260409020548111156114005760405162461bcd60e51b815260206004820152602660248201527f416d6f756e7420746f2064656372656173652067726561746572207468616e20604482015265656e6572677960d01b60648201526084016111c9565b6000828152610172602052604090205461141b908290615913565b60008381526101726020526040808220929092559051829184917f6ac68454268e9a206f1d66786ad0a274127f926af0a82a5094b83c51262a81db9190a35050565b600061146883612409565b82106114ca5760405162461bcd60e51b815260206004820152602b60248201527f455243373231456e756d657261626c653a206f776e657220696e646578206f7560448201526a74206f6620626f756e647360a81b60648201526084016111c9565b506001600160a01b03919091166000908152609760209081526040808320938352929052205490565b6000336114ff84611f98565b6001600160a01b0316146115255760405162461bcd60e51b81526004016111c99061592a565b610169546040516331a9108f60e11b81526004810184905233916001600160a01b031690636352211e9060240160206040518083038186803b15801561156a57600080fd5b505afa15801561157e573d6000803e3d6000fd5b505050506040513d601f19601f820116820180604052508101906115a29190615961565b6001600160a01b0316146115f85760405162461bcd60e51b815260206004820152601860248201527f4d6174657269616c2070726f7065727479206661696c6564000000000000000060448201526064016111c9565b600083815261016e602052604090205460141161164a5760405162461bcd60e51b815260206004820152601060248201526f131a5b5a5d080c8c081c995858da195960821b60448201526064016111c9565b6000828152610170602052604090205460ff16156116b65760405162461bcd60e51b815260206004820152602360248201527f4d6174657269616c206973207573656420696e206f7468657220776f6c66207060448201526261636b60e81b60648201526084016111c9565b600083815261016e6020908152604080832080546001808201835591855283852001869055858452610170909252808320805460ff191690921790915561016a5461016054915163674adb7d60e01b815260048101929092526001600160a01b03169063674adb7d9060240160206040518083038186803b15801561173a57600080fd5b505afa15801561174e573d6000803e3d6000fd5b505050506040513d601f19601f82011682018060405250810190611772919061597e565b61016654604051636eb1769f60e11b815233600482015230602482015291925082916001600160a01b039091169063dd62ed3e9060440160206040518083038186803b1580156117c157600080fd5b505afa1580156117d5573d6000803e3d6000fd5b505050506040513d601f19601f820116820180604052508101906117f9919061597e565b10156118175760405162461bcd60e51b81526004016111c990615997565b61016654610164546040516323b872dd60e01b81526001600160a01b03928316926323b872dd926118529233929091169086906004016159c5565b602060405180830381600087803b15801561186c57600080fd5b505af1158015611880573d6000803e3d6000fd5b505050506040513d601f19601f820116820180604052508101906118a491906159e9565b506001949350505050565b600054610100900460ff16806118c8575060005460ff16155b6118e45760405162461bcd60e51b81526004016111c990615a06565b600054610100900460ff16158015611906576000805461ffff19166101011790555b6119586040518060400160405280600c81526020016b15dbdb19941858dadcd3919560a21b8152506040518060400160405280600c81526020016b15dbdb19941858dadcd3919560a21b815250614544565b6119606145cb565b61015f8054600160ff19918216811790925561016680546001600160a01b03199081166001600160a01b038d811691909117909255610164805482168c841617905566038d7ea4c68000610161556703782dace9d90000610163819055670de0b6b3a76400006101625561016b805483168c851617905561016580548316888516179055610168805483168b8516179055610169805483168a851617905561016a8054909216928816929092179055610160556101766020527f8bf58c1e65532c2b9774e3eaf2a457387186c735c828c0d80368a2137b35bbb080548216831790557f0ff2ba3a9145a3f46b78a0296e76f93c1548f9b74f45a3a7c3e505d254d3776580548216831790557f2fb817e73e43a799c7e2bf5389458e16770e008cba8ed9afec73e2816c828a348054821683179055601e60009081527ff2f84cb4b18bdee53cc04d661dbbcb706ba0c27a3c5813b732912af1fc6cc80880549092169092179055611ad1908790614646565b8015611ae3576000805461ff00191690555b5050505050505050565b6000805b8251811015611b3057611b1d84848381518110611b1057611b10615a54565b60200260200101516114f3565b5080611b2881615a6a565b915050611af1565b5060019392505050565b610167546001600160a01b03163314611b655760405162461bcd60e51b81526004016111c9906158c6565b60008281526101716020526040902054811015611bd95760008281526101716020526040902054611b97908290615913565b60008381526101716020526040808220929092559051829184917fd8323ddddc48d6717bdd6081a3fd4b0bc5b7cdc1e8f4f78d68a5b39f645405969190a35050565b600082815261017160205260408082208290555183907fd8323ddddc48d6717bdd6081a3fd4b0bc5b7cdc1e8f4f78d68a5b39f64540596908390a35b5050565b600080611c2584613b93565b60008581526101716020526040902054909150811115611c835760405162461bcd60e51b8152602060048201526019602482015278131a5999481a5cc81b195cdcc81d1a185b881a5b9a5d1a585b603a1b60448201526064016111c9565b60005b83518110156118a457611cb285858381518110611ca557611ca5615a54565b602002602001015161289a565b5080611cbd81615a6a565b915050611c86565b61012d546000906001600160a01b03163314611cf35760405162461bcd60e51b81526004016111c990615a85565b611cfb614660565b50600190565b6000611d1661012d546001600160a01b031690565b6001600160a01b0316336001600160a01b03161480611d405750610167546001600160a01b031633145b611d4957600080fd5b5060009182526101786020526040909120805460ff1916911515919091179055600190565b611331838383604051806020016040528060008152506130ac565b60606000611d9683612409565b905060008167ffffffffffffffff811115611db357611db3615409565b604051908082528060200260200182016040528015611ddc578160200160208202803683370190505b50905060005b82811015611e2357611df4858261145d565b828281518110611e0657611e06615a54565b602090810291909101015280611e1b81615a6a565b915050611de2565b509392505050565b61012d546000906001600160a01b03163314611e595760405162461bcd60e51b81526004016111c990615a85565b5061017e80546001600160a01b0383166001600160a01b03199091161790556001919050565b610167546000906001600160a01b03163314611e9a57600080fd5b506000918252610175602052604090912055600190565b61016d602052816000526040600020818154811061120b57600080fd5b6000611ed960995490565b8210611f3c5760405162461bcd60e51b815260206004820152602c60248201527f455243373231456e756d657261626c653a20676c6f62616c20696e646578206f60448201526b7574206f6620626f756e647360a01b60648201526084016111c9565b60998281548110611f4f57611f4f615a54565b90600052602060002001549050919050565b61012d546000906001600160a01b03163314611f8f5760405162461bcd60e51b81526004016111c990615a85565b6110bc826146f3565b6000818152606760205260408120546001600160a01b0316806110bc5760405162461bcd60e51b815260206004820152602960248201527f4552433732313a206f776e657220717565727920666f72206e6f6e657869737460448201526832b73a103a37b5b2b760b91b60648201526084016111c9565b61012d546000906001600160a01b0316331461203d5760405162461bcd60e51b81526004016111c990615a85565b5061017d80546001600160a01b0383166001600160a01b03199091161790556001919050565b600061207160c95460ff1690565b1561208e5760405162461bcd60e51b81526004016111c990615aba565b600260fb5414156120b15760405162461bcd60e51b81526004016111c990615ae4565b600260fb5561016a54610163546040516365db5d2560e01b815260048101919091526000916001600160a01b0316906365db5d259060240160206040518083038186803b15801561210157600080fd5b505afa158015612115573d6000803e3d6000fd5b505050506040513d601f19601f82011682018060405250810190612139919061597e565b9050806101615461214a9190615b1b565b34101561218a5760405162461bcd60e51b815260206004820152600e60248201526d4e6f7420656e6f7567682067617360901b60448201526064016111c9565b61016b54610161546040516001600160a01b039092169181156108fc0291906000818181858888f193505050501580156121c8573d6000803e3d6000fd5b50610165546040516001600160a01b039091169082156108fc029083906000818181858888f19350505050158015612204573d6000803e3d6000fd5b50336001600160a01b03166108fc82610161546122219190615b1b565b61222b9034615913565b6040518115909202916000818181858888f19350505050158015612253573d6000803e3d6000fd5b50600061225f336146f3565b905060006122706101795442614747565b6101775490915060ff168015612289575061017a548111155b156122a957600082815261017860205260409020805460ff191660011790555b50915050600160fb5590565b600081815261016e602090815260408083208054825181850281018501909352808352849383018282801561230957602002820191906000526020600020905b8154815260200190600101908083116122f5575b50505050509050600080600090505b82518110156123e657600083828151811061233557612335615a54565b60209081029190910101516101695460405163387dd9e960e01b8152600481018390529192506000916001600160a01b039091169063387dd9e99060240160206040518083038186803b15801561238b57600080fd5b505afa15801561239f573d6000803e3d6000fd5b505050506040513d601f19601f820116820180604052508101906123c3919061597e565b90506123cf8185615b1b565b9350505080806123de90615a6a565b915050612318565b50600084815261016d60205260409020546124019082615913565b949350505050565b60006001600160a01b0382166124745760405162461bcd60e51b815260206004820152602a60248201527f4552433732313a2062616c616e636520717565727920666f7220746865207a65604482015269726f206164647265737360b01b60648201526084016111c9565b506001600160a01b031660009081526068602052604090205490565b61012d546001600160a01b031633146124bb5760405162461bcd60e51b81526004016111c990615a85565b6124c56000614775565b565b600081815261016e602090815260408083208054825181850281018501909352808352849383018282801561251b57602002820191906000526020600020905b815481526020019060010190808311612507575b50505050509050600080600090505b8251811015611e2357600083828151811061254757612547615a54565b60209081029190910101516101695460405163387dd9e960e01b8152600481018390529192506000916001600160a01b039091169063387dd9e99060240160206040518083038186803b15801561259d57600080fd5b505afa1580156125b1573d6000803e3d6000fd5b505050506040513d601f19601f820116820180604052508101906125d5919061597e565b90506125e18185615b1b565b9350505080806125f090615a6a565b91505061252a565b61012d546000906001600160a01b031633146126265760405162461bcd60e51b81526004016111c990615a85565b611cfb6147c8565b61017e546001600160a01b031633146126895760405162461bcd60e51b815260206004820152601c60248201527f43616c6c6572206973206e6f7420436c61696d20636f6e74726163740000000060448201526064016111c9565b600082815261017260205260409020546126a4908290615b1b565b60008381526101726020526040808220929092559051829184917f8b5555ccb5516e2e5bcd58b9417ab7149fd2fbb8858f49a6941c12375a48eae59190a35050565b6060606680546110d19061583a565b6000818152606760205260408120546001600160a01b031661274e5760405162461bcd60e51b815260206004820152601260248201527115dbdb19941858dac81b9bdd08195e1a5cdd60721b60448201526064016111c9565b600082815261016d60209081526040808320805482518185028101850190935280835291929091908301828280156127a557602002820191906000526020600020905b815481526020019060010190808311612791575b50505050509050600080600090505b8251811015611e23576101685483516001600160a01b039091169063073073f4908590849081106127e7576127e7615a54565b60200260200101516040518263ffffffff1660e01b815260040161280d91815260200190565b60006040518083038186803b15801561282557600080fd5b505afa158015612839573d6000803e3d6000fd5b505050506040513d6000823e601f3d908101601f191682016040526128619190810190615b33565b60038151811061287357612873615a54565b6020026020010151826128869190615b1b565b91508061289281615a6a565b9150506127b4565b6000336128a684611f98565b6001600160a01b0316146128cc5760405162461bcd60e51b81526004016111c99061592a565b600083815261017460209081526040808320546101739092528220546128f29190614820565b90508042101580612910575060008481526101736020526040902054155b6129555760405162461bcd60e51b81526020600482015260166024820152750426f6e642069732067726561746572207468616e20360541b60448201526064016111c9565b610168546040516331a9108f60e11b81526004810185905233916001600160a01b031690636352211e9060240160206040518083038186803b15801561299a57600080fd5b505afa1580156129ae573d6000803e3d6000fd5b505050506040513d601f19601f820116820180604052508101906129d29190615961565b6001600160a01b031614612a1f5760405162461bcd60e51b815260206004820152601460248201527315dbdb19881c1c9bdc195c9d1e4819985a5b195960621b60448201526064016111c9565b6000612a2a856122b5565b11612a6e5760405162461bcd60e51b815260206004820152601460248201527313585e0818d85c1858da5d1e481c995858da195960621b60448201526064016111c9565b600083815261016f602052604090205460ff1615612ace5760405162461bcd60e51b815260206004820152601f60248201527f576f6c66206973207573656420696e206f7468657220776f6c66207061636b0060448201526064016111c9565b600083815261016f60209081526040808320805460ff1916600190811790915587845261016d835281842080549182018155845291909220018490556101685490516301cc1cfd60e21b8152600481018590526001600160a01b039091169063073073f49060240160006040518083038186803b158015612b4e57600080fd5b505afa158015612b62573d6000803e3d6000fd5b505050506040513d6000823e601f3d908101601f19168201604052612b8a9190810190615b33565b600481518110612b9c57612b9c615a54565b6020908102919091010151610168546040516301cc1cfd60e21b8152600481018690526001600160a01b039091169063073073f49060240160006040518083038186803b158015612bec57600080fd5b505afa158015612c00573d6000803e3d6000fd5b505050506040513d6000823e601f3d908101601f19168201604052612c289190810190615b33565b600381518110612c3a57612c3a615a54565b6020026020010151610171600087815260200190815260200160002054612c619190615b1b565b612c6b9190615b1b565b600085815261017160205260408082209290925561016a5461016054925163674adb7d60e01b815291926001600160a01b039091169163674adb7d91612cb79160040190815260200190565b60206040518083038186803b158015612ccf57600080fd5b505afa158015612ce3573d6000803e3d6000fd5b505050506040513d601f19601f82011682018060405250810190612d07919061597e565b61016654604051636eb1769f60e11b815233600482015230602482015291925082916001600160a01b039091169063dd62ed3e9060440160206040518083038186803b158015612d5657600080fd5b505afa158015612d6a573d6000803e3d6000fd5b505050506040513d601f19601f82011682018060405250810190612d8e919061597e565b1015612dac5760405162461bcd60e51b81526004016111c990615997565b61016654610164546040516323b872dd60e01b81526001600160a01b03928316926323b872dd92612de79233929091169086906004016159c5565b602060405180830381600087803b158015612e0157600080fd5b505af1158015612e15573d6000803e3d6000fd5b505050506040513d601f19601f82011682018060405250810190612e3991906159e9565b50600195945050505050565b600080612e50612063565b9050612e5c8185611aed565b506118a48184611c19565b611c15338383614848565b61012d546000906001600160a01b03163314612ea05760405162461bcd60e51b81526004016111c990615a85565b610177805460ff19811660ff909116151790556101795415612ec3576000612ec5565b425b6101795550600190565b6000805b8351811015612f0557612ef285858381518110611b1057611b10615a54565b5080612efd81615a6a565b915050612ed3565b5060005b82518110156118a457612f2885848381518110611ca557611ca5615a54565b5080612f3381615a6a565b915050612f09565b61017e546001600160a01b03163314612f965760405162461bcd60e51b815260206004820152601c60248201527f43616c6c6572206973206e6f7420436c61696d20636f6e74726163740000000060448201526064016111c9565b60008281526101736020526040902054612fb1908290615b1b565b60008381526101736020526040808220929092559051829184917f0db72b54d9e534ba0c77153fa6363be8e27544b9f6fb0dd8271ce4e614c0528b9190a35050565b612ffb615147565b61016a54610163546040516365db5d2560e01b815260048101919091526000916001600160a01b0316906365db5d259060240160206040518083038186803b15801561304657600080fd5b505afa15801561305a573d6000803e3d6000fd5b505050506040513d601f19601f8201168201806040525081019061307e919061597e565b9050613088615147565b61016154808252602082018390526130a1908390615b1b565b604082015292915050565b6130b633836142a6565b6130d25760405162461bcd60e51b81526004016111c990615875565b6130de84848484614917565b50505050565b610167546001600160a01b0316331461310f5760405162461bcd60e51b81526004016111c9906158c6565b6000828152610171602052604090205461312a908290615b1b565b60008381526101716020526040808220929092559051829184917f942a5d554bafc0765cfcb4910b691da15bf7f84a0b558d4b195d6e7e37df45a39190a35050565b6000818152606760205260409020546060906001600160a01b03166131ca5760405162461bcd60e51b8152602060048201526014602482015273151bdad95b88191bd95cc81b9bdd08195e1a5cdd60621b60448201526064016111c9565b6131d261494a565b6131db8361495a565b6040516020016131ec929190615bc4565b6040516020818303038152906040529050919050565b61016c80546132109061583a565b80601f016020809104026020016040519081016040528092919081815260200182805461323c9061583a565b80156132895780601f1061325e57610100808354040283529160200191613289565b820191906000526020600020905b81548152906001019060200180831161326c57829003601f168201915b505050505081565b600260fb5414156132b45760405162461bcd60e51b81526004016111c990615ae4565b600260fb5560c95460ff16156132dc5760405162461bcd60e51b81526004016111c990615aba565b336132e683611f98565b6001600160a01b0316146133375760405162461bcd60e51b815260206004820152601860248201527713dddb995c881bd98815dbdb19941858dac819985a5b195960421b60448201526064016111c9565b61016a5461017c546040516365db5d2560e01b815260048101919091526000916001600160a01b0316906365db5d259060240160206040518083038186803b15801561338257600080fd5b505afa158015613396573d6000803e3d6000fd5b505050506040513d601f19601f820116820180604052508101906133ba919061597e565b9050803410156133ff5760405162461bcd60e51b815260206004820152601060248201526f4e6f7420656e6f7567682076616c756560801b60448201526064016111c9565b610165546040516001600160a01b039091169082156108fc029083906000818181858888f1935050505015801561343a573d6000803e3d6000fd5b50336108fc6134498334615913565b6040518115909202916000818181858888f19350505050158015613471573d6000803e3d6000fd5b5061016654604051636eb1769f60e11b815233600482015230602482015283916001600160a01b03169063dd62ed3e9060440160206040518083038186803b1580156134bc57600080fd5b505afa1580156134d0573d6000803e3d6000fd5b505050506040513d601f19601f820116820180604052508101906134f4919061597e565b10156135125760405162461bcd60e51b81526004016111c990615997565b6000670de0b6b3a76400008361016a60009054906101000a90046001600160a01b03166001600160a01b0316637dad3ed06040518163ffffffff1660e01b815260040160206040518083038186803b15801561356d57600080fd5b505afa158015613581573d6000803e3d6000fd5b505050506040513d601f19601f820116820180604052508101906135a5919061597e565b6135af9190615bf3565b6135b99190615c28565b61016654610164546040516323b872dd60e01b81529293506001600160a01b03918216926323b872dd926135f692339291169088906004016159c5565b602060405180830381600087803b15801561361057600080fd5b505af1158015613624573d6000803e3d6000fd5b505050506040513d601f19601f8201168201806040525081019061364891906159e9565b5060008481526101726020526040902054613664908290615b1b565b60008581526101726020526040808220929092559051829186917f8b5555ccb5516e2e5bcd58b9417ab7149fd2fbb8858f49a6941c12375a48eae59190a35050600160fb555050565b60c95460ff16156136d05760405162461bcd60e51b81526004016111c990615aba565b600260fb5414156136f35760405162461bcd60e51b81526004016111c990615ae4565b600260fb553361370283611f98565b6001600160a01b0316146137535760405162461bcd60e51b815260206004820152601860248201527713dddb995c881bd98815dbdb19941858dac819985a5b195960421b60448201526064016111c9565b6000818152610176602052604090205460ff1615156001146137b75760405162461bcd60e51b815260206004820152601f60248201527f4572726f723a20416d6f756e74206f66206461797320696e636f72726563740060448201526064016111c9565b61016a5461017b546040516365db5d2560e01b815260048101919091526000916001600160a01b0316906365db5d259060240160206040518083038186803b15801561380257600080fd5b505afa158015613816573d6000803e3d6000fd5b505050506040513d601f19601f8201168201806040525081019061383a919061597e565b90508034101561387f5760405162461bcd60e51b815260206004820152601060248201526f4e6f7420656e6f7567682076616c756560801b60448201526064016111c9565b610165546040516001600160a01b039091169082156108fc029083906000818181858888f193505050501580156138ba573d6000803e3d6000fd5b50336108fc6138c98334615913565b6040518115909202916000818181858888f193505050501580156138f1573d6000803e3d6000fd5b50600061271061390984670de0b6b3a7640000615bf3565b61391590611388615bf3565b61391f9190615c28565b61016a54600086815261016d6020526040812054929350916001600160a01b039091169063674adb7d906139539085615bf3565b6040518263ffffffff1660e01b815260040161397191815260200190565b60206040518083038186803b15801561398957600080fd5b505afa15801561399d573d6000803e3d6000fd5b505050506040513d601f19601f820116820180604052508101906139c1919061597e565b61016654604051636eb1769f60e11b815233600482015230602482015291925082916001600160a01b039091169063dd62ed3e9060440160206040518083038186803b158015613a1057600080fd5b505afa158015613a24573d6000803e3d6000fd5b505050506040513d601f19601f82011682018060405250810190613a48919061597e565b1015613a665760405162461bcd60e51b81526004016111c990615997565b61016654610164546040516323b872dd60e01b81526001600160a01b03928316926323b872dd92613aa19233929091169086906004016159c5565b602060405180830381600087803b158015613abb57600080fd5b505af1158015613acf573d6000803e3d6000fd5b505050506040513d601f19601f82011682018060405250810190613af391906159e9565b5060008581526101736020526040902054613b0f908590615b1b565b600086815261017360205260408082208390555187917f0db72b54d9e534ba0c77153fa6363be8e27544b9f6fb0dd8271ce4e614c0528b91a35050600160fb55505050565b61012d546001600160a01b03163314613b7f5760405162461bcd60e51b81526004016111c990615a85565b8051611c159061016c906020840190615165565b60008060005b600084815261016d6020526040902054811015613d895761016854600085815261016d6020526040902080546001600160a01b039092169163073073f4919084908110613be857613be8615a54565b90600052602060002001546040518263ffffffff1660e01b8152600401613c1191815260200190565b60006040518083038186803b158015613c2957600080fd5b505afa158015613c3d573d6000803e3d6000fd5b505050506040513d6000823e601f3d908101601f19168201604052613c659190810190615b33565b600481518110613c7757613c77615a54565b602002602001015161016860009054906101000a90046001600160a01b03166001600160a01b031663073073f461016d60008881526020019081526020016000208481548110613cc957613cc9615a54565b90600052602060002001546040518263ffffffff1660e01b8152600401613cf291815260200190565b60006040518083038186803b158015613d0a57600080fd5b505afa158015613d1e573d6000803e3d6000fd5b505050506040513d6000823e601f3d908101601f19168201604052613d469190810190615b33565b600381518110613d5857613d58615a54565b602002602001015183613d6b9190615b1b565b613d759190615b1b565b915080613d8181615a6a565b915050613b99565b5092915050565b61012d546001600160a01b03163314613dbb5760405162461bcd60e51b81526004016111c990615a85565b6001600160a01b038116613e205760405162461bcd60e51b815260206004820152602660248201527f4f776e61626c653a206e6577206f776e657220697320746865207a65726f206160448201526564647265737360d01b60648201526084016111c9565b613e2981614775565b50565b61012d546000906001600160a01b03163314613e5a5760405162461bcd60e51b81526004016111c990615a85565b5061017a55600190565b610167546001600160a01b03163314613e8f5760405162461bcd60e51b81526004016111c9906158c6565b60008281526101736020526040902054613eaa908290615913565b60008381526101736020526040808220929092559051829184917fde27eb9694a52f8e94890f6cd51b96eaa2e09881e90fede859663e71cf721ead9190a35050565b600033613ef883611f98565b6001600160a01b031614613f1e5760405162461bcd60e51b81526004016111c99061592a565b6000613f2983613b93565b60008481526101716020526040902054909150811115613f875760405162461bcd60e51b8152602060048201526019602482015278131a5999481a5cc81b195cdcc81d1a185b881a5b9a5d1a585b603a1b60448201526064016111c9565b60008381526101756020526040812054613fa19042614a58565b905060188110156140005760405162461bcd60e51b8152602060048201526024808201527f4c657373207468616e20323420686f7572732066726f6d206c6173742068756e60448201526374696e6760e01b60648201526084016111c9565b600084815261016d602090815260408083208054825181850281018501909352808352919290919083018282801561405757602002820191906000526020600020905b815481526020019060010190808311614043575b5050505050905060005b81518110156140c357600061016f600084848151811061408357614083615a54565b6020026020010151815260200190815260200160002060006101000a81548160ff02191690831515021790555080806140bb90615a6a565b915050614061565b50600085815261016d602052604081206140dc916151e9565b600085815261016e602090815260408083208054825181850281018501909352808352919290919083018282801561413357602002820191906000526020600020905b81548152602001906001019080831161411f575b5050505050905060005b815181101561419f576000610170600084848151811061415f5761415f615a54565b6020026020010151815260200190815260200160002060006101000a81548160ff021916908315150217905550808061419790615a6a565b91505061413d565b50600086815261016e602052604081206141b8916151e9565b600086815261017860205260409020805460ff1916905561016454612e399033906001600160a01b031688611d6e565b60006001600160e01b031982166380ac58cd60e01b148061421957506001600160e01b03198216635b5e139f60e01b145b806110bc57506301ffc9a760e01b6001600160e01b03198316146110bc565b600081815260696020526040902080546001600160a01b0319166001600160a01b038416908117909155819061426d82611f98565b6001600160a01b03167f8c5be1e5ebec7d5bd14f71427d1e84f3dd0314c0f7b2291e5b200ac8c7c3b92560405160405180910390a45050565b6000818152606760205260408120546001600160a01b031661431f5760405162461bcd60e51b815260206004820152602c60248201527f4552433732313a206f70657261746f7220717565727920666f72206e6f6e657860448201526b34b9ba32b73a103a37b5b2b760a11b60648201526084016111c9565b600061432a83611f98565b9050806001600160a01b0316846001600160a01b031614806143655750836001600160a01b031661435a84611154565b6001600160a01b0316145b8061240157506001600160a01b038082166000908152606a602090815260408083209388168352929052205460ff16612401565b826001600160a01b03166143ac82611f98565b6001600160a01b0316146144145760405162461bcd60e51b815260206004820152602960248201527f4552433732313a207472616e73666572206f6620746f6b656e2074686174206960448201526839903737ba1037bbb760b91b60648201526084016111c9565b6001600160a01b0382166144765760405162461bcd60e51b8152602060048201526024808201527f4552433732313a207472616e7366657220746f20746865207a65726f206164646044820152637265737360e01b60648201526084016111c9565b614481838383614a74565b61448c600082614238565b6001600160a01b03831660009081526068602052604081208054600192906144b5908490615913565b90915550506001600160a01b03821660009081526068602052604081208054600192906144e3908490615b1b565b909155505060008181526067602052604080822080546001600160a01b0319166001600160a01b0386811691821790925591518493918716917fddf252ad1be2c89b69c2b068fc378daa952ba7f163c4a11628f55a4df523b3ef91a4505050565b600054610100900460ff168061455d575060005460ff16155b6145795760405162461bcd60e51b81526004016111c990615a06565b600054610100900460ff1615801561459b576000805461ffff19166101011790555b6145a3614b1d565b6145ab614b1d565b6145b58383614b87565b8015611331576000805461ff0019169055505050565b600054610100900460ff16806145e4575060005460ff16155b6146005760405162461bcd60e51b81526004016111c990615a06565b600054610100900460ff16158015614622576000805461ffff19166101011790555b61462a614b1d565b614632614c1c565b8015613e29576000805461ff001916905550565b611c15828260405180602001604052806000815250614c7c565b60c95460ff166146a95760405162461bcd60e51b815260206004820152601460248201527314185d5cd8589b194e881b9bdd081c185d5cd95960621b60448201526064016111c9565b60c9805460ff191690557f5db9ee0a495bf2e6ff9c91a7834c1ba4fdd244a5e8aa4e537bd38aeae4b073aa335b6040516001600160a01b03909116815260200160405180910390a1565b6000806146ff60995490565b905061470b8382614646565b60405181906001600160a01b038516907f7a5477f3d257e8974dc6fb5c008b442d975968577dfad5d1283aa0a488bfab0b90600090a392915050565b60008183111561475657600080fd5b620151806147648484615913565b61476e9190615c28565b9392505050565b61012d80546001600160a01b038381166001600160a01b0319831681179093556040519116919082907f8be0079c531659141344cd1fd0a4f28419497f9722a3daafe3b4186f6b6457e090600090a35050565b60c95460ff16156147eb5760405162461bcd60e51b81526004016111c990615aba565b60c9805460ff191660011790557f62e78cea01bee320cd4e420270b5ea74000d11b0c9f74754ebdbfc544b05a2586146d63390565b600061482f6201518083615bf3565b6148399084615b1b565b9050828110156110bc57600080fd5b816001600160a01b0316836001600160a01b031614156148aa5760405162461bcd60e51b815260206004820152601960248201527f4552433732313a20617070726f766520746f2063616c6c65720000000000000060448201526064016111c9565b6001600160a01b038381166000818152606a6020908152604080832094871680845294825291829020805460ff191686151590811790915591519182527f17307eab39ab6107e8899845ad3d59bd9653f200f220920489ca2b5937696c31910160405180910390a3505050565b614922848484614399565b61492e84848484614caf565b6130de5760405162461bcd60e51b81526004016111c990615c3c565b606061016c80546110d19061583a565b60608161497e5750506040805180820190915260018152600360fc1b602082015290565b8160005b81156149a8578061499281615a6a565b91506149a19050600a83615c28565b9150614982565b60008167ffffffffffffffff8111156149c3576149c3615409565b6040519080825280601f01601f1916602001820160405280156149ed576020820181803683370190505b5090505b841561240157614a02600183615913565b9150614a0f600a86615c8e565b614a1a906030615b1b565b60f81b818381518110614a2f57614a2f615a54565b60200101906001600160f81b031916908160001a905350614a51600a86615c28565b94506149f1565b600081831115614a6757600080fd5b610e106147648484615913565b614a7f838383614db1565b6001600160a01b03831615801590614a9f57506001600160a01b03821615155b8015614ad0575061017d546001600160a01b0316331480614ace5750610164546001600160a01b038381169116145b155b156113315760405162461bcd60e51b815260206004820152601b60248201527f4f6e6c79204357204d61726b6574506c61636520616c6c6f776564000000000060448201526064016111c9565b600054610100900460ff1680614b36575060005460ff16155b614b525760405162461bcd60e51b81526004016111c990615a06565b600054610100900460ff16158015614632576000805461ffff19166101011790558015613e29576000805461ff001916905550565b600054610100900460ff1680614ba0575060005460ff16155b614bbc5760405162461bcd60e51b81526004016111c990615a06565b600054610100900460ff16158015614bde576000805461ffff19166101011790555b8251614bf1906065906020860190615165565b508151614c05906066906020850190615165565b508015611331576000805461ff0019169055505050565b600054610100900460ff1680614c35575060005460ff16155b614c515760405162461bcd60e51b81526004016111c990615a06565b600054610100900460ff16158015614c73576000805461ffff19166101011790555b61463233614775565b614c868383614e69565b614c936000848484614caf565b6113315760405162461bcd60e51b81526004016111c990615c3c565b60006001600160a01b0384163b156118a457604051630a85bd0160e11b81526001600160a01b0385169063150b7a0290614cf3903390899088908890600401615ca2565b602060405180830381600087803b158015614d0d57600080fd5b505af1925050508015614d3d575060408051601f3d908101601f19168201909252614d3a91810190615cdf565b60015b614d97573d808015614d6b576040519150601f19603f3d011682016040523d82523d6000602084013e614d70565b606091505b508051614d8f5760405162461bcd60e51b81526004016111c990615c3c565b805181602001fd5b6001600160e01b031916630a85bd0160e11b149050612401565b6001600160a01b038316614e0c57614e0781609980546000838152609a60205260408120829055600182018355919091527f72a152ddfb8e864297c917af52ea6c1c68aead0fee1a62673fcc7e0c94979d000155565b614e2f565b816001600160a01b0316836001600160a01b031614614e2f57614e2f8382614fb7565b6001600160a01b038216614e465761133181615054565b826001600160a01b0316826001600160a01b031614611331576113318282615103565b6001600160a01b038216614ebf5760405162461bcd60e51b815260206004820181905260248201527f4552433732313a206d696e7420746f20746865207a65726f206164647265737360448201526064016111c9565b6000818152606760205260409020546001600160a01b031615614f245760405162461bcd60e51b815260206004820152601c60248201527f4552433732313a20746f6b656e20616c7265616479206d696e7465640000000060448201526064016111c9565b614f3060008383614a74565b6001600160a01b0382166000908152606860205260408120805460019290614f59908490615b1b565b909155505060008181526067602052604080822080546001600160a01b0319166001600160a01b03861690811790915590518392907fddf252ad1be2c89b69c2b068fc378daa952ba7f163c4a11628f55a4df523b3ef908290a45050565b60006001614fc484612409565b614fce9190615913565b600083815260986020526040902054909150808214615021576001600160a01b03841660009081526097602090815260408083208584528252808320548484528184208190558352609890915290208190555b5060009182526098602090815260408084208490556001600160a01b039094168352609781528383209183525290812055565b60995460009061506690600190615913565b6000838152609a60205260408120546099805493945090928490811061508e5761508e615a54565b9060005260206000200154905080609983815481106150af576150af615a54565b6000918252602080832090910192909255828152609a909152604080822084905585825281205560998054806150e7576150e7615cfc565b6001900381819060005260206000200160009055905550505050565b600061510e83612409565b6001600160a01b039093166000908152609760209081526040808320868452825280832085905593825260989052919091209190915550565b60405180606001604052806003906020820280368337509192915050565b8280546151719061583a565b90600052602060002090601f01602090048101928261519357600085556151d9565b82601f106151ac57805160ff19168380011785556151d9565b828001600101855582156151d9579182015b828111156151d95782518255916020019190600101906151be565b506151e5929150615203565b5090565b5080546000825590600052602060002090810190613e2991905b5b808211156151e55760008155600101615204565b6001600160e01b031981168114613e2957600080fd5b60006020828403121561524057600080fd5b813561476e81615218565b60006020828403121561525d57600080fd5b5035919050565b60005b8381101561527f578181015183820152602001615267565b838111156130de5750506000910152565b600081518084526152a8816020860160208601615264565b601f01601f19169290920160200192915050565b60208152600061476e6020830184615290565b600080604083850312156152e257600080fd5b50508035926020909101359150565b6001600160a01b0381168114613e2957600080fd5b6000806040838503121561531957600080fd5b8235615324816152f1565b946020939093013593505050565b60008060006060848603121561534757600080fd5b8335615352816152f1565b92506020840135615362816152f1565b929592945050506040919091013590565b600080600080600080600060e0888a03121561538e57600080fd5b8735615399816152f1565b965060208801356153a9816152f1565b955060408801356153b9816152f1565b945060608801356153c9816152f1565b935060808801356153d9816152f1565b925060a08801356153e9816152f1565b915060c08801356153f9816152f1565b8091505092959891949750929550565b634e487b7160e01b600052604160045260246000fd5b604051601f8201601f1916810167ffffffffffffffff8111828210171561544857615448615409565b604052919050565b600067ffffffffffffffff82111561546a5761546a615409565b5060051b60200190565b600082601f83011261548557600080fd5b8135602061549a61549583615450565b61541f565b82815260059290921b840181019181810190868411156154b957600080fd5b8286015b848110156154d457803583529183019183016154bd565b509695505050505050565b600080604083850312156154f257600080fd5b82359150602083013567ffffffffffffffff81111561551057600080fd5b61551c85828601615474565b9150509250929050565b8015158114613e2957600080fd5b6000806040838503121561554757600080fd5b82359150602083013561555981615526565b809150509250929050565b60006020828403121561557657600080fd5b813561476e816152f1565b6020808252825182820181905260009190848201906040850190845b818110156155b95783518352928401929184019160010161559d565b50909695505050505050565b600080604083850312156155d857600080fd5b823567ffffffffffffffff808211156155f057600080fd5b6155fc86838701615474565b9350602085013591508082111561561257600080fd5b5061551c85828601615474565b6000806040838503121561563257600080fd5b823561563d816152f1565b9150602083013561555981615526565b60008060006060848603121561566257600080fd5b83359250602084013567ffffffffffffffff8082111561568157600080fd5b61568d87838801615474565b935060408601359150808211156156a357600080fd5b506156b086828701615474565b9150509250925092565b60608101818360005b60038110156156e25781518352602092830192909101906001016156c3565b50505092915050565b600067ffffffffffffffff83111561570557615705615409565b615718601f8401601f191660200161541f565b905082815283838301111561572c57600080fd5b828260208301376000602084830101529392505050565b6000806000806080858703121561575957600080fd5b8435615764816152f1565b93506020850135615774816152f1565b925060408501359150606085013567ffffffffffffffff81111561579757600080fd5b8501601f810187136157a857600080fd5b6157b7878235602084016156eb565b91505092959194509250565b6000602082840312156157d557600080fd5b813567ffffffffffffffff8111156157ec57600080fd5b8201601f810184136157fd57600080fd5b612401848235602084016156eb565b6000806040838503121561581f57600080fd5b823561582a816152f1565b91506020830135615559816152f1565b600181811c9082168061584e57607f821691505b6020821081141561586f57634e487b7160e01b600052602260045260246000fd5b50919050565b60208082526031908201527f4552433732313a207472616e736665722063616c6c6572206973206e6f74206f6040820152701ddb995c881b9bdc88185c1c1c9bdd9959607a1b606082015260800190565b6020808252601e908201527f43616c6c6572206973206e6f742048756e74696e6720636f6e74726163740000604082015260600190565b634e487b7160e01b600052601160045260246000fd5b600082821015615925576159256158fd565b500390565b60208082526018908201527f576f6c665061636b2070726f7065727479206661696c65640000000000000000604082015260600190565b60006020828403121561597357600080fd5b815161476e816152f1565b60006020828403121561599057600080fd5b5051919050565b6020808252601490820152734e6f7420656e6f75676820616c6c6f77616e636560601b604082015260600190565b6001600160a01b039384168152919092166020820152604081019190915260600190565b6000602082840312156159fb57600080fd5b815161476e81615526565b6020808252602e908201527f496e697469616c697a61626c653a20636f6e747261637420697320616c72656160408201526d191e481a5b9a5d1a585b1a5e995960921b606082015260800190565b634e487b7160e01b600052603260045260246000fd5b6000600019821415615a7e57615a7e6158fd565b5060010190565b6020808252818101527f4f776e61626c653a2063616c6c6572206973206e6f7420746865206f776e6572604082015260600190565b60208082526010908201526f14185d5cd8589b194e881c185d5cd95960821b604082015260600190565b6020808252601f908201527f5265656e7472616e637947756172643a207265656e7472616e742063616c6c00604082015260600190565b60008219821115615b2e57615b2e6158fd565b500190565b60006020808385031215615b4657600080fd5b825167ffffffffffffffff811115615b5d57600080fd5b8301601f81018513615b6e57600080fd5b8051615b7c61549582615450565b81815260059190911b82018301908381019087831115615b9b57600080fd5b928401925b82841015615bb957835182529284019290840190615ba0565b979650505050505050565b60008351615bd6818460208801615264565b835190830190615bea818360208801615264565b01949350505050565b6000816000190483118215151615615c0d57615c0d6158fd565b500290565b634e487b7160e01b600052601260045260246000fd5b600082615c3757615c37615c12565b500490565b60208082526032908201527f4552433732313a207472616e7366657220746f206e6f6e20455243373231526560408201527131b2b4bb32b91034b6b83632b6b2b73a32b960711b606082015260800190565b600082615c9d57615c9d615c12565b500690565b6001600160a01b0385811682528416602082015260408101839052608060608201819052600090615cd590830184615290565b9695505050505050565b600060208284031215615cf157600080fd5b815161476e81615218565b634e487b7160e01b600052603160045260246000fdfea26469706673582212204a4cb3c0384df0d9f746120db3c50641ff595326fa62a47ff979bf2549b4dcca64736f6c63430008090033",
  "devdoc": {
    "kind": "dev",
    "methods": {
      "approve(address,uint256)": {
        "details": "See {IERC721-approve}."
      },
      "balanceOf(address)": {
        "details": "See {IERC721-balanceOf}."
      },
      "getApproved(uint256)": {
        "details": "See {IERC721-getApproved}."
      },
      "isApprovedForAll(address,address)": {
        "details": "See {IERC721-isApprovedForAll}."
      },
      "name()": {
        "details": "See {IERC721Metadata-name}."
      },
      "owner()": {
        "details": "Returns the address of the current owner."
      },
      "ownerOf(uint256)": {
        "details": "See {IERC721-ownerOf}."
      },
      "paused()": {
        "details": "Returns true if the contract is paused, and false otherwise."
      },
      "renounceOwnership()": {
        "details": "Leaves the contract without owner. It will not be possible to call `onlyOwner` functions anymore. Can only be called by the current owner. NOTE: Renouncing ownership will leave the contract without an owner, thereby removing any functionality that is only available to the owner."
      },
      "safeTransferFrom(address,address,uint256)": {
        "details": "See {IERC721-safeTransferFrom}."
      },
      "safeTransferFrom(address,address,uint256,bytes)": {
        "details": "See {IERC721-safeTransferFrom}."
      },
      "setApprovalForAll(address,bool)": {
        "details": "See {IERC721-setApprovalForAll}."
      },
      "supportsInterface(bytes4)": {
        "details": "See {IERC165-supportsInterface}."
      },
      "symbol()": {
        "details": "See {IERC721Metadata-symbol}."
      },
      "tokenByIndex(uint256)": {
        "details": "See {IERC721Enumerable-tokenByIndex}."
      },
      "tokenOfOwnerByIndex(address,uint256)": {
        "details": "See {IERC721Enumerable-tokenOfOwnerByIndex}."
      },
      "totalSupply()": {
        "details": "See {IERC721Enumerable-totalSupply}."
      },
      "transferFrom(address,address,uint256)": {
        "details": "See {IERC721-transferFrom}."
      },
      "transferOwnership(address)": {
        "details": "Transfers ownership of the contract to a new account (`newOwner`). Can only be called by the current owner."
      }
    },
    "version": 1
  },
  "userdoc": {
    "kind": "user",
    "methods": {},
    "version": 1
  },
  "storageLayout": {
    "storage": [
      {
        "astId": 131,
        "contract": "contracts/WolfPacksNFT.sol:WolfPacksNFT",
        "label": "_initialized",
        "offset": 0,
        "slot": "0",
        "type": "t_bool"
      },
      {
        "astId": 134,
        "contract": "contracts/WolfPacksNFT.sol:WolfPacksNFT",
        "label": "_initializing",
        "offset": 1,
        "slot": "0",
        "type": "t_bool"
      },
      {
        "astId": 3103,
        "contract": "contracts/WolfPacksNFT.sol:WolfPacksNFT",
        "label": "__gap",
        "offset": 0,
        "slot": "1",
        "type": "t_array(t_uint256)50_storage"
      },
      {
        "astId": 3352,
        "contract": "contracts/WolfPacksNFT.sol:WolfPacksNFT",
        "label": "__gap",
        "offset": 0,
        "slot": "51",
        "type": "t_array(t_uint256)50_storage"
      },
      {
        "astId": 1425,
        "contract": "contracts/WolfPacksNFT.sol:WolfPacksNFT",
        "label": "_name",
        "offset": 0,
        "slot": "101",
        "type": "t_string_storage"
      },
      {
        "astId": 1427,
        "contract": "contracts/WolfPacksNFT.sol:WolfPacksNFT",
        "label": "_symbol",
        "offset": 0,
        "slot": "102",
        "type": "t_string_storage"
      },
      {
        "astId": 1431,
        "contract": "contracts/WolfPacksNFT.sol:WolfPacksNFT",
        "label": "_owners",
        "offset": 0,
        "slot": "103",
        "type": "t_mapping(t_uint256,t_address)"
      },
      {
        "astId": 1435,
        "contract": "contracts/WolfPacksNFT.sol:WolfPacksNFT",
        "label": "_balances",
        "offset": 0,
        "slot": "104",
        "type": "t_mapping(t_address,t_uint256)"
      },
      {
        "astId": 1439,
        "contract": "contracts/WolfPacksNFT.sol:WolfPacksNFT",
        "label": "_tokenApprovals",
        "offset": 0,
        "slot": "105",
        "type": "t_mapping(t_uint256,t_address)"
      },
      {
        "astId": 1445,
        "contract": "contracts/WolfPacksNFT.sol:WolfPacksNFT",
        "label": "_operatorApprovals",
        "offset": 0,
        "slot": "106",
        "type": "t_mapping(t_address,t_mapping(t_address,t_bool))"
      },
      {
        "astId": 2256,
        "contract": "contracts/WolfPacksNFT.sol:WolfPacksNFT",
        "label": "__gap",
        "offset": 0,
        "slot": "107",
        "type": "t_array(t_uint256)44_storage"
      },
      {
        "astId": 2430,
        "contract": "contracts/WolfPacksNFT.sol:WolfPacksNFT",
        "label": "_ownedTokens",
        "offset": 0,
        "slot": "151",
        "type": "t_mapping(t_address,t_mapping(t_uint256,t_uint256))"
      },
      {
        "astId": 2434,
        "contract": "contracts/WolfPacksNFT.sol:WolfPacksNFT",
        "label": "_ownedTokensIndex",
        "offset": 0,
        "slot": "152",
        "type": "t_mapping(t_uint256,t_uint256)"
      },
      {
        "astId": 2437,
        "contract": "contracts/WolfPacksNFT.sol:WolfPacksNFT",
        "label": "_allTokens",
        "offset": 0,
        "slot": "153",
        "type": "t_array(t_uint256)dyn_storage"
      },
      {
        "astId": 2441,
        "contract": "contracts/WolfPacksNFT.sol:WolfPacksNFT",
        "label": "_allTokensIndex",
        "offset": 0,
        "slot": "154",
        "type": "t_mapping(t_uint256,t_uint256)"
      },
      {
        "astId": 2756,
        "contract": "contracts/WolfPacksNFT.sol:WolfPacksNFT",
        "label": "__gap",
        "offset": 0,
        "slot": "155",
        "type": "t_array(t_uint256)46_storage"
      },
      {
        "astId": 192,
        "contract": "contracts/WolfPacksNFT.sol:WolfPacksNFT",
        "label": "_paused",
        "offset": 0,
        "slot": "201",
        "type": "t_bool"
      },
      {
        "astId": 283,
        "contract": "contracts/WolfPacksNFT.sol:WolfPacksNFT",
        "label": "__gap",
        "offset": 0,
        "slot": "202",
        "type": "t_array(t_uint256)49_storage"
      },
      {
        "astId": 298,
        "contract": "contracts/WolfPacksNFT.sol:WolfPacksNFT",
        "label": "_status",
        "offset": 0,
        "slot": "251",
        "type": "t_uint256"
      },
      {
        "astId": 341,
        "contract": "contracts/WolfPacksNFT.sol:WolfPacksNFT",
        "label": "__gap",
        "offset": 0,
        "slot": "252",
        "type": "t_array(t_uint256)49_storage"
      },
      {
        "astId": 10,
        "contract": "contracts/WolfPacksNFT.sol:WolfPacksNFT",
        "label": "_owner",
        "offset": 0,
        "slot": "301",
        "type": "t_address"
      },
      {
        "astId": 124,
        "contract": "contracts/WolfPacksNFT.sol:WolfPacksNFT",
        "label": "__gap",
        "offset": 0,
        "slot": "302",
        "type": "t_array(t_uint256)49_storage"
      },
      {
        "astId": 10270,
        "contract": "contracts/WolfPacksNFT.sol:WolfPacksNFT",
        "label": "isInitialized",
        "offset": 0,
        "slot": "351",
        "type": "t_bool"
      },
      {
        "astId": 10272,
        "contract": "contracts/WolfPacksNFT.sol:WolfPacksNFT",
        "label": "addWolfOrMaterialCWOLFInDollar",
        "offset": 0,
        "slot": "352",
        "type": "t_uint256"
      },
      {
        "astId": 10274,
        "contract": "contracts/WolfPacksNFT.sol:WolfPacksNFT",
        "label": "gasToMinter",
        "offset": 0,
        "slot": "353",
        "type": "t_uint256"
      },
      {
        "astId": 10276,
        "contract": "contracts/WolfPacksNFT.sol:WolfPacksNFT",
        "label": "energyPointPriceInCWOLF",
        "offset": 0,
        "slot": "354",
        "type": "t_uint256"
      },
      {
        "astId": 10278,
        "contract": "contracts/WolfPacksNFT.sol:WolfPacksNFT",
        "label": "commissionInDollar",
        "offset": 0,
        "slot": "355",
        "type": "t_uint256"
      },
      {
        "astId": 10280,
        "contract": "contracts/WolfPacksNFT.sol:WolfPacksNFT",
        "label": "rewardsPoolAddress",
        "offset": 0,
        "slot": "356",
        "type": "t_address"
      },
      {
        "astId": 10282,
        "contract": "contracts/WolfPacksNFT.sol:WolfPacksNFT",
        "label": "commissionWalletAddress",
        "offset": 0,
        "slot": "357",
        "type": "t_address"
      },
      {
        "astId": 10284,
        "contract": "contracts/WolfPacksNFT.sol:WolfPacksNFT",
        "label": "CWOLFContractAddress",
        "offset": 0,
        "slot": "358",
        "type": "t_address"
      },
      {
        "astId": 10286,
        "contract": "contracts/WolfPacksNFT.sol:WolfPacksNFT",
        "label": "HuntingNFTContractAddress",
        "offset": 0,
        "slot": "359",
        "type": "t_address"
      },
      {
        "astId": 10288,
        "contract": "contracts/WolfPacksNFT.sol:WolfPacksNFT",
        "label": "WolfsNFTContractAddress",
        "offset": 0,
        "slot": "360",
        "type": "t_address"
      },
      {
        "astId": 10290,
        "contract": "contracts/WolfPacksNFT.sol:WolfPacksNFT",
        "label": "MaterialsNFTContractAddress",
        "offset": 0,
        "slot": "361",
        "type": "t_address"
      },
      {
        "astId": 10292,
        "contract": "contracts/WolfPacksNFT.sol:WolfPacksNFT",
        "label": "VariablesContractAddress",
        "offset": 0,
        "slot": "362",
        "type": "t_address"
      },
      {
        "astId": 10294,
        "contract": "contracts/WolfPacksNFT.sol:WolfPacksNFT",
        "label": "minterWalletAddress",
        "offset": 0,
        "slot": "363",
        "type": "t_address"
      },
      {
        "astId": 10296,
        "contract": "contracts/WolfPacksNFT.sol:WolfPacksNFT",
        "label": "strBaseTokenURI",
        "offset": 0,
        "slot": "364",
        "type": "t_string_storage"
      },
      {
        "astId": 10301,
        "contract": "contracts/WolfPacksNFT.sol:WolfPacksNFT",
        "label": "wolfsInWolfPack",
        "offset": 0,
        "slot": "365",
        "type": "t_mapping(t_uint256,t_array(t_uint256)dyn_storage)"
      },
      {
        "astId": 10306,
        "contract": "contracts/WolfPacksNFT.sol:WolfPacksNFT",
        "label": "materialsInWolfPack",
        "offset": 0,
        "slot": "366",
        "type": "t_mapping(t_uint256,t_array(t_uint256)dyn_storage)"
      },
      {
        "astId": 10310,
        "contract": "contracts/WolfPacksNFT.sol:WolfPacksNFT",
        "label": "wolfsUsed",
        "offset": 0,
        "slot": "367",
        "type": "t_mapping(t_uint256,t_bool)"
      },
      {
        "astId": 10314,
        "contract": "contracts/WolfPacksNFT.sol:WolfPacksNFT",
        "label": "materialsUsed",
        "offset": 0,
        "slot": "368",
        "type": "t_mapping(t_uint256,t_bool)"
      },
      {
        "astId": 10318,
        "contract": "contracts/WolfPacksNFT.sol:WolfPacksNFT",
        "label": "wolfPackLife",
        "offset": 0,
        "slot": "369",
        "type": "t_mapping(t_uint256,t_uint256)"
      },
      {
        "astId": 10322,
        "contract": "contracts/WolfPacksNFT.sol:WolfPacksNFT",
        "label": "wolfPackEnergy",
        "offset": 0,
        "slot": "370",
        "type": "t_mapping(t_uint256,t_uint256)"
      },
      {
        "astId": 10326,
        "contract": "contracts/WolfPacksNFT.sol:WolfPacksNFT",
        "label": "wolfPackLinkDays",
        "offset": 0,
        "slot": "371",
        "type": "t_mapping(t_uint256,t_uint256)"
      },
      {
        "astId": 10330,
        "contract": "contracts/WolfPacksNFT.sol:WolfPacksNFT",
        "label": "wolfPackLinkDate",
        "offset": 0,
        "slot": "372",
        "type": "t_mapping(t_uint256,t_uint256)"
      },
      {
        "astId": 10334,
        "contract": "contracts/WolfPacksNFT.sol:WolfPacksNFT",
        "label": "lastHunting",
        "offset": 0,
        "slot": "373",
        "type": "t_mapping(t_uint256,t_uint256)"
      },
      {
        "astId": 10338,
        "contract": "contracts/WolfPacksNFT.sol:WolfPacksNFT",
        "label": "configurationLinkDays",
        "offset": 0,
        "slot": "374",
        "type": "t_mapping(t_uint256,t_bool)"
      },
      {
        "astId": 10340,
        "contract": "contracts/WolfPacksNFT.sol:WolfPacksNFT",
        "label": "isPromoActive",
        "offset": 0,
        "slot": "375",
        "type": "t_bool"
      },
      {
        "astId": 10344,
        "contract": "contracts/WolfPacksNFT.sol:WolfPacksNFT",
        "label": "wolfPackInPromo",
        "offset": 0,
        "slot": "376",
        "type": "t_mapping(t_uint256,t_bool)"
      },
      {
        "astId": 10346,
        "contract": "contracts/WolfPacksNFT.sol:WolfPacksNFT",
        "label": "dateLastPromoActivation",
        "offset": 0,
        "slot": "377",
        "type": "t_uint256"
      },
      {
        "astId": 10348,
        "contract": "contracts/WolfPacksNFT.sol:WolfPacksNFT",
        "label": "daysOfPromo",
        "offset": 0,
        "slot": "378",
        "type": "t_uint256"
      },
      {
        "astId": 10350,
        "contract": "contracts/WolfPacksNFT.sol:WolfPacksNFT",
        "label": "linkCommission",
        "offset": 0,
        "slot": "379",
        "type": "t_uint256"
      },
      {
        "astId": 10352,
        "contract": "contracts/WolfPacksNFT.sol:WolfPacksNFT",
        "label": "energyCommission",
        "offset": 0,
        "slot": "380",
        "type": "t_uint256"
      },
      {
        "astId": 10354,
        "contract": "contracts/WolfPacksNFT.sol:WolfPacksNFT",
        "label": "marketPlaceAddress",
        "offset": 0,
        "slot": "381",
        "type": "t_address"
      },
      {
        "astId": 10356,
        "contract": "contracts/WolfPacksNFT.sol:WolfPacksNFT",
        "label": "claimContractAddress",
        "offset": 0,
        "slot": "382",
        "type": "t_address"
      }
    ],
    "types": {
      "t_address": {
        "encoding": "inplace",
        "label": "address",
        "numberOfBytes": "20"
      },
      "t_array(t_uint256)44_storage": {
        "base": "t_uint256",
        "encoding": "inplace",
        "label": "uint256[44]",
        "numberOfBytes": "1408"
      },
      "t_array(t_uint256)46_storage": {
        "base": "t_uint256",
        "encoding": "inplace",
        "label": "uint256[46]",
        "numberOfBytes": "1472"
      },
      "t_array(t_uint256)49_storage": {
        "base": "t_uint256",
        "encoding": "inplace",
        "label": "uint256[49]",
        "numberOfBytes": "1568"
      },
      "t_array(t_uint256)50_storage": {
        "base": "t_uint256",
        "encoding": "inplace",
        "label": "uint256[50]",
        "numberOfBytes": "1600"
      },
      "t_array(t_uint256)dyn_storage": {
        "base": "t_uint256",
        "encoding": "dynamic_array",
        "label": "uint256[]",
        "numberOfBytes": "32"
      },
      "t_bool": {
        "encoding": "inplace",
        "label": "bool",
        "numberOfBytes": "1"
      },
      "t_mapping(t_address,t_bool)": {
        "encoding": "mapping",
        "key": "t_address",
        "label": "mapping(address => bool)",
        "numberOfBytes": "32",
        "value": "t_bool"
      },
      "t_mapping(t_address,t_mapping(t_address,t_bool))": {
        "encoding": "mapping",
        "key": "t_address",
        "label": "mapping(address => mapping(address => bool))",
        "numberOfBytes": "32",
        "value": "t_mapping(t_address,t_bool)"
      },
      "t_mapping(t_address,t_mapping(t_uint256,t_uint256))": {
        "encoding": "mapping",
        "key": "t_address",
        "label": "mapping(address => mapping(uint256 => uint256))",
        "numberOfBytes": "32",
        "value": "t_mapping(t_uint256,t_uint256)"
      },
      "t_mapping(t_address,t_uint256)": {
        "encoding": "mapping",
        "key": "t_address",
        "label": "mapping(address => uint256)",
        "numberOfBytes": "32",
        "value": "t_uint256"
      },
      "t_mapping(t_uint256,t_address)": {
        "encoding": "mapping",
        "key": "t_uint256",
        "label": "mapping(uint256 => address)",
        "numberOfBytes": "32",
        "value": "t_address"
      },
      "t_mapping(t_uint256,t_array(t_uint256)dyn_storage)": {
        "encoding": "mapping",
        "key": "t_uint256",
        "label": "mapping(uint256 => uint256[])",
        "numberOfBytes": "32",
        "value": "t_array(t_uint256)dyn_storage"
      },
      "t_mapping(t_uint256,t_bool)": {
        "encoding": "mapping",
        "key": "t_uint256",
        "label": "mapping(uint256 => bool)",
        "numberOfBytes": "32",
        "value": "t_bool"
      },
      "t_mapping(t_uint256,t_uint256)": {
        "encoding": "mapping",
        "key": "t_uint256",
        "label": "mapping(uint256 => uint256)",
        "numberOfBytes": "32",
        "value": "t_uint256"
      },
      "t_string_storage": {
        "encoding": "bytes",
        "label": "string",
        "numberOfBytes": "32"
      },
      "t_uint256": {
        "encoding": "inplace",
        "label": "uint256",
        "numberOfBytes": "32"
      }
    }
  }
}