{
  "address": "0xc31C4bA0fc194D81faAda4ce68899cD76d36118b",
  "abi": [
    {
      "inputs": [],
      "stateMutability": "nonpayable",
      "type": "constructor"
    },
    {
      "anonymous": false,
      "inputs": [
        {
          "indexed": true,
          "internalType": "address",
          "name": "previousOwner",
          "type": "address"
        },
        {
          "indexed": true,
          "internalType": "address",
          "name": "newOwner",
          "type": "address"
        }
      ],
      "name": "OwnershipTransferred",
      "type": "event"
    },
    {
      "inputs": [
        {
          "internalType": "bytes32",
          "name": "_seed",
          "type": "bytes32"
        }
      ],
      "name": "generateWolf",
      "outputs": [
        {
          "internalType": "uint256",
          "name": "breed",
          "type": "uint256"
        },
        {
          "internalType": "uint256",
          "name": "gender",
          "type": "uint256"
        },
        {
          "internalType": "uint256",
          "name": "level",
          "type": "uint256"
        },
        {
          "internalType": "uint256",
          "name": "attack",
          "type": "uint256"
        },
        {
          "internalType": "uint256",
          "name": "defense",
          "type": "uint256"
        }
      ],
      "stateMutability": "view",
      "type": "function"
    },
    {
      "inputs": [],
      "name": "initialize",
      "outputs": [],
      "stateMutability": "nonpayable",
      "type": "function"
    },
    {
      "inputs": [],
      "name": "isInitialized",
      "outputs": [
        {
          "internalType": "bool",
          "name": "",
          "type": "bool"
        }
      ],
      "stateMutability": "view",
      "type": "function"
    },
    {
      "inputs": [],
      "name": "owner",
      "outputs": [
        {
          "internalType": "address",
          "name": "",
          "type": "address"
        }
      ],
      "stateMutability": "view",
      "type": "function"
    },
    {
      "inputs": [],
      "name": "renounceOwnership",
      "outputs": [],
      "stateMutability": "nonpayable",
      "type": "function"
    },
    {
      "inputs": [
        {
          "internalType": "address",
          "name": "newOwner",
          "type": "address"
        }
      ],
      "name": "transferOwnership",
      "outputs": [],
      "stateMutability": "nonpayable",
      "type": "function"
    },
    {
      "inputs": [
        {
          "internalType": "uint256[][]",
          "name": "_newData",
          "type": "uint256[][]"
        }
      ],
      "name": "updateAttackDefenseLevels",
      "outputs": [
        {
          "internalType": "bool",
          "name": "",
          "type": "bool"
        }
      ],
      "stateMutability": "nonpayable",
      "type": "function"
    },
    {
      "inputs": [
        {
          "internalType": "uint256[]",
          "name": "_newPercentages",
          "type": "uint256[]"
        }
      ],
      "name": "updateAttackDefensePercentages",
      "outputs": [
        {
          "internalType": "bool",
          "name": "",
          "type": "bool"
        }
      ],
      "stateMutability": "nonpayable",
      "type": "function"
    },
    {
      "inputs": [
        {
          "internalType": "uint256[]",
          "name": "_newPercentages",
          "type": "uint256[]"
        }
      ],
      "name": "updateBreedPercentages",
      "outputs": [
        {
          "internalType": "bool",
          "name": "",
          "type": "bool"
        }
      ],
      "stateMutability": "nonpayable",
      "type": "function"
    }
  ],
  "transactionHash": "0xdc3d6c6db6ebb7351a440873e8eaf41fba388555adab36ad0f8e53b5fd028033",
  "args": [],
  "solcInputHash": "786952982a1f79273622dcf6f5d7c87a",
  "bytecode": "0x608060405234801561001057600080fd5b50600054610100900460ff168061002a575060005460ff16155b6100915760405162461bcd60e51b815260206004820152602e60248201527f496e697469616c697a61626c653a20636f6e747261637420697320616c72656160448201526d191e481a5b9a5d1a585b1a5e995960921b606482015260840160405180910390fd5b600054610100900460ff161580156100b3576000805461ffff19166101011790555b80156100c5576000805461ff00191690555b50612039806100d56000396000f3fe608060405234801561001057600080fd5b50600436106100935760003560e01c80638129fc1c116100665780638129fc1c146101125780638da5cb5b1461011a578063da9dd81314610135578063e01cdf8214610148578063f2fde38b1461015b57600080fd5b80631aed4a8314610098578063392e53cd146100d85780634e4056e3146100f5578063715018a614610108575b600080fd5b6100ab6100a6366004611cdb565b61016e565b604080519586526020860194909452928401919091526060830152608082015260a0015b60405180910390f35b6065546100e59060ff1681565b60405190151581526020016100cf565b6100e5610103366004611dca565b6101b3565b61011061043e565b005b610110610474565b6033546040516001600160a01b0390911681526020016100cf565b6100e5610143366004611dca565b61062b565b6100e5610156366004611e07565b610912565b610110610169366004611eb8565b610b15565b60008060008060008061018087610bad565b9050600061018d886111c6565b9050600080600061019d8b611219565b969d959c50959a50985093965091945050505050565b6033546000906001600160a01b031633146101e95760405162461bcd60e51b81526004016101e090611ee8565b60405180910390fd5b815160051461023a5760405162461bcd60e51b815260206004820152601e60248201527f4172726179206c656e677468206d75737420686176652036206974656d73000060448201526064016101e0565b6000805b83518110156102805783818151811061025957610259611f1d565b60200260200101518261026c9190611f49565b91508061027881611f61565b91505061023e565b50806064146102c95760405162461bcd60e51b8152602060048201526015602482015274041727261792073756d206d7573742062652031303605c1b60448201526064016101e0565b826000815181106102dc576102dc611f1d565b602002602001015160676000815481106102f8576102f8611f1d565b90600052602060002001819055508260018151811061031957610319611f1d565b6020026020010151606760018154811061033557610335611f1d565b90600052602060002001819055508260028151811061035657610356611f1d565b6020026020010151606760028154811061037257610372611f1d565b90600052602060002001819055508260038151811061039357610393611f1d565b602002602001015160676003815481106103af576103af611f1d565b9060005260206000200181905550826004815181106103d0576103d0611f1d565b602002602001015160676004815481106103ec576103ec611f1d565b90600052602060002001819055508260058151811061040d5761040d611f1d565b6020026020010151606760058154811061042957610429611f1d565b60009182526020909120015550600192915050565b6033546001600160a01b031633146104685760405162461bcd60e51b81526004016101e090611ee8565b610472600061195e565b565b600054610100900460ff168061048d575060005460ff16155b6104a95760405162461bcd60e51b81526004016101e090611f7c565b600054610100900460ff161580156104cb576000805461ffff19166101011790555b6104d36119b0565b6040805161010081018252600e80825260208201819052918101829052606081018290526080810182905260a0810182905260c0810191909152600260e0820152610522906066906008611bad565b506040805160c0810182526036815260186020820152600c9181019190915260066060820181905260036080830152600160a083015261056491606791611bad565b506040805161010081018252601460c08201908152603160e083015281528151808301835260328152604b6020828101919091528083019190915282518084018452604c8152607181830152828401528251808401845260728152608f818301526060830152825180840184526090815260b8818301526080830152825180840190935260b9835260de9083015260a0810191909152610608906069906006611bfd565b506065805460ff191660011790558015610628576000805461ff00191690555b50565b6033546000906001600160a01b031633146106585760405162461bcd60e51b81526004016101e090611ee8565b81516007146106a95760405162461bcd60e51b815260206004820152601e60248201527f4172726179206c656e677468206d75737420686176652038206974656d73000060448201526064016101e0565b6000805b83518110156106ef578381815181106106c8576106c8611f1d565b6020026020010151826106db9190611f49565b9150806106e781611f61565b9150506106ad565b50806064146107385760405162461bcd60e51b8152602060048201526015602482015274041727261792073756d206d7573742062652031303605c1b60448201526064016101e0565b8260008151811061074b5761074b611f1d565b6020026020010151606660008154811061076757610767611f1d565b90600052602060002001819055508260018151811061078857610788611f1d565b602002602001015160666001815481106107a4576107a4611f1d565b9060005260206000200181905550826002815181106107c5576107c5611f1d565b602002602001015160666002815481106107e1576107e1611f1d565b90600052602060002001819055508260038151811061080257610802611f1d565b6020026020010151606660038154811061081e5761081e611f1d565b90600052602060002001819055508260048151811061083f5761083f611f1d565b6020026020010151606660048154811061085b5761085b611f1d565b90600052602060002001819055508260058151811061087c5761087c611f1d565b6020026020010151606660058154811061089857610898611f1d565b9060005260206000200181905550826006815181106108b9576108b9611f1d565b602002602001015160666006815481106108d5576108d5611f1d565b9060005260206000200181905550826007815181106108f6576108f6611f1d565b6020026020010151606660078154811061042957610429611f1d565b6033546000906001600160a01b0316331461093f5760405162461bcd60e51b81526004016101e090611ee8565b8160008151811061095257610952611f1d565b6020026020010151606960008154811061096e5761096e611f1d565b90600052602060002001908051906020019061098b929190611c50565b508160018151811061099f5761099f611f1d565b602002602001015160696001815481106109bb576109bb611f1d565b9060005260206000200190805190602001906109d8929190611c50565b50816002815181106109ec576109ec611f1d565b60200260200101516069600281548110610a0857610a08611f1d565b906000526020600020019080519060200190610a25929190611c50565b5081600381518110610a3957610a39611f1d565b60200260200101516069600381548110610a5557610a55611f1d565b906000526020600020019080519060200190610a72929190611c50565b5081600481518110610a8657610a86611f1d565b60200260200101516069600481548110610aa257610aa2611f1d565b906000526020600020019080519060200190610abf929190611c50565b5081600581518110610ad357610ad3611f1d565b60200260200101516069600581548110610aef57610aef611f1d565b906000526020600020019080519060200190610b0c929190611c50565b50600192915050565b6033546001600160a01b03163314610b3f5760405162461bcd60e51b81526004016101e090611ee8565b6001600160a01b038116610ba45760405162461bcd60e51b815260206004820152602660248201527f4f776e61626c653a206e6577206f776e657220697320746865207a65726f206160448201526564647265737360d01b60648201526084016101e0565b6106288161195e565b600080610bf083612710604051602001610bd1929190918252602082015260400190565b6040516020818303038152906040528051906020012060016064611a2b565b90506066600081548110610c0657610c06611f1d565b90600052602060002001548111610c205750600092915050565b610c7b60016066805480602002602001604051908101604052809291908181526020018280548015610c7157602002820191906000526020600020905b815481526020019060010190808311610c5d575b5050505050611a94565b81118015610ce15750610cdd60026066805480602002602001604051908101604052809291908181526020018280548015610c715760200282019190600052602060002090815481526020019060010190808311610c5d575050505050611a94565b8111155b15610cef5750600192915050565b610d4860026066805480602002602001604051908101604052809291908181526020018280548015610c715760200282019190600052602060002090815481526020019060010190808311610c5d575050505050611a94565b81118015610dae5750610daa60036066805480602002602001604051908101604052809291908181526020018280548015610c715760200282019190600052602060002090815481526020019060010190808311610c5d575050505050611a94565b8111155b15610dbc5750600292915050565b610e1560036066805480602002602001604051908101604052809291908181526020018280548015610c715760200282019190600052602060002090815481526020019060010190808311610c5d575050505050611a94565b81118015610e7b5750610e7760046066805480602002602001604051908101604052809291908181526020018280548015610c715760200282019190600052602060002090815481526020019060010190808311610c5d575050505050611a94565b8111155b15610e895750600392915050565b610ee260046066805480602002602001604051908101604052809291908181526020018280548015610c715760200282019190600052602060002090815481526020019060010190808311610c5d575050505050611a94565b81118015610f485750610f4460056066805480602002602001604051908101604052809291908181526020018280548015610c715760200282019190600052602060002090815481526020019060010190808311610c5d575050505050611a94565b8111155b15610f565750600492915050565b610faf60056066805480602002602001604051908101604052809291908181526020018280548015610c715760200282019190600052602060002090815481526020019060010190808311610c5d575050505050611a94565b81118015611015575061101160066066805480602002602001604051908101604052809291908181526020018280548015610c715760200282019190600052602060002090815481526020019060010190808311610c5d575050505050611a94565b8111155b156110235750600592915050565b61107c60066066805480602002602001604051908101604052809291908181526020018280548015610c715760200282019190600052602060002090815481526020019060010190808311610c5d575050505050611a94565b811180156110e257506110de60076066805480602002602001604051908101604052809291908181526020018280548015610c715760200282019190600052602060002090815481526020019060010190808311610c5d575050505050611a94565b8111155b156110f05750600692915050565b61114960076066805480602002602001604051908101604052809291908181526020018280548015610c715760200282019190600052602060002090815481526020019060010190808311610c5d575050505050611a94565b811180156111af57506111ab60086066805480602002602001604051908101604052809291908181526020018280548015610c715760200282019190600052602060002090815481526020019060010190808311610c5d575050505050611a94565b8111155b156111bd5750600792915050565b50600092915050565b60008061120983614e206040516020016111ea929190918252602082015260400190565b6040516020818303038152906040528051906020012060006001611a2b565b905080610b0c5750600092915050565b60008060008061122c8560016064611a2b565b60408051602081018890529192508691600091016040516020818303038152906040528051906020012090506000806000606760008154811061127157611271611f1d565b906000526020600020015486116113265761130185606960008154811061129a5761129a611f1d565b906000526020600020016000815481106112b6576112b6611f1d565b906000526020600020015460696000815481106112d5576112d5611f1d565b906000526020600020016001815481106112f1576112f1611f1d565b9060005260206000200154611a2b565b925061131b84606960008154811061129a5761129a611f1d565b91506000905061194e565b61137f60016067805480602002602001604051908101604052809291908181526020018280548015610c715760200282019190600052602060002090815481526020019060010190808311610c5d575050505050611a94565b861180156113e557506113e160026067805480602002602001604051908101604052809291908181526020018280548015610c715760200282019190600052602060002090815481526020019060010190808311610c5d575050505050611a94565b8611155b156114625761143d85606960018154811061140257611402611f1d565b9060005260206000200160008154811061141e5761141e611f1d565b906000526020600020015460696001815481106112d5576112d5611f1d565b925061145784606960018154811061140257611402611f1d565b91506001905061194e565b6114bb60026067805480602002602001604051908101604052809291908181526020018280548015610c715760200282019190600052602060002090815481526020019060010190808311610c5d575050505050611a94565b86118015611521575061151d60036067805480602002602001604051908101604052809291908181526020018280548015610c715760200282019190600052602060002090815481526020019060010190808311610c5d575050505050611a94565b8611155b1561159e5761157985606960028154811061153e5761153e611f1d565b9060005260206000200160008154811061155a5761155a611f1d565b906000526020600020015460696002815481106112d5576112d5611f1d565b925061159384606960028154811061153e5761153e611f1d565b91506002905061194e565b6115f760036067805480602002602001604051908101604052809291908181526020018280548015610c715760200282019190600052602060002090815481526020019060010190808311610c5d575050505050611a94565b8611801561165d575061165960046067805480602002602001604051908101604052809291908181526020018280548015610c715760200282019190600052602060002090815481526020019060010190808311610c5d575050505050611a94565b8611155b156116da576116b585606960038154811061167a5761167a611f1d565b9060005260206000200160008154811061169657611696611f1d565b906000526020600020015460696003815481106112d5576112d5611f1d565b92506116cf84606960038154811061167a5761167a611f1d565b91506003905061194e565b61173360046067805480602002602001604051908101604052809291908181526020018280548015610c715760200282019190600052602060002090815481526020019060010190808311610c5d575050505050611a94565b86118015611799575061179560056067805480602002602001604051908101604052809291908181526020018280548015610c715760200282019190600052602060002090815481526020019060010190808311610c5d575050505050611a94565b8611155b15611816576117f18560696004815481106117b6576117b6611f1d565b906000526020600020016000815481106117d2576117d2611f1d565b906000526020600020015460696004815481106112d5576112d5611f1d565b925061180b8460696004815481106117b6576117b6611f1d565b91506004905061194e565b61186f60056067805480602002602001604051908101604052809291908181526020018280548015610c715760200282019190600052602060002090815481526020019060010190808311610c5d575050505050611a94565b861180156118d557506118d160066067805480602002602001604051908101604052809291908181526020018280548015610c715760200282019190600052602060002090815481526020019060010190808311610c5d575050505050611a94565b8611155b1561194e5761192d8560696005815481106118f2576118f2611f1d565b9060005260206000200160008154811061190e5761190e611f1d565b906000526020600020015460696005815481106112d5576112d5611f1d565b92506119478460696005815481106118f2576118f2611f1d565b9150600590505b9199909850909650945050505050565b603380546001600160a01b038381166001600160a01b0319831681179093556040519116919082907f8be0079c531659141344cd1fd0a4f28419497f9722a3daafe3b4186f6b6457e090600090a35050565b600054610100900460ff16806119c9575060005460ff16155b6119e55760405162461bcd60e51b81526004016101e090611f7c565b600054610100900460ff16158015611a07576000805461ffff19166101011790555b611a0f611ae3565b611a17611b4d565b8015610628576000805461ff001916905550565b600080611a388484611fca565b611a43906001611f49565b905060008186604051602001611a5b91815260200190565b6040516020818303038152906040528051906020012060001c611a7e9190611fe1565b9050611a8a8582611f49565b9695505050505050565b60008060005b84811015611adb57838181518110611ab457611ab4611f1d565b602002602001015182611ac79190611f49565b915080611ad381611f61565b915050611a9a565b509392505050565b600054610100900460ff1680611afc575060005460ff16155b611b185760405162461bcd60e51b81526004016101e090611f7c565b600054610100900460ff16158015611a17576000805461ffff19166101011790558015610628576000805461ff001916905550565b600054610100900460ff1680611b66575060005460ff16155b611b825760405162461bcd60e51b81526004016101e090611f7c565b600054610100900460ff16158015611ba4576000805461ffff19166101011790555b611a173361195e565b828054828255906000526020600020908101928215611bed579160200282015b82811115611bed578251829060ff16905591602001919060010190611bcd565b50611bf9929150611c8b565b5090565b828054828255906000526020600020908101928215611c44579160200282015b82811115611c44578251611c349083906002611bad565b5091602001919060010190611c1d565b50611bf9929150611ca0565b828054828255906000526020600020908101928215611bed579160200282015b82811115611bed578251825591602001919060010190611c70565b5b80821115611bf95760008155600101611c8c565b80821115611bf9576000611cb48282611cbd565b50600101611ca0565b50805460008255906000526020600020908101906106289190611c8b565b600060208284031215611ced57600080fd5b5035919050565b634e487b7160e01b600052604160045260246000fd5b604051601f8201601f1916810167ffffffffffffffff81118282101715611d3357611d33611cf4565b604052919050565b600067ffffffffffffffff821115611d5557611d55611cf4565b5060051b60200190565b600082601f830112611d7057600080fd5b81356020611d85611d8083611d3b565b611d0a565b82815260059290921b84018101918181019086841115611da457600080fd5b8286015b84811015611dbf5780358352918301918301611da8565b509695505050505050565b600060208284031215611ddc57600080fd5b813567ffffffffffffffff811115611df357600080fd5b611dff84828501611d5f565b949350505050565b60006020808385031215611e1a57600080fd5b823567ffffffffffffffff80821115611e3257600080fd5b818501915085601f830112611e4657600080fd5b8135611e54611d8082611d3b565b81815260059190911b83018401908481019088831115611e7357600080fd5b8585015b83811015611eab57803585811115611e8f5760008081fd5b611e9d8b89838a0101611d5f565b845250918601918601611e77565b5098975050505050505050565b600060208284031215611eca57600080fd5b81356001600160a01b0381168114611ee157600080fd5b9392505050565b6020808252818101527f4f776e61626c653a2063616c6c6572206973206e6f7420746865206f776e6572604082015260600190565b634e487b7160e01b600052603260045260246000fd5b634e487b7160e01b600052601160045260246000fd5b60008219821115611f5c57611f5c611f33565b500190565b6000600019821415611f7557611f75611f33565b5060010190565b6020808252602e908201527f496e697469616c697a61626c653a20636f6e747261637420697320616c72656160408201526d191e481a5b9a5d1a585b1a5e995960921b606082015260800190565b600082821015611fdc57611fdc611f33565b500390565b600082611ffe57634e487b7160e01b600052601260045260246000fd5b50069056fea2646970667358221220ba378c8c50069fcd4b3d48ac11c3d4b6db6ef0fa3584166c37fa0cb9941692f364736f6c63430008090033",
  "devdoc": {
    "kind": "dev",
    "methods": {
      "owner()": {
        "details": "Returns the address of the current owner."
      },
      "renounceOwnership()": {
        "details": "Leaves the contract without owner. It will not be possible to call `onlyOwner` functions anymore. Can only be called by the current owner. NOTE: Renouncing ownership will leave the contract without an owner, thereby removing any functionality that is only available to the owner."
      },
      "transferOwnership(address)": {
        "details": "Transfers ownership of the contract to a new account (`newOwner`). Can only be called by the current owner."
      }
    },
    "version": 1
  },
  "userdoc": {
    "kind": "user",
    "methods": {},
    "version": 1
  },
  "storageLayout": {
    "storage": [
      {
        "astId": 131,
        "contract": "contracts/WolfsNFTHelper.sol:WolfsNFTHelper",
        "label": "_initialized",
        "offset": 0,
        "slot": "0",
        "type": "t_bool"
      },
      {
        "astId": 134,
        "contract": "contracts/WolfsNFTHelper.sol:WolfsNFTHelper",
        "label": "_initializing",
        "offset": 1,
        "slot": "0",
        "type": "t_bool"
      },
      {
        "astId": 3038,
        "contract": "contracts/WolfsNFTHelper.sol:WolfsNFTHelper",
        "label": "__gap",
        "offset": 0,
        "slot": "1",
        "type": "t_array(t_uint256)50_storage"
      },
      {
        "astId": 10,
        "contract": "contracts/WolfsNFTHelper.sol:WolfsNFTHelper",
        "label": "_owner",
        "offset": 0,
        "slot": "51",
        "type": "t_address"
      },
      {
        "astId": 124,
        "contract": "contracts/WolfsNFTHelper.sol:WolfsNFTHelper",
        "label": "__gap",
        "offset": 0,
        "slot": "52",
        "type": "t_array(t_uint256)49_storage"
      },
      {
        "astId": 10063,
        "contract": "contracts/WolfsNFTHelper.sol:WolfsNFTHelper",
        "label": "isInitialized",
        "offset": 0,
        "slot": "101",
        "type": "t_bool"
      },
      {
        "astId": 10066,
        "contract": "contracts/WolfsNFTHelper.sol:WolfsNFTHelper",
        "label": "breedPercentages",
        "offset": 0,
        "slot": "102",
        "type": "t_array(t_uint256)dyn_storage"
      },
      {
        "astId": 10069,
        "contract": "contracts/WolfsNFTHelper.sol:WolfsNFTHelper",
        "label": "attackDefensePercentages",
        "offset": 0,
        "slot": "103",
        "type": "t_array(t_uint256)dyn_storage"
      },
      {
        "astId": 10072,
        "contract": "contracts/WolfsNFTHelper.sol:WolfsNFTHelper",
        "label": "attackLevels",
        "offset": 0,
        "slot": "104",
        "type": "t_array(t_uint256)dyn_storage"
      },
      {
        "astId": 10076,
        "contract": "contracts/WolfsNFTHelper.sol:WolfsNFTHelper",
        "label": "attackDefenseLevels",
        "offset": 0,
        "slot": "105",
        "type": "t_array(t_array(t_uint256)dyn_storage)dyn_storage"
      }
    ],
    "types": {
      "t_address": {
        "encoding": "inplace",
        "label": "address",
        "numberOfBytes": "20"
      },
      "t_array(t_array(t_uint256)dyn_storage)dyn_storage": {
        "base": "t_array(t_uint256)dyn_storage",
        "encoding": "dynamic_array",
        "label": "uint256[][]",
        "numberOfBytes": "32"
      },
      "t_array(t_uint256)49_storage": {
        "base": "t_uint256",
        "encoding": "inplace",
        "label": "uint256[49]",
        "numberOfBytes": "1568"
      },
      "t_array(t_uint256)50_storage": {
        "base": "t_uint256",
        "encoding": "inplace",
        "label": "uint256[50]",
        "numberOfBytes": "1600"
      },
      "t_array(t_uint256)dyn_storage": {
        "base": "t_uint256",
        "encoding": "dynamic_array",
        "label": "uint256[]",
        "numberOfBytes": "32"
      },
      "t_bool": {
        "encoding": "inplace",
        "label": "bool",
        "numberOfBytes": "1"
      },
      "t_uint256": {
        "encoding": "inplace",
        "label": "uint256",
        "numberOfBytes": "32"
      }
    }
  }
}