{
  "address": "0x7C01130A21eB24d6512694E47d550F4F550332e8",
  "abi": [
    {
      "inputs": [],
      "stateMutability": "nonpayable",
      "type": "constructor"
    },
    {
      "anonymous": false,
      "inputs": [
        {
          "indexed": true,
          "internalType": "address",
          "name": "owner",
          "type": "address"
        },
        {
          "indexed": true,
          "internalType": "address",
          "name": "approved",
          "type": "address"
        },
        {
          "indexed": true,
          "internalType": "uint256",
          "name": "tokenId",
          "type": "uint256"
        }
      ],
      "name": "Approval",
      "type": "event"
    },
    {
      "anonymous": false,
      "inputs": [
        {
          "indexed": true,
          "internalType": "address",
          "name": "owner",
          "type": "address"
        },
        {
          "indexed": true,
          "internalType": "address",
          "name": "operator",
          "type": "address"
        },
        {
          "indexed": false,
          "internalType": "bool",
          "name": "approved",
          "type": "bool"
        }
      ],
      "name": "ApprovalForAll",
      "type": "event"
    },
    {
      "anonymous": false,
      "inputs": [
        {
          "indexed": true,
          "internalType": "uint256",
          "name": "id",
          "type": "uint256"
        }
      ],
      "name": "GeneratedNFT",
      "type": "event"
    },
    {
      "anonymous": false,
      "inputs": [
        {
          "indexed": true,
          "internalType": "address",
          "name": "to",
          "type": "address"
        },
        {
          "indexed": true,
          "internalType": "uint256",
          "name": "id",
          "type": "uint256"
        }
      ],
      "name": "MintedNFT",
      "type": "event"
    },
    {
      "anonymous": false,
      "inputs": [
        {
          "indexed": true,
          "internalType": "address",
          "name": "previousOwner",
          "type": "address"
        },
        {
          "indexed": true,
          "internalType": "address",
          "name": "newOwner",
          "type": "address"
        }
      ],
      "name": "OwnershipTransferred",
      "type": "event"
    },
    {
      "anonymous": false,
      "inputs": [
        {
          "indexed": false,
          "internalType": "address",
          "name": "account",
          "type": "address"
        }
      ],
      "name": "Paused",
      "type": "event"
    },
    {
      "anonymous": false,
      "inputs": [
        {
          "indexed": true,
          "internalType": "address",
          "name": "from",
          "type": "address"
        },
        {
          "indexed": true,
          "internalType": "address",
          "name": "to",
          "type": "address"
        },
        {
          "indexed": true,
          "internalType": "uint256",
          "name": "tokenId",
          "type": "uint256"
        }
      ],
      "name": "Transfer",
      "type": "event"
    },
    {
      "anonymous": false,
      "inputs": [
        {
          "indexed": false,
          "internalType": "address",
          "name": "account",
          "type": "address"
        }
      ],
      "name": "Unpaused",
      "type": "event"
    },
    {
      "inputs": [],
      "name": "CWOLFContractAddress",
      "outputs": [
        {
          "internalType": "address",
          "name": "",
          "type": "address"
        }
      ],
      "stateMutability": "view",
      "type": "function"
    },
    {
      "inputs": [],
      "name": "VariablesContractAddress",
      "outputs": [
        {
          "internalType": "address",
          "name": "",
          "type": "address"
        }
      ],
      "stateMutability": "view",
      "type": "function"
    },
    {
      "inputs": [],
      "name": "WolfPackNFTContractAddress",
      "outputs": [
        {
          "internalType": "address",
          "name": "",
          "type": "address"
        }
      ],
      "stateMutability": "view",
      "type": "function"
    },
    {
      "inputs": [
        {
          "internalType": "address",
          "name": "to",
          "type": "address"
        },
        {
          "internalType": "uint256",
          "name": "tokenId",
          "type": "uint256"
        }
      ],
      "name": "approve",
      "outputs": [],
      "stateMutability": "nonpayable",
      "type": "function"
    },
    {
      "inputs": [
        {
          "internalType": "uint256",
          "name": "",
          "type": "uint256"
        }
      ],
      "name": "attack",
      "outputs": [
        {
          "internalType": "uint256",
          "name": "",
          "type": "uint256"
        }
      ],
      "stateMutability": "view",
      "type": "function"
    },
    {
      "inputs": [
        {
          "internalType": "address",
          "name": "owner",
          "type": "address"
        }
      ],
      "name": "balanceOf",
      "outputs": [
        {
          "internalType": "uint256",
          "name": "",
          "type": "uint256"
        }
      ],
      "stateMutability": "view",
      "type": "function"
    },
    {
      "inputs": [],
      "name": "boxPriceCWOLFInDollars",
      "outputs": [
        {
          "internalType": "uint256",
          "name": "",
          "type": "uint256"
        }
      ],
      "stateMutability": "view",
      "type": "function"
    },
    {
      "inputs": [
        {
          "internalType": "uint256",
          "name": "",
          "type": "uint256"
        }
      ],
      "name": "breed",
      "outputs": [
        {
          "internalType": "uint256",
          "name": "",
          "type": "uint256"
        }
      ],
      "stateMutability": "view",
      "type": "function"
    },
    {
      "inputs": [
        {
          "internalType": "uint256[]",
          "name": "_wolfsId",
          "type": "uint256[]"
        }
      ],
      "name": "burnMultipleWolfs",
      "outputs": [
        {
          "internalType": "bool",
          "name": "",
          "type": "bool"
        }
      ],
      "stateMutability": "nonpayable",
      "type": "function"
    },
    {
      "inputs": [
        {
          "internalType": "uint256",
          "name": "_tokenId",
          "type": "uint256"
        }
      ],
      "name": "burnWolf",
      "outputs": [
        {
          "internalType": "bool",
          "name": "",
          "type": "bool"
        }
      ],
      "stateMutability": "nonpayable",
      "type": "function"
    },
    {
      "inputs": [
        {
          "internalType": "uint8",
          "name": "_amount",
          "type": "uint8"
        }
      ],
      "name": "calculateGasAndCommissions",
      "outputs": [
        {
          "internalType": "uint256[3]",
          "name": "",
          "type": "uint256[3]"
        }
      ],
      "stateMutability": "view",
      "type": "function"
    },
    {
      "inputs": [
        {
          "internalType": "address",
          "name": "_newAddress",
          "type": "address"
        }
      ],
      "name": "changeAddressCommissionWallet",
      "outputs": [
        {
          "internalType": "bool",
          "name": "",
          "type": "bool"
        }
      ],
      "stateMutability": "nonpayable",
      "type": "function"
    },
    {
      "inputs": [
        {
          "internalType": "address",
          "name": "_newAddress",
          "type": "address"
        }
      ],
      "name": "changeAddressMinterWallet",
      "outputs": [
        {
          "internalType": "bool",
          "name": "",
          "type": "bool"
        }
      ],
      "stateMutability": "nonpayable",
      "type": "function"
    },
    {
      "inputs": [
        {
          "internalType": "address",
          "name": "_newAddress",
          "type": "address"
        }
      ],
      "name": "changeAddressMinterWallet2",
      "outputs": [
        {
          "internalType": "bool",
          "name": "",
          "type": "bool"
        }
      ],
      "stateMutability": "nonpayable",
      "type": "function"
    },
    {
      "inputs": [
        {
          "internalType": "address",
          "name": "_newAddress",
          "type": "address"
        }
      ],
      "name": "changeAddressMinterWallet3",
      "outputs": [
        {
          "internalType": "bool",
          "name": "",
          "type": "bool"
        }
      ],
      "stateMutability": "nonpayable",
      "type": "function"
    },
    {
      "inputs": [
        {
          "internalType": "address",
          "name": "_newAddress",
          "type": "address"
        }
      ],
      "name": "changeAddressMinterWallet4",
      "outputs": [
        {
          "internalType": "bool",
          "name": "",
          "type": "bool"
        }
      ],
      "stateMutability": "nonpayable",
      "type": "function"
    },
    {
      "inputs": [
        {
          "internalType": "string",
          "name": "newBaseTokenURI",
          "type": "string"
        }
      ],
      "name": "changeBaseTokenURI",
      "outputs": [],
      "stateMutability": "nonpayable",
      "type": "function"
    },
    {
      "inputs": [
        {
          "internalType": "address",
          "name": "_newAddress",
          "type": "address"
        }
      ],
      "name": "changeCWOLFContractAddress",
      "outputs": [
        {
          "internalType": "bool",
          "name": "",
          "type": "bool"
        }
      ],
      "stateMutability": "nonpayable",
      "type": "function"
    },
    {
      "inputs": [
        {
          "internalType": "uint256",
          "name": "_newValue",
          "type": "uint256"
        }
      ],
      "name": "changeCommissionInDollars",
      "outputs": [
        {
          "internalType": "bool",
          "name": "",
          "type": "bool"
        }
      ],
      "stateMutability": "nonpayable",
      "type": "function"
    },
    {
      "inputs": [
        {
          "internalType": "uint256",
          "name": "_newValue",
          "type": "uint256"
        }
      ],
      "name": "changeGasToMinter",
      "outputs": [
        {
          "internalType": "bool",
          "name": "",
          "type": "bool"
        }
      ],
      "stateMutability": "nonpayable",
      "type": "function"
    },
    {
      "inputs": [
        {
          "internalType": "address",
          "name": "_newAddress",
          "type": "address"
        }
      ],
      "name": "changeMarketplaceContractAddress",
      "outputs": [
        {
          "internalType": "bool",
          "name": "",
          "type": "bool"
        }
      ],
      "stateMutability": "nonpayable",
      "type": "function"
    },
    {
      "inputs": [
        {
          "internalType": "address",
          "name": "_newAddress",
          "type": "address"
        }
      ],
      "name": "changeRewardsPoolAddress",
      "outputs": [
        {
          "internalType": "bool",
          "name": "",
          "type": "bool"
        }
      ],
      "stateMutability": "nonpayable",
      "type": "function"
    },
    {
      "inputs": [
        {
          "internalType": "address",
          "name": "_newAddress",
          "type": "address"
        }
      ],
      "name": "changeWolfPackNFTContractAddress",
      "outputs": [
        {
          "internalType": "bool",
          "name": "",
          "type": "bool"
        }
      ],
      "stateMutability": "nonpayable",
      "type": "function"
    },
    {
      "inputs": [
        {
          "internalType": "address",
          "name": "_newAddress",
          "type": "address"
        }
      ],
      "name": "changeWolfsNFTHelperContractAddress",
      "outputs": [
        {
          "internalType": "bool",
          "name": "",
          "type": "bool"
        }
      ],
      "stateMutability": "nonpayable",
      "type": "function"
    },
    {
      "inputs": [
        {
          "internalType": "uint256",
          "name": "_newValue",
          "type": "uint256"
        }
      ],
      "name": "changeboxPriceCWOLFInDollars",
      "outputs": [
        {
          "internalType": "bool",
          "name": "",
          "type": "bool"
        }
      ],
      "stateMutability": "nonpayable",
      "type": "function"
    },
    {
      "inputs": [],
      "name": "commissionInDollars",
      "outputs": [
        {
          "internalType": "uint256",
          "name": "",
          "type": "uint256"
        }
      ],
      "stateMutability": "view",
      "type": "function"
    },
    {
      "inputs": [],
      "name": "commissionWalletAddress",
      "outputs": [
        {
          "internalType": "address",
          "name": "",
          "type": "address"
        }
      ],
      "stateMutability": "view",
      "type": "function"
    },
    {
      "inputs": [
        {
          "internalType": "uint256",
          "name": "",
          "type": "uint256"
        }
      ],
      "name": "defense",
      "outputs": [
        {
          "internalType": "uint256",
          "name": "",
          "type": "uint256"
        }
      ],
      "stateMutability": "view",
      "type": "function"
    },
    {
      "inputs": [],
      "name": "gasToMinter",
      "outputs": [
        {
          "internalType": "uint256",
          "name": "",
          "type": "uint256"
        }
      ],
      "stateMutability": "view",
      "type": "function"
    },
    {
      "inputs": [
        {
          "internalType": "uint256",
          "name": "",
          "type": "uint256"
        }
      ],
      "name": "gender",
      "outputs": [
        {
          "internalType": "uint256",
          "name": "",
          "type": "uint256"
        }
      ],
      "stateMutability": "view",
      "type": "function"
    },
    {
      "inputs": [
        {
          "internalType": "uint256[]",
          "name": "_tokenIds",
          "type": "uint256[]"
        },
        {
          "internalType": "bytes32",
          "name": "_seed",
          "type": "bytes32"
        }
      ],
      "name": "generateValuesWolf",
      "outputs": [
        {
          "internalType": "bool",
          "name": "",
          "type": "bool"
        }
      ],
      "stateMutability": "nonpayable",
      "type": "function"
    },
    {
      "inputs": [
        {
          "internalType": "uint256",
          "name": "",
          "type": "uint256"
        }
      ],
      "name": "generated",
      "outputs": [
        {
          "internalType": "bool",
          "name": "",
          "type": "bool"
        }
      ],
      "stateMutability": "view",
      "type": "function"
    },
    {
      "inputs": [
        {
          "internalType": "uint256",
          "name": "tokenId",
          "type": "uint256"
        }
      ],
      "name": "getApproved",
      "outputs": [
        {
          "internalType": "address",
          "name": "",
          "type": "address"
        }
      ],
      "stateMutability": "view",
      "type": "function"
    },
    {
      "inputs": [
        {
          "internalType": "uint256",
          "name": "_tokenId",
          "type": "uint256"
        }
      ],
      "name": "getWolfProperties",
      "outputs": [
        {
          "internalType": "uint256[]",
          "name": "",
          "type": "uint256[]"
        }
      ],
      "stateMutability": "view",
      "type": "function"
    },
    {
      "inputs": [
        {
          "internalType": "address",
          "name": "wolfsNFTHelperContractAddress_",
          "type": "address"
        },
        {
          "internalType": "address",
          "name": "CWOLFContractAddress_",
          "type": "address"
        },
        {
          "internalType": "address",
          "name": "VariablesContractAddress_",
          "type": "address"
        },
        {
          "internalType": "address",
          "name": "rewardsPoolAddress_",
          "type": "address"
        },
        {
          "internalType": "address",
          "name": "minterWalletAddress_",
          "type": "address"
        },
        {
          "internalType": "address",
          "name": "commissionWalletAddress_",
          "type": "address"
        }
      ],
      "name": "initialize",
      "outputs": [],
      "stateMutability": "nonpayable",
      "type": "function"
    },
    {
      "inputs": [
        {
          "internalType": "address",
          "name": "owner",
          "type": "address"
        },
        {
          "internalType": "address",
          "name": "operator",
          "type": "address"
        }
      ],
      "name": "isApprovedForAll",
      "outputs": [
        {
          "internalType": "bool",
          "name": "",
          "type": "bool"
        }
      ],
      "stateMutability": "view",
      "type": "function"
    },
    {
      "inputs": [],
      "name": "isInitialized",
      "outputs": [
        {
          "internalType": "bool",
          "name": "",
          "type": "bool"
        }
      ],
      "stateMutability": "view",
      "type": "function"
    },
    {
      "inputs": [
        {
          "internalType": "uint256",
          "name": "",
          "type": "uint256"
        }
      ],
      "name": "lastHunt",
      "outputs": [
        {
          "internalType": "uint256",
          "name": "",
          "type": "uint256"
        }
      ],
      "stateMutability": "view",
      "type": "function"
    },
    {
      "inputs": [
        {
          "internalType": "uint256",
          "name": "",
          "type": "uint256"
        }
      ],
      "name": "level",
      "outputs": [
        {
          "internalType": "uint256",
          "name": "",
          "type": "uint256"
        }
      ],
      "stateMutability": "view",
      "type": "function"
    },
    {
      "inputs": [],
      "name": "marketPlaceAddress",
      "outputs": [
        {
          "internalType": "address",
          "name": "",
          "type": "address"
        }
      ],
      "stateMutability": "view",
      "type": "function"
    },
    {
      "inputs": [
        {
          "internalType": "address",
          "name": "_to",
          "type": "address"
        }
      ],
      "name": "mintOwner",
      "outputs": [
        {
          "internalType": "uint256",
          "name": "",
          "type": "uint256"
        }
      ],
      "stateMutability": "nonpayable",
      "type": "function"
    },
    {
      "inputs": [
        {
          "internalType": "uint8",
          "name": "_amount",
          "type": "uint8"
        }
      ],
      "name": "mintWithCWOLF",
      "outputs": [
        {
          "internalType": "bool",
          "name": "",
          "type": "bool"
        }
      ],
      "stateMutability": "payable",
      "type": "function"
    },
    {
      "inputs": [],
      "name": "minterWalletAddress",
      "outputs": [
        {
          "internalType": "address",
          "name": "",
          "type": "address"
        }
      ],
      "stateMutability": "view",
      "type": "function"
    },
    {
      "inputs": [],
      "name": "minterWalletAddress2",
      "outputs": [
        {
          "internalType": "address",
          "name": "",
          "type": "address"
        }
      ],
      "stateMutability": "view",
      "type": "function"
    },
    {
      "inputs": [],
      "name": "minterWalletAddress3",
      "outputs": [
        {
          "internalType": "address",
          "name": "",
          "type": "address"
        }
      ],
      "stateMutability": "view",
      "type": "function"
    },
    {
      "inputs": [],
      "name": "minterWalletAddress4",
      "outputs": [
        {
          "internalType": "address",
          "name": "",
          "type": "address"
        }
      ],
      "stateMutability": "view",
      "type": "function"
    },
    {
      "inputs": [],
      "name": "name",
      "outputs": [
        {
          "internalType": "string",
          "name": "",
          "type": "string"
        }
      ],
      "stateMutability": "view",
      "type": "function"
    },
    {
      "inputs": [],
      "name": "owner",
      "outputs": [
        {
          "internalType": "address",
          "name": "",
          "type": "address"
        }
      ],
      "stateMutability": "view",
      "type": "function"
    },
    {
      "inputs": [
        {
          "internalType": "uint256",
          "name": "tokenId",
          "type": "uint256"
        }
      ],
      "name": "ownerOf",
      "outputs": [
        {
          "internalType": "address",
          "name": "",
          "type": "address"
        }
      ],
      "stateMutability": "view",
      "type": "function"
    },
    {
      "inputs": [],
      "name": "pauseContract",
      "outputs": [
        {
          "internalType": "bool",
          "name": "",
          "type": "bool"
        }
      ],
      "stateMutability": "nonpayable",
      "type": "function"
    },
    {
      "inputs": [],
      "name": "paused",
      "outputs": [
        {
          "internalType": "bool",
          "name": "",
          "type": "bool"
        }
      ],
      "stateMutability": "view",
      "type": "function"
    },
    {
      "inputs": [],
      "name": "renounceOwnership",
      "outputs": [],
      "stateMutability": "nonpayable",
      "type": "function"
    },
    {
      "inputs": [],
      "name": "rewardsPoolAddress",
      "outputs": [
        {
          "internalType": "address",
          "name": "",
          "type": "address"
        }
      ],
      "stateMutability": "view",
      "type": "function"
    },
    {
      "inputs": [
        {
          "internalType": "address",
          "name": "from",
          "type": "address"
        },
        {
          "internalType": "address",
          "name": "to",
          "type": "address"
        },
        {
          "internalType": "uint256",
          "name": "tokenId",
          "type": "uint256"
        }
      ],
      "name": "safeTransferFrom",
      "outputs": [],
      "stateMutability": "nonpayable",
      "type": "function"
    },
    {
      "inputs": [
        {
          "internalType": "address",
          "name": "from",
          "type": "address"
        },
        {
          "internalType": "address",
          "name": "to",
          "type": "address"
        },
        {
          "internalType": "uint256",
          "name": "tokenId",
          "type": "uint256"
        },
        {
          "internalType": "bytes",
          "name": "_data",
          "type": "bytes"
        }
      ],
      "name": "safeTransferFrom",
      "outputs": [],
      "stateMutability": "nonpayable",
      "type": "function"
    },
    {
      "inputs": [
        {
          "internalType": "address",
          "name": "operator",
          "type": "address"
        },
        {
          "internalType": "bool",
          "name": "approved",
          "type": "bool"
        }
      ],
      "name": "setApprovalForAll",
      "outputs": [],
      "stateMutability": "nonpayable",
      "type": "function"
    },
    {
      "inputs": [],
      "name": "strBaseTokenURI",
      "outputs": [
        {
          "internalType": "string",
          "name": "",
          "type": "string"
        }
      ],
      "stateMutability": "view",
      "type": "function"
    },
    {
      "inputs": [
        {
          "internalType": "bytes4",
          "name": "interfaceId",
          "type": "bytes4"
        }
      ],
      "name": "supportsInterface",
      "outputs": [
        {
          "internalType": "bool",
          "name": "",
          "type": "bool"
        }
      ],
      "stateMutability": "view",
      "type": "function"
    },
    {
      "inputs": [],
      "name": "symbol",
      "outputs": [
        {
          "internalType": "string",
          "name": "",
          "type": "string"
        }
      ],
      "stateMutability": "view",
      "type": "function"
    },
    {
      "inputs": [
        {
          "internalType": "uint256",
          "name": "index",
          "type": "uint256"
        }
      ],
      "name": "tokenByIndex",
      "outputs": [
        {
          "internalType": "uint256",
          "name": "",
          "type": "uint256"
        }
      ],
      "stateMutability": "view",
      "type": "function"
    },
    {
      "inputs": [
        {
          "internalType": "address",
          "name": "owner",
          "type": "address"
        },
        {
          "internalType": "uint256",
          "name": "index",
          "type": "uint256"
        }
      ],
      "name": "tokenOfOwnerByIndex",
      "outputs": [
        {
          "internalType": "uint256",
          "name": "",
          "type": "uint256"
        }
      ],
      "stateMutability": "view",
      "type": "function"
    },
    {
      "inputs": [
        {
          "internalType": "uint256",
          "name": "_tokenId",
          "type": "uint256"
        }
      ],
      "name": "tokenURI",
      "outputs": [
        {
          "internalType": "string",
          "name": "",
          "type": "string"
        }
      ],
      "stateMutability": "view",
      "type": "function"
    },
    {
      "inputs": [],
      "name": "totalSupply",
      "outputs": [
        {
          "internalType": "uint256",
          "name": "",
          "type": "uint256"
        }
      ],
      "stateMutability": "view",
      "type": "function"
    },
    {
      "inputs": [
        {
          "internalType": "address",
          "name": "from",
          "type": "address"
        },
        {
          "internalType": "address",
          "name": "to",
          "type": "address"
        },
        {
          "internalType": "uint256",
          "name": "tokenId",
          "type": "uint256"
        }
      ],
      "name": "transferFrom",
      "outputs": [],
      "stateMutability": "nonpayable",
      "type": "function"
    },
    {
      "inputs": [
        {
          "internalType": "address",
          "name": "newOwner",
          "type": "address"
        }
      ],
      "name": "transferOwnership",
      "outputs": [],
      "stateMutability": "nonpayable",
      "type": "function"
    },
    {
      "inputs": [],
      "name": "unpauseContract",
      "outputs": [
        {
          "internalType": "bool",
          "name": "",
          "type": "bool"
        }
      ],
      "stateMutability": "nonpayable",
      "type": "function"
    },
    {
      "inputs": [
        {
          "internalType": "address",
          "name": "_owner",
          "type": "address"
        }
      ],
      "name": "walletOfOwner",
      "outputs": [
        {
          "internalType": "uint256[]",
          "name": "",
          "type": "uint256[]"
        }
      ],
      "stateMutability": "view",
      "type": "function"
    },
    {
      "inputs": [],
      "name": "wolfsNFTHelperContractAddress",
      "outputs": [
        {
          "internalType": "address",
          "name": "",
          "type": "address"
        }
      ],
      "stateMutability": "view",
      "type": "function"
    }
  ],
  "transactionHash": "0x323af5009504b7b4ed2bb6d92385e62af0a53b3722d9ad93b64a019104441baa",
  "args": [],
  "solcInputHash": "f47c1a5a8f1dc400f82434845af76581",
  "bytecode": "0x60806040523480156200001157600080fd5b50600054610100900460ff16806200002c575060005460ff16155b620000945760405162461bcd60e51b815260206004820152602e60248201527f496e697469616c697a61626c653a20636f6e747261637420697320616c72656160448201526d191e481a5b9a5d1a585b1a5e995960921b606482015260840160405180910390fd5b600054610100900460ff16158015620000b7576000805461ffff19166101011790555b8015620000ca576000805461ff00191690555b5061423280620000db6000396000f3fe6080604052600436106103ef5760003560e01c80637b38262511610208578063b95e84ef11610118578063cce85055116100ab578063e724348a1161007a578063e724348a14610c22578063e985e9c514610c42578063ed27107b14610c8b578063f2fde38b14610cac578063f9c4838014610ccc57600080fd5b8063cce8505514610b8f578063e04023c714610bb0578063e40e97a714610be1578063e524da0d14610c0157600080fd5b8063c87b56dd116100e7578063c87b56dd14610b19578063c981612614610b39578063ca84763314610b5a578063cc2a9a5b14610b6f57600080fd5b8063b95e84ef14610aaa578063b9d1e69014610acb578063bd0e346c14610ae2578063c2a317ab14610af957600080fd5b806395d89b411161019b578063a581cf4d1161016a578063a581cf4d14610a14578063aaa2400b14610a27578063af9a1cd214610a47578063b33712c514610a75578063b88d4fde14610a8a57600080fd5b806395d89b411461099e578063962e41b4146109b357806398f00442146109d3578063a22cb465146109f457600080fd5b80638da12096116101d75780638da12096146109205780638da5cb5b1461094057806390343f5e1461095e5780639232b5c71461097e57600080fd5b80637b382625146108765780637e06f1b7146108a45780637ea517f1146108d15780638d4c0667146108ff57600080fd5b8063392e53cd1161030357806351793e29116102965780636352211e116102655780636352211e146107d357806364dd891a146107f3578063667ff43a1461082157806370a0823114610841578063715018a61461086157600080fd5b806351793e291461075a57806357ca800f1461077a5780635c975abb1461079b57806361f80f88146107b357600080fd5b8063439766ce116102d2578063439766ce146106ee57806343c3b7fa146107035780634474848f1461071a5780634f6ccce71461073a57600080fd5b8063392e53cd146106735780633d9aeadf1461068e57806342842e0e146106ae578063438b6300146106ce57600080fd5b80630d30059d116103865780631902f7a0116103555780631902f7a0146105d257806323b872dd146105f2578063266108c91461061257806329123ede146106335780632f745c591461065357600080fd5b80630d30059d1461055c5780630f51dd3b1461057c5780631755ce9b1461059d57806318160ddd146105bd57600080fd5b8063073073f4116103c2578063073073f4146104b5578063081812fc146104e2578063095ea7b31461051a5780630cdfaa141461053c57600080fd5b806301fa1c22146103f457806301ffc9a71461043557806305c58df21461046557806306fdde0314610493575b600080fd5b34801561040057600080fd5b5061042261040f36600461394d565b61016e6020526000908152604090205481565b6040519081526020015b60405180910390f35b34801561044157600080fd5b5061045561045036600461397c565b610ced565b604051901515815260200161042c565b34801561047157600080fd5b5061042261048036600461394d565b61016c6020526000908152604090205481565b34801561049f57600080fd5b506104a8610d18565b60405161042c91906139f8565b3480156104c157600080fd5b506104d56104d036600461394d565b610daa565b60405161042c9190613a0b565b3480156104ee57600080fd5b506105026104fd36600461394d565b610f34565b6040516001600160a01b03909116815260200161042c565b34801561052657600080fd5b5061053a610535366004613a66565b610fbc565b005b34801561054857600080fd5b50610455610557366004613b57565b6110d2565b34801561056857600080fd5b5061045561057736600461394d565b61111d565b34801561058857600080fd5b5061017354610502906001600160a01b031681565b3480156105a957600080fd5b506104556105b8366004613b8c565b611159565b3480156105c957600080fd5b50609954610422565b3480156105de57600080fd5b506104556105ed366004613b8c565b6111ac565b3480156105fe57600080fd5b5061053a61060d366004613ba7565b6111ff565b34801561061e57600080fd5b5061016454610502906001600160a01b031681565b34801561063f57600080fd5b5061045561064e36600461394d565b611230565b34801561065f57600080fd5b5061042261066e366004613a66565b6114c2565b34801561067f57600080fd5b5061015f546104559060ff1681565b34801561069a57600080fd5b506104556106a936600461394d565b611558565b3480156106ba57600080fd5b5061053a6106c9366004613ba7565b61158f565b3480156106da57600080fd5b506104d56106e9366004613b8c565b6115aa565b3480156106fa57600080fd5b5061045561164c565b34801561070f57600080fd5b506104226101625481565b34801561072657600080fd5b5061045561073536600461394d565b611687565b34801561074657600080fd5b5061042261075536600461394d565b6116be565b34801561076657600080fd5b50610455610775366004613b8c565b611751565b34801561078657600080fd5b5061017154610502906001600160a01b031681565b3480156107a757600080fd5b5060c95460ff16610455565b3480156107bf57600080fd5b506104226107ce366004613b8c565b6117a4565b3480156107df57600080fd5b506105026107ee36600461394d565b6117da565b3480156107ff57600080fd5b5061042261080e36600461394d565b61016d6020526000908152604090205481565b34801561082d57600080fd5b5061045561083c366004613b8c565b611851565b34801561084d57600080fd5b5061042261085c366004613b8c565b6118a4565b34801561086d57600080fd5b5061053a61192b565b34801561088257600080fd5b5061042261089136600461394d565b61016f6020526000908152604090205481565b3480156108b057600080fd5b506108c46108bf366004613be3565b611961565b60405161042c9190613c06565b3480156108dd57600080fd5b506104226108ec36600461394d565b61016b6020526000908152604090205481565b34801561090b57600080fd5b5061017454610502906001600160a01b031681565b34801561092c57600080fd5b5061045561093b366004613b8c565b611a51565b34801561094c57600080fd5b5060fb546001600160a01b0316610502565b34801561096a57600080fd5b50610455610979366004613b8c565b611aa4565b34801561098a57600080fd5b50610455610999366004613b8c565b611af7565b3480156109aa57600080fd5b506104a8611b4a565b3480156109bf57600080fd5b506104556109ce366004613b8c565b611b59565b3480156109df57600080fd5b5061017554610502906001600160a01b031681565b348015610a0057600080fd5b5061053a610a0f366004613c45565b611bac565b610455610a22366004613be3565b611bbb565b348015610a3357600080fd5b50610455610a42366004613b8c565b6120c2565b348015610a5357600080fd5b50610422610a6236600461394d565b61016a6020526000908152604090205481565b348015610a8157600080fd5b50610455612115565b348015610a9657600080fd5b5061053a610aa5366004613cd4565b61214a565b348015610ab657600080fd5b5061016654610502906001600160a01b031681565b348015610ad757600080fd5b506104226101605481565b348015610aee57600080fd5b506104226101615481565b348015610b0557600080fd5b50610455610b14366004613d50565b612182565b348015610b2557600080fd5b506104a8610b3436600461394d565b612466565b348015610b4557600080fd5b5061016854610502906001600160a01b031681565b348015610b6657600080fd5b506104a86124c5565b348015610b7b57600080fd5b5061053a610b8a366004613d95565b612554565b348015610b9b57600080fd5b5061016354610502906001600160a01b031681565b348015610bbc57600080fd5b50610455610bcb36600461394d565b6101706020526000908152604090205460ff1681565b348015610bed57600080fd5b5061053a610bfc366004613e09565b6126bd565b348015610c0d57600080fd5b5061016754610502906001600160a01b031681565b348015610c2e57600080fd5b50610455610c3d366004613b8c565b6126fb565b348015610c4e57600080fd5b50610455610c5d366004613e52565b6001600160a01b039182166000908152606a6020908152604080832093909416825291909152205460ff1690565b348015610c9757600080fd5b5061017254610502906001600160a01b031681565b348015610cb857600080fd5b5061053a610cc7366004613b8c565b61274e565b348015610cd857600080fd5b5061016554610502906001600160a01b031681565b60006001600160e01b0319821663780e9d6360e01b1480610d125750610d12826127e9565b92915050565b606060658054610d2790613e85565b80601f0160208091040260200160405190810160405280929190818152602001828054610d5390613e85565b8015610da05780601f10610d7557610100808354040283529160200191610da0565b820191906000526020600020905b815481529060010190602001808311610d8357829003601f168201915b5050505050905090565b6060610db582612839565b610dda5760405162461bcd60e51b8152600401610dd190613ec0565b60405180910390fd5b60408051600680825260e082019092526000916020820160c080368337505050600084815261016a6020526040812054825192935091839190610e1f57610e1f613eee565b60200260200101818152505061016b60008481526020019081526020016000205481600181518110610e5357610e53613eee565b60200260200101818152505061016c60008481526020019081526020016000205481600281518110610e8757610e87613eee565b60200260200101818152505061016d60008481526020019081526020016000205481600381518110610ebb57610ebb613eee565b60200260200101818152505061016e60008481526020019081526020016000205481600481518110610eef57610eef613eee565b60200260200101818152505061016f60008481526020019081526020016000205481600581518110610f2357610f23613eee565b602090810291909101015292915050565b6000610f3f82612839565b610fa05760405162461bcd60e51b815260206004820152602c60248201527f4552433732313a20617070726f76656420717565727920666f72206e6f6e657860448201526b34b9ba32b73a103a37b5b2b760a11b6064820152608401610dd1565b506000908152606960205260409020546001600160a01b031690565b6000610fc7826117da565b9050806001600160a01b0316836001600160a01b031614156110355760405162461bcd60e51b815260206004820152602160248201527f4552433732313a20617070726f76616c20746f2063757272656e74206f776e656044820152603960f91b6064820152608401610dd1565b336001600160a01b038216148061105157506110518133610c5d565b6110c35760405162461bcd60e51b815260206004820152603860248201527f4552433732313a20617070726f76652063616c6c6572206973206e6f74206f7760448201527f6e6572206e6f7220617070726f76656420666f7220616c6c00000000000000006064820152608401610dd1565b6110cd8383612856565b505050565b6000805b8251811015611114576111018382815181106110f4576110f4613eee565b6020026020010151611230565b508061110c81613f1a565b9150506110d6565b50600192915050565b60fb546000906001600160a01b0316331461114a5760405162461bcd60e51b8152600401610dd190613f35565b5061016181905560015b919050565b60fb546000906001600160a01b031633146111865760405162461bcd60e51b8152600401610dd190613f35565b5061017480546001600160a01b0383166001600160a01b03199091161790556001919050565b60fb546000906001600160a01b031633146111d95760405162461bcd60e51b8152600401610dd190613f35565b5061016380546001600160a01b0383166001600160a01b03199091161790556001919050565b61120933826128c4565b6112255760405162461bcd60e51b8152600401610dd190613f6a565b6110cd8383836129ae565b60003361123c836117da565b6001600160a01b0316146112925760405162461bcd60e51b815260206004820152601760248201527f4f776e6572206f6620576f6c664e4654206661696c65640000000000000000006044820152606401610dd1565b610171546040516288561760e21b8152600481018490526000916001600160a01b031690630221585c9060240160206040518083038186803b1580156112d757600080fd5b505afa1580156112eb573d6000803e3d6000fd5b505050506040513d601f19601f8201168201806040525081019061130f9190613fbb565b9050801561136b5760405162461bcd60e51b8152602060048201526024808201527f576f6c662063616e6e6f74206265206275726e656420647572696e67206974736044820152632075736560e01b6064820152608401610dd1565b610163546113849033906001600160a01b03168561158f565b610166546101605460405163674adb7d60e01b815260048101919091526000916001600160a01b03169063674adb7d9060240160206040518083038186803b1580156113cf57600080fd5b505afa1580156113e3573d6000803e3d6000fd5b505050506040513d601f19601f820116820180604052508101906114079190613fd8565b9050600061271061141a836107d0613ff1565b6114249190614026565b61016454610163546040516323b872dd60e01b81526001600160a01b0391821660048201523360248201526044810184905292935016906323b872dd90606401602060405180830381600087803b15801561147e57600080fd5b505af1158015611492573d6000803e3d6000fd5b505050506040513d601f19601f820116820180604052508101906114b69190613fbb565b50600195945050505050565b60006114cd836118a4565b821061152f5760405162461bcd60e51b815260206004820152602b60248201527f455243373231456e756d657261626c653a206f776e657220696e646578206f7560448201526a74206f6620626f756e647360a81b6064820152608401610dd1565b506001600160a01b03919091166000908152609760209081526040808320938352929052205490565b60fb546000906001600160a01b031633146115855760405162461bcd60e51b8152600401610dd190613f35565b5061016055600190565b6110cd8383836040518060200160405280600081525061214a565b606060006115b7836118a4565b905060008167ffffffffffffffff8111156115d4576115d4613a90565b6040519080825280602002602001820160405280156115fd578160200160208202803683370190505b50905060005b828110156116445761161585826114c2565b82828151811061162757611627613eee565b60209081029190910101528061163c81613f1a565b915050611603565b509392505050565b60fb546000906001600160a01b031633146116795760405162461bcd60e51b8152600401610dd190613f35565b611681612b59565b50600190565b60fb546000906001600160a01b031633146116b45760405162461bcd60e51b8152600401610dd190613f35565b5061016255600190565b60006116c960995490565b821061172c5760405162461bcd60e51b815260206004820152602c60248201527f455243373231456e756d657261626c653a20676c6f62616c20696e646578206f60448201526b7574206f6620626f756e647360a01b6064820152608401610dd1565b6099828154811061173f5761173f613eee565b90600052602060002001549050919050565b60fb546000906001600160a01b0316331461177e5760405162461bcd60e51b8152600401610dd190613f35565b5061017180546001600160a01b0383166001600160a01b03199091161790556001919050565b60fb546000906001600160a01b031633146117d15760405162461bcd60e51b8152600401610dd190613f35565b610d1282612bf1565b6000818152606760205260408120546001600160a01b031680610d125760405162461bcd60e51b815260206004820152602960248201527f4552433732313a206f776e657220717565727920666f72206e6f6e657869737460448201526832b73a103a37b5b2b760b91b6064820152608401610dd1565b60fb546000906001600160a01b0316331461187e5760405162461bcd60e51b8152600401610dd190613f35565b5061017280546001600160a01b0383166001600160a01b03199091161790556001919050565b60006001600160a01b03821661190f5760405162461bcd60e51b815260206004820152602a60248201527f4552433732313a2062616c616e636520717565727920666f7220746865207a65604482015269726f206164647265737360b01b6064820152608401610dd1565b506001600160a01b031660009081526068602052604090205490565b60fb546001600160a01b031633146119555760405162461bcd60e51b8152600401610dd190613f35565b61195f6000612c45565b565b611969613896565b61016654610162546040516365db5d2560e01b815260048101919091526000916001600160a01b0316906365db5d259060240160206040518083038186803b1580156119b457600080fd5b505afa1580156119c8573d6000803e3d6000fd5b505050506040513d601f19601f820116820180604052508101906119ec9190613fd8565b90506119f6613896565b8360ff1661016154611a089190613ff1565b8152611a1760ff851683613ff1565b6020820152611a2960ff851683613ff1565b8460ff1661016154611a3b9190613ff1565b611a45919061403a565b60408201529392505050565b60fb546000906001600160a01b03163314611a7e5760405162461bcd60e51b8152600401610dd190613f35565b5061016880546001600160a01b0383166001600160a01b03199091161790556001919050565b60fb546000906001600160a01b03163314611ad15760405162461bcd60e51b8152600401610dd190613f35565b5061017380546001600160a01b0383166001600160a01b03199091161790556001919050565b60fb546000906001600160a01b03163314611b245760405162461bcd60e51b8152600401610dd190613f35565b5061016480546001600160a01b0383166001600160a01b03199091161790556001919050565b606060668054610d2790613e85565b60fb546000906001600160a01b03163314611b865760405162461bcd60e51b8152600401610dd190613f35565b5061016580546001600160a01b0383166001600160a01b03199091161790556001919050565b611bb7338383612c97565b5050565b6000611bc960c95460ff1690565b15611c095760405162461bcd60e51b815260206004820152601060248201526f14185d5cd8589b194e881c185d5cd95960821b6044820152606401610dd1565b600261012d541415611c5d5760405162461bcd60e51b815260206004820152601f60248201527f5265656e7472616e637947756172643a207265656e7472616e742063616c6c006044820152606401610dd1565b600261012d55600a60ff83161115611cad5760405162461bcd60e51b81526020600482015260136024820152720416d6f756e74206d757374206265203c20313606c1b6044820152606401610dd1565b61016654610162546040516365db5d2560e01b815260048101919091526000916001600160a01b0316906365db5d259060240160206040518083038186803b158015611cf857600080fd5b505afa158015611d0c573d6000803e3d6000fd5b505050506040513d601f19601f82011682018060405250810190611d309190613fd8565b9050611d3f60ff841682613ff1565b8360ff1661016154611d519190613ff1565b611d5b919061403a565b341015611d9b5760405162461bcd60e51b815260206004820152600e60248201526d4e6f7420656e6f7567682067617360901b6044820152606401610dd1565b61016754610161546001600160a01b03909116906108fc90611dc19060ff871690613ff1565b6040518115909202916000818181858888f19350505050158015611de9573d6000803e3d6000fd5b50610168546001600160a01b03166108fc611e0760ff861684613ff1565b6040518115909202916000818181858888f19350505050158015611e2f573d6000803e3d6000fd5b50336108fc611e4160ff861684613ff1565b8560ff1661016154611e539190613ff1565b611e5d919061403a565b611e679034614052565b6040518115909202916000818181858888f19350505050158015611e8f573d6000803e3d6000fd5b50610166546101605460405163674adb7d60e01b815260009260ff8716926001600160a01b039091169163674adb7d91611ecf9160040190815260200190565b60206040518083038186803b158015611ee757600080fd5b505afa158015611efb573d6000803e3d6000fd5b505050506040513d601f19601f82011682018060405250810190611f1f9190613fd8565b611f299190613ff1565b61016454604051636eb1769f60e11b815233600482015230602482015291925082916001600160a01b039091169063dd62ed3e9060440160206040518083038186803b158015611f7857600080fd5b505afa158015611f8c573d6000803e3d6000fd5b505050506040513d601f19601f82011682018060405250810190611fb09190613fd8565b1015611ff55760405162461bcd60e51b81526020600482015260146024820152734e6f7420656e6f75676820616c6c6f77616e636560601b6044820152606401610dd1565b61016454610163546040516323b872dd60e01b81523360048201526001600160a01b039182166024820152604481018490529116906323b872dd90606401602060405180830381600087803b15801561204d57600080fd5b505af1158015612061573d6000803e3d6000fd5b505050506040513d601f19601f820116820180604052508101906120859190613fbb565b5060005b8460ff168110156120b05761209d33612bf1565b50806120a881613f1a565b915050612089565b50600192505050600161012d55919050565b60fb546000906001600160a01b031633146120ef5760405162461bcd60e51b8152600401610dd190613f35565b5061016780546001600160a01b0383166001600160a01b03199091161790556001919050565b60fb546000906001600160a01b031633146121425760405162461bcd60e51b8152600401610dd190613f35565b611681612d66565b61215433836128c4565b6121705760405162461bcd60e51b8152600401610dd190613f6a565b61217c84848484612de0565b50505050565b6000805b835181101561245c5760008482815181106121a3576121a3613eee565b602090810291909101810151600081815261017090925260409091205490915060ff16156122085760405162461bcd60e51b815260206004820152601260248201527115dbdb19881e595d0819d95b995c985d195960721b6044820152606401610dd1565b806122435760405162461bcd60e51b815260206004820152600b60248201526a139bdd08185b1b1bddd95960aa1b6044820152606401610dd1565b60fb546001600160a01b03163314806122675750610167546001600160a01b031633145b8061227d5750610173546001600160a01b031633145b806122935750610174546001600160a01b031633145b806122a95750610175546001600160a01b031633145b6122e35760405162461bcd60e51b815260206004820152600b60248201526a139bdd08185b1b1bddd95960aa1b6044820152606401610dd1565b6122ec81612839565b6123085760405162461bcd60e51b8152600401610dd190613ec0565b6101655460408051602080820188905281830186905282518083038401815260608301938490528051910120631aed4a8360e01b90925260648101919091526001600160a01b039091169060009081908190819081908690631aed4a839060840160a06040518083038186803b15801561238157600080fd5b505afa158015612395573d6000803e3d6000fd5b505050506040513d601f19601f820116820180604052508101906123b99190614069565b60008c815261016a6020908152604080832088905561016b825280832087905561016c825280832086905561016d825280832085905561016e8252808320849055610170909152808220805460ff1916600117905551959a509398509196509450925088917f6b838081a3b0218313c2548b104622e52a09eb69f242760be8abc350d9b7a4539190a250505050505050808061245490613f1a565b915050612186565b5060019392505050565b606061247182612839565b61248d5760405162461bcd60e51b8152600401610dd190613ec0565b612495612e13565b61249e83612e23565b6040516020016124af9291906140a9565b6040516020818303038152906040529050919050565b61016980546124d390613e85565b80601f01602080910402602001604051908101604052809291908181526020018280546124ff90613e85565b801561254c5780601f106125215761010080835404028352916020019161254c565b820191906000526020600020905b81548152906001019060200180831161252f57829003601f168201915b505050505081565b600054610100900460ff168061256d575060005460ff16155b6125895760405162461bcd60e51b8152600401610dd1906140d8565b600054610100900460ff161580156125ab576000805461ffff19166101011790555b6125f36040518060400160405280600781526020016615dbdb1993919560ca1b8152506040518060400160405280600781526020016615dbdb1993919560ca1b815250612f21565b6125fb612fa8565b61016580546001600160a01b03199081166001600160a01b038a81169190911790925561016480548216898416179055610166805482168884161790556101638054821687841617905566038d7ea4c68000610161556703782dace9d9000061016255610167805482168684161790556101688054909116918416919091179055678ac7230489e8000061016055612694836000613023565b61015f805460ff1916600117905580156126b4576000805461ff00191690555b50505050505050565b60fb546001600160a01b031633146126e75760405162461bcd60e51b8152600401610dd190613f35565b8051611bb7906101699060208401906138b4565b60fb546000906001600160a01b031633146127285760405162461bcd60e51b8152600401610dd190613f35565b5061017580546001600160a01b0383166001600160a01b03199091161790556001919050565b60fb546001600160a01b031633146127785760405162461bcd60e51b8152600401610dd190613f35565b6001600160a01b0381166127dd5760405162461bcd60e51b815260206004820152602660248201527f4f776e61626c653a206e6577206f776e657220697320746865207a65726f206160448201526564647265737360d01b6064820152608401610dd1565b6127e681612c45565b50565b60006001600160e01b031982166380ac58cd60e01b148061281a57506001600160e01b03198216635b5e139f60e01b145b80610d1257506301ffc9a760e01b6001600160e01b0319831614610d12565b6000908152606760205260409020546001600160a01b0316151590565b600081815260696020526040902080546001600160a01b0319166001600160a01b038416908117909155819061288b826117da565b6001600160a01b03167f8c5be1e5ebec7d5bd14f71427d1e84f3dd0314c0f7b2291e5b200ac8c7c3b92560405160405180910390a45050565b60006128cf82612839565b6129305760405162461bcd60e51b815260206004820152602c60248201527f4552433732313a206f70657261746f7220717565727920666f72206e6f6e657860448201526b34b9ba32b73a103a37b5b2b760a11b6064820152608401610dd1565b600061293b836117da565b9050806001600160a01b0316846001600160a01b031614806129765750836001600160a01b031661296b84610f34565b6001600160a01b0316145b806129a657506001600160a01b038082166000908152606a602090815260408083209388168352929052205460ff165b949350505050565b826001600160a01b03166129c1826117da565b6001600160a01b031614612a295760405162461bcd60e51b815260206004820152602960248201527f4552433732313a207472616e73666572206f6620746f6b656e2074686174206960448201526839903737ba1037bbb760b91b6064820152608401610dd1565b6001600160a01b038216612a8b5760405162461bcd60e51b8152602060048201526024808201527f4552433732313a207472616e7366657220746f20746865207a65726f206164646044820152637265737360e01b6064820152608401610dd1565b612a9683838361303d565b612aa1600082612856565b6001600160a01b0383166000908152606860205260408120805460019290612aca908490614052565b90915550506001600160a01b0382166000908152606860205260408120805460019290612af890849061403a565b909155505060008181526067602052604080822080546001600160a01b0319166001600160a01b0386811691821790925591518493918716917fddf252ad1be2c89b69c2b068fc378daa952ba7f163c4a11628f55a4df523b3ef91a4505050565b60c95460ff1615612b9f5760405162461bcd60e51b815260206004820152601060248201526f14185d5cd8589b194e881c185d5cd95960821b6044820152606401610dd1565b60c9805460ff191660011790557f62e78cea01bee320cd4e420270b5ea74000d11b0c9f74754ebdbfc544b05a258612bd43390565b6040516001600160a01b03909116815260200160405180910390a1565b600080612bfd60995490565b9050612c098382613023565b60405181906001600160a01b038516907f7a5477f3d257e8974dc6fb5c008b442d975968577dfad5d1283aa0a488bfab0b90600090a392915050565b60fb80546001600160a01b038381166001600160a01b0319831681179093556040519116919082907f8be0079c531659141344cd1fd0a4f28419497f9722a3daafe3b4186f6b6457e090600090a35050565b816001600160a01b0316836001600160a01b03161415612cf95760405162461bcd60e51b815260206004820152601960248201527f4552433732313a20617070726f766520746f2063616c6c6572000000000000006044820152606401610dd1565b6001600160a01b038381166000818152606a6020908152604080832094871680845294825291829020805460ff191686151590811790915591519182527f17307eab39ab6107e8899845ad3d59bd9653f200f220920489ca2b5937696c31910160405180910390a3505050565b60c95460ff16612daf5760405162461bcd60e51b815260206004820152601460248201527314185d5cd8589b194e881b9bdd081c185d5cd95960621b6044820152606401610dd1565b60c9805460ff191690557f5db9ee0a495bf2e6ff9c91a7834c1ba4fdd244a5e8aa4e537bd38aeae4b073aa33612bd4565b612deb8484846129ae565b612df784848484613270565b61217c5760405162461bcd60e51b8152600401610dd190614126565b60606101698054610d2790613e85565b606081612e475750506040805180820190915260018152600360fc1b602082015290565b8160005b8115612e715780612e5b81613f1a565b9150612e6a9050600a83614026565b9150612e4b565b60008167ffffffffffffffff811115612e8c57612e8c613a90565b6040519080825280601f01601f191660200182016040528015612eb6576020820181803683370190505b5090505b84156129a657612ecb600183614052565b9150612ed8600a86614178565b612ee390603061403a565b60f81b818381518110612ef857612ef8613eee565b60200101906001600160f81b031916908160001a905350612f1a600a86614026565b9450612eba565b600054610100900460ff1680612f3a575060005460ff16155b612f565760405162461bcd60e51b8152600401610dd1906140d8565b600054610100900460ff16158015612f78576000805461ffff19166101011790555b612f8061337d565b612f8861337d565b612f9283836133e7565b80156110cd576000805461ff0019169055505050565b600054610100900460ff1680612fc1575060005460ff16155b612fdd5760405162461bcd60e51b8152600401610dd1906140d8565b600054610100900460ff16158015612fff576000805461ffff19166101011790555b61300761337d565b61300f61347c565b80156127e6576000805461ff001916905550565b611bb78282604051806020016040528060008152506134dc565b61304883838361350f565b610171546001600160a01b03161561312157610171546040516306e689d360e51b8152600481018390526000916001600160a01b03169063dcd13a609060240160206040518083038186803b1580156130a057600080fd5b505afa1580156130b4573d6000803e3d6000fd5b505050506040513d601f19601f820116820180604052508101906130d89190613fbb565b9050801561311f5760405162461bcd60e51b81526020600482015260146024820152734d6174657269616c20696e20576f6c665061636b60601b6044820152606401610dd1565b505b6001600160a01b0383161580159061314157506001600160a01b03821615155b801561315c5750610163546001600160a01b03838116911614155b80156131745750610172546001600160a01b03163314155b156131c15760405162461bcd60e51b815260206004820152601b60248201527f4f6e6c79204357204d61726b6574506c61636520616c6c6f77656400000000006044820152606401610dd1565b61017254604080513060208201529081018390526001600160a01b0390911690631803704590606001604051602081830303815290604052805190602001206040518263ffffffff1660e01b815260040161321e91815260200190565b602060405180830381600087803b15801561323857600080fd5b505af115801561324c573d6000803e3d6000fd5b505050506040513d601f19601f8201168201806040525081019061217c9190613fd8565b60006001600160a01b0384163b1561337257604051630a85bd0160e11b81526001600160a01b0385169063150b7a02906132b490339089908890889060040161418c565b602060405180830381600087803b1580156132ce57600080fd5b505af19250505080156132fe575060408051601f3d908101601f191682019092526132fb918101906141c9565b60015b613358573d80801561332c576040519150601f19603f3d011682016040523d82523d6000602084013e613331565b606091505b5080516133505760405162461bcd60e51b8152600401610dd190614126565b805181602001fd5b6001600160e01b031916630a85bd0160e11b1490506129a6565b506001949350505050565b600054610100900460ff1680613396575060005460ff16155b6133b25760405162461bcd60e51b8152600401610dd1906140d8565b600054610100900460ff1615801561300f576000805461ffff191661010117905580156127e6576000805461ff001916905550565b600054610100900460ff1680613400575060005460ff16155b61341c5760405162461bcd60e51b8152600401610dd1906140d8565b600054610100900460ff1615801561343e576000805461ffff19166101011790555b82516134519060659060208601906138b4565b5081516134659060669060208501906138b4565b5080156110cd576000805461ff0019169055505050565b600054610100900460ff1680613495575060005460ff16155b6134b15760405162461bcd60e51b8152600401610dd1906140d8565b600054610100900460ff161580156134d3576000805461ffff19166101011790555b61300f33612c45565b6134e683836135c7565b6134f36000848484613270565b6110cd5760405162461bcd60e51b8152600401610dd190614126565b6001600160a01b03831661356a5761356581609980546000838152609a60205260408120829055600182018355919091527f72a152ddfb8e864297c917af52ea6c1c68aead0fee1a62673fcc7e0c94979d000155565b61358d565b816001600160a01b0316836001600160a01b03161461358d5761358d8382613706565b6001600160a01b0382166135a4576110cd816137a3565b826001600160a01b0316826001600160a01b0316146110cd576110cd8282613852565b6001600160a01b03821661361d5760405162461bcd60e51b815260206004820181905260248201527f4552433732313a206d696e7420746f20746865207a65726f20616464726573736044820152606401610dd1565b61362681612839565b156136735760405162461bcd60e51b815260206004820152601c60248201527f4552433732313a20746f6b656e20616c7265616479206d696e746564000000006044820152606401610dd1565b61367f6000838361303d565b6001600160a01b03821660009081526068602052604081208054600192906136a890849061403a565b909155505060008181526067602052604080822080546001600160a01b0319166001600160a01b03861690811790915590518392907fddf252ad1be2c89b69c2b068fc378daa952ba7f163c4a11628f55a4df523b3ef908290a45050565b60006001613713846118a4565b61371d9190614052565b600083815260986020526040902054909150808214613770576001600160a01b03841660009081526097602090815260408083208584528252808320548484528184208190558352609890915290208190555b5060009182526098602090815260408084208490556001600160a01b039094168352609781528383209183525290812055565b6099546000906137b590600190614052565b6000838152609a6020526040812054609980549394509092849081106137dd576137dd613eee565b9060005260206000200154905080609983815481106137fe576137fe613eee565b6000918252602080832090910192909255828152609a90915260408082208490558582528120556099805480613836576138366141e6565b6001900381819060005260206000200160009055905550505050565b600061385d836118a4565b6001600160a01b039093166000908152609760209081526040808320868452825280832085905593825260989052919091209190915550565b60405180606001604052806003906020820280368337509192915050565b8280546138c090613e85565b90600052602060002090601f0160209004810192826138e25760008555613928565b82601f106138fb57805160ff1916838001178555613928565b82800160010185558215613928579182015b8281111561392857825182559160200191906001019061390d565b50613934929150613938565b5090565b5b808211156139345760008155600101613939565b60006020828403121561395f57600080fd5b5035919050565b6001600160e01b0319811681146127e657600080fd5b60006020828403121561398e57600080fd5b813561399981613966565b9392505050565b60005b838110156139bb5781810151838201526020016139a3565b8381111561217c5750506000910152565b600081518084526139e48160208601602086016139a0565b601f01601f19169290920160200192915050565b60208152600061399960208301846139cc565b6020808252825182820181905260009190848201906040850190845b81811015613a4357835183529284019291840191600101613a27565b50909695505050505050565b80356001600160a01b038116811461115457600080fd5b60008060408385031215613a7957600080fd5b613a8283613a4f565b946020939093013593505050565b634e487b7160e01b600052604160045260246000fd5b604051601f8201601f1916810167ffffffffffffffff81118282101715613acf57613acf613a90565b604052919050565b600082601f830112613ae857600080fd5b8135602067ffffffffffffffff821115613b0457613b04613a90565b8160051b613b13828201613aa6565b9283528481018201928281019087851115613b2d57600080fd5b83870192505b84831015613b4c57823582529183019190830190613b33565b979650505050505050565b600060208284031215613b6957600080fd5b813567ffffffffffffffff811115613b8057600080fd5b6129a684828501613ad7565b600060208284031215613b9e57600080fd5b61399982613a4f565b600080600060608486031215613bbc57600080fd5b613bc584613a4f565b9250613bd360208501613a4f565b9150604084013590509250925092565b600060208284031215613bf557600080fd5b813560ff8116811461399957600080fd5b60608101818360005b6003811015613c2e578151835260209283019290910190600101613c0f565b50505092915050565b80151581146127e657600080fd5b60008060408385031215613c5857600080fd5b613c6183613a4f565b91506020830135613c7181613c37565b809150509250929050565b600067ffffffffffffffff831115613c9657613c96613a90565b613ca9601f8401601f1916602001613aa6565b9050828152838383011115613cbd57600080fd5b828260208301376000602084830101529392505050565b60008060008060808587031215613cea57600080fd5b613cf385613a4f565b9350613d0160208601613a4f565b925060408501359150606085013567ffffffffffffffff811115613d2457600080fd5b8501601f81018713613d3557600080fd5b613d4487823560208401613c7c565b91505092959194509250565b60008060408385031215613d6357600080fd5b823567ffffffffffffffff811115613d7a57600080fd5b613d8685828601613ad7565b95602094909401359450505050565b60008060008060008060c08789031215613dae57600080fd5b613db787613a4f565b9550613dc560208801613a4f565b9450613dd360408801613a4f565b9350613de160608801613a4f565b9250613def60808801613a4f565b9150613dfd60a08801613a4f565b90509295509295509295565b600060208284031215613e1b57600080fd5b813567ffffffffffffffff811115613e3257600080fd5b8201601f81018413613e4357600080fd5b6129a684823560208401613c7c565b60008060408385031215613e6557600080fd5b613e6e83613a4f565b9150613e7c60208401613a4f565b90509250929050565b600181811c90821680613e9957607f821691505b60208210811415613eba57634e487b7160e01b600052602260045260246000fd5b50919050565b602080825260149082015273151bdad95b88191bd95cc81b9bdd08195e1a5cdd60621b604082015260600190565b634e487b7160e01b600052603260045260246000fd5b634e487b7160e01b600052601160045260246000fd5b6000600019821415613f2e57613f2e613f04565b5060010190565b6020808252818101527f4f776e61626c653a2063616c6c6572206973206e6f7420746865206f776e6572604082015260600190565b60208082526031908201527f4552433732313a207472616e736665722063616c6c6572206973206e6f74206f6040820152701ddb995c881b9bdc88185c1c1c9bdd9959607a1b606082015260800190565b600060208284031215613fcd57600080fd5b815161399981613c37565b600060208284031215613fea57600080fd5b5051919050565b600081600019048311821515161561400b5761400b613f04565b500290565b634e487b7160e01b600052601260045260246000fd5b60008261403557614035614010565b500490565b6000821982111561404d5761404d613f04565b500190565b60008282101561406457614064613f04565b500390565b600080600080600060a0868803121561408157600080fd5b5050835160208501516040860151606087015160809097015192989197509594509092509050565b600083516140bb8184602088016139a0565b8351908301906140cf8183602088016139a0565b01949350505050565b6020808252602e908201527f496e697469616c697a61626c653a20636f6e747261637420697320616c72656160408201526d191e481a5b9a5d1a585b1a5e995960921b606082015260800190565b60208082526032908201527f4552433732313a207472616e7366657220746f206e6f6e20455243373231526560408201527131b2b4bb32b91034b6b83632b6b2b73a32b960711b606082015260800190565b60008261418757614187614010565b500690565b6001600160a01b03858116825284166020820152604081018390526080606082018190526000906141bf908301846139cc565b9695505050505050565b6000602082840312156141db57600080fd5b815161399981613966565b634e487b7160e01b600052603160045260246000fdfea2646970667358221220d100fc3378ac3eb3c1e65f3b8fbc55271115b6e8770915a89802349102e00cfe64736f6c63430008090033",
  "devdoc": {
    "kind": "dev",
    "methods": {
      "approve(address,uint256)": {
        "details": "See {IERC721-approve}."
      },
      "balanceOf(address)": {
        "details": "See {IERC721-balanceOf}."
      },
      "getApproved(uint256)": {
        "details": "See {IERC721-getApproved}."
      },
      "isApprovedForAll(address,address)": {
        "details": "See {IERC721-isApprovedForAll}."
      },
      "name()": {
        "details": "See {IERC721Metadata-name}."
      },
      "owner()": {
        "details": "Returns the address of the current owner."
      },
      "ownerOf(uint256)": {
        "details": "See {IERC721-ownerOf}."
      },
      "paused()": {
        "details": "Returns true if the contract is paused, and false otherwise."
      },
      "renounceOwnership()": {
        "details": "Leaves the contract without owner. It will not be possible to call `onlyOwner` functions anymore. Can only be called by the current owner. NOTE: Renouncing ownership will leave the contract without an owner, thereby removing any functionality that is only available to the owner."
      },
      "safeTransferFrom(address,address,uint256)": {
        "details": "See {IERC721-safeTransferFrom}."
      },
      "safeTransferFrom(address,address,uint256,bytes)": {
        "details": "See {IERC721-safeTransferFrom}."
      },
      "setApprovalForAll(address,bool)": {
        "details": "See {IERC721-setApprovalForAll}."
      },
      "supportsInterface(bytes4)": {
        "details": "See {IERC165-supportsInterface}."
      },
      "symbol()": {
        "details": "See {IERC721Metadata-symbol}."
      },
      "tokenByIndex(uint256)": {
        "details": "See {IERC721Enumerable-tokenByIndex}."
      },
      "tokenOfOwnerByIndex(address,uint256)": {
        "details": "See {IERC721Enumerable-tokenOfOwnerByIndex}."
      },
      "totalSupply()": {
        "details": "See {IERC721Enumerable-totalSupply}."
      },
      "transferFrom(address,address,uint256)": {
        "details": "See {IERC721-transferFrom}."
      },
      "transferOwnership(address)": {
        "details": "Transfers ownership of the contract to a new account (`newOwner`). Can only be called by the current owner."
      }
    },
    "version": 1
  },
  "userdoc": {
    "kind": "user",
    "methods": {},
    "version": 1
  },
  "storageLayout": {
    "storage": [
      {
        "astId": 131,
        "contract": "contracts/WolfsNFT.sol:WolfsNFT",
        "label": "_initialized",
        "offset": 0,
        "slot": "0",
        "type": "t_bool"
      },
      {
        "astId": 134,
        "contract": "contracts/WolfsNFT.sol:WolfsNFT",
        "label": "_initializing",
        "offset": 1,
        "slot": "0",
        "type": "t_bool"
      },
      {
        "astId": 3103,
        "contract": "contracts/WolfsNFT.sol:WolfsNFT",
        "label": "__gap",
        "offset": 0,
        "slot": "1",
        "type": "t_array(t_uint256)50_storage"
      },
      {
        "astId": 3352,
        "contract": "contracts/WolfsNFT.sol:WolfsNFT",
        "label": "__gap",
        "offset": 0,
        "slot": "51",
        "type": "t_array(t_uint256)50_storage"
      },
      {
        "astId": 1425,
        "contract": "contracts/WolfsNFT.sol:WolfsNFT",
        "label": "_name",
        "offset": 0,
        "slot": "101",
        "type": "t_string_storage"
      },
      {
        "astId": 1427,
        "contract": "contracts/WolfsNFT.sol:WolfsNFT",
        "label": "_symbol",
        "offset": 0,
        "slot": "102",
        "type": "t_string_storage"
      },
      {
        "astId": 1431,
        "contract": "contracts/WolfsNFT.sol:WolfsNFT",
        "label": "_owners",
        "offset": 0,
        "slot": "103",
        "type": "t_mapping(t_uint256,t_address)"
      },
      {
        "astId": 1435,
        "contract": "contracts/WolfsNFT.sol:WolfsNFT",
        "label": "_balances",
        "offset": 0,
        "slot": "104",
        "type": "t_mapping(t_address,t_uint256)"
      },
      {
        "astId": 1439,
        "contract": "contracts/WolfsNFT.sol:WolfsNFT",
        "label": "_tokenApprovals",
        "offset": 0,
        "slot": "105",
        "type": "t_mapping(t_uint256,t_address)"
      },
      {
        "astId": 1445,
        "contract": "contracts/WolfsNFT.sol:WolfsNFT",
        "label": "_operatorApprovals",
        "offset": 0,
        "slot": "106",
        "type": "t_mapping(t_address,t_mapping(t_address,t_bool))"
      },
      {
        "astId": 2256,
        "contract": "contracts/WolfsNFT.sol:WolfsNFT",
        "label": "__gap",
        "offset": 0,
        "slot": "107",
        "type": "t_array(t_uint256)44_storage"
      },
      {
        "astId": 2430,
        "contract": "contracts/WolfsNFT.sol:WolfsNFT",
        "label": "_ownedTokens",
        "offset": 0,
        "slot": "151",
        "type": "t_mapping(t_address,t_mapping(t_uint256,t_uint256))"
      },
      {
        "astId": 2434,
        "contract": "contracts/WolfsNFT.sol:WolfsNFT",
        "label": "_ownedTokensIndex",
        "offset": 0,
        "slot": "152",
        "type": "t_mapping(t_uint256,t_uint256)"
      },
      {
        "astId": 2437,
        "contract": "contracts/WolfsNFT.sol:WolfsNFT",
        "label": "_allTokens",
        "offset": 0,
        "slot": "153",
        "type": "t_array(t_uint256)dyn_storage"
      },
      {
        "astId": 2441,
        "contract": "contracts/WolfsNFT.sol:WolfsNFT",
        "label": "_allTokensIndex",
        "offset": 0,
        "slot": "154",
        "type": "t_mapping(t_uint256,t_uint256)"
      },
      {
        "astId": 2756,
        "contract": "contracts/WolfsNFT.sol:WolfsNFT",
        "label": "__gap",
        "offset": 0,
        "slot": "155",
        "type": "t_array(t_uint256)46_storage"
      },
      {
        "astId": 192,
        "contract": "contracts/WolfsNFT.sol:WolfsNFT",
        "label": "_paused",
        "offset": 0,
        "slot": "201",
        "type": "t_bool"
      },
      {
        "astId": 283,
        "contract": "contracts/WolfsNFT.sol:WolfsNFT",
        "label": "__gap",
        "offset": 0,
        "slot": "202",
        "type": "t_array(t_uint256)49_storage"
      },
      {
        "astId": 10,
        "contract": "contracts/WolfsNFT.sol:WolfsNFT",
        "label": "_owner",
        "offset": 0,
        "slot": "251",
        "type": "t_address"
      },
      {
        "astId": 124,
        "contract": "contracts/WolfsNFT.sol:WolfsNFT",
        "label": "__gap",
        "offset": 0,
        "slot": "252",
        "type": "t_array(t_uint256)49_storage"
      },
      {
        "astId": 298,
        "contract": "contracts/WolfsNFT.sol:WolfsNFT",
        "label": "_status",
        "offset": 0,
        "slot": "301",
        "type": "t_uint256"
      },
      {
        "astId": 341,
        "contract": "contracts/WolfsNFT.sol:WolfsNFT",
        "label": "__gap",
        "offset": 0,
        "slot": "302",
        "type": "t_array(t_uint256)49_storage"
      },
      {
        "astId": 12241,
        "contract": "contracts/WolfsNFT.sol:WolfsNFT",
        "label": "isInitialized",
        "offset": 0,
        "slot": "351",
        "type": "t_bool"
      },
      {
        "astId": 12243,
        "contract": "contracts/WolfsNFT.sol:WolfsNFT",
        "label": "boxPriceCWOLFInDollars",
        "offset": 0,
        "slot": "352",
        "type": "t_uint256"
      },
      {
        "astId": 12245,
        "contract": "contracts/WolfsNFT.sol:WolfsNFT",
        "label": "gasToMinter",
        "offset": 0,
        "slot": "353",
        "type": "t_uint256"
      },
      {
        "astId": 12247,
        "contract": "contracts/WolfsNFT.sol:WolfsNFT",
        "label": "commissionInDollars",
        "offset": 0,
        "slot": "354",
        "type": "t_uint256"
      },
      {
        "astId": 12249,
        "contract": "contracts/WolfsNFT.sol:WolfsNFT",
        "label": "rewardsPoolAddress",
        "offset": 0,
        "slot": "355",
        "type": "t_address"
      },
      {
        "astId": 12251,
        "contract": "contracts/WolfsNFT.sol:WolfsNFT",
        "label": "CWOLFContractAddress",
        "offset": 0,
        "slot": "356",
        "type": "t_address"
      },
      {
        "astId": 12253,
        "contract": "contracts/WolfsNFT.sol:WolfsNFT",
        "label": "wolfsNFTHelperContractAddress",
        "offset": 0,
        "slot": "357",
        "type": "t_address"
      },
      {
        "astId": 12255,
        "contract": "contracts/WolfsNFT.sol:WolfsNFT",
        "label": "VariablesContractAddress",
        "offset": 0,
        "slot": "358",
        "type": "t_address"
      },
      {
        "astId": 12257,
        "contract": "contracts/WolfsNFT.sol:WolfsNFT",
        "label": "minterWalletAddress",
        "offset": 0,
        "slot": "359",
        "type": "t_address"
      },
      {
        "astId": 12259,
        "contract": "contracts/WolfsNFT.sol:WolfsNFT",
        "label": "commissionWalletAddress",
        "offset": 0,
        "slot": "360",
        "type": "t_address"
      },
      {
        "astId": 12261,
        "contract": "contracts/WolfsNFT.sol:WolfsNFT",
        "label": "strBaseTokenURI",
        "offset": 0,
        "slot": "361",
        "type": "t_string_storage"
      },
      {
        "astId": 12265,
        "contract": "contracts/WolfsNFT.sol:WolfsNFT",
        "label": "breed",
        "offset": 0,
        "slot": "362",
        "type": "t_mapping(t_uint256,t_uint256)"
      },
      {
        "astId": 12269,
        "contract": "contracts/WolfsNFT.sol:WolfsNFT",
        "label": "gender",
        "offset": 0,
        "slot": "363",
        "type": "t_mapping(t_uint256,t_uint256)"
      },
      {
        "astId": 12273,
        "contract": "contracts/WolfsNFT.sol:WolfsNFT",
        "label": "level",
        "offset": 0,
        "slot": "364",
        "type": "t_mapping(t_uint256,t_uint256)"
      },
      {
        "astId": 12277,
        "contract": "contracts/WolfsNFT.sol:WolfsNFT",
        "label": "attack",
        "offset": 0,
        "slot": "365",
        "type": "t_mapping(t_uint256,t_uint256)"
      },
      {
        "astId": 12281,
        "contract": "contracts/WolfsNFT.sol:WolfsNFT",
        "label": "defense",
        "offset": 0,
        "slot": "366",
        "type": "t_mapping(t_uint256,t_uint256)"
      },
      {
        "astId": 12285,
        "contract": "contracts/WolfsNFT.sol:WolfsNFT",
        "label": "lastHunt",
        "offset": 0,
        "slot": "367",
        "type": "t_mapping(t_uint256,t_uint256)"
      },
      {
        "astId": 12289,
        "contract": "contracts/WolfsNFT.sol:WolfsNFT",
        "label": "generated",
        "offset": 0,
        "slot": "368",
        "type": "t_mapping(t_uint256,t_bool)"
      },
      {
        "astId": 12291,
        "contract": "contracts/WolfsNFT.sol:WolfsNFT",
        "label": "WolfPackNFTContractAddress",
        "offset": 0,
        "slot": "369",
        "type": "t_address"
      },
      {
        "astId": 12293,
        "contract": "contracts/WolfsNFT.sol:WolfsNFT",
        "label": "marketPlaceAddress",
        "offset": 0,
        "slot": "370",
        "type": "t_address"
      },
      {
        "astId": 12295,
        "contract": "contracts/WolfsNFT.sol:WolfsNFT",
        "label": "minterWalletAddress2",
        "offset": 0,
        "slot": "371",
        "type": "t_address"
      },
      {
        "astId": 12297,
        "contract": "contracts/WolfsNFT.sol:WolfsNFT",
        "label": "minterWalletAddress3",
        "offset": 0,
        "slot": "372",
        "type": "t_address"
      },
      {
        "astId": 12299,
        "contract": "contracts/WolfsNFT.sol:WolfsNFT",
        "label": "minterWalletAddress4",
        "offset": 0,
        "slot": "373",
        "type": "t_address"
      }
    ],
    "types": {
      "t_address": {
        "encoding": "inplace",
        "label": "address",
        "numberOfBytes": "20"
      },
      "t_array(t_uint256)44_storage": {
        "base": "t_uint256",
        "encoding": "inplace",
        "label": "uint256[44]",
        "numberOfBytes": "1408"
      },
      "t_array(t_uint256)46_storage": {
        "base": "t_uint256",
        "encoding": "inplace",
        "label": "uint256[46]",
        "numberOfBytes": "1472"
      },
      "t_array(t_uint256)49_storage": {
        "base": "t_uint256",
        "encoding": "inplace",
        "label": "uint256[49]",
        "numberOfBytes": "1568"
      },
      "t_array(t_uint256)50_storage": {
        "base": "t_uint256",
        "encoding": "inplace",
        "label": "uint256[50]",
        "numberOfBytes": "1600"
      },
      "t_array(t_uint256)dyn_storage": {
        "base": "t_uint256",
        "encoding": "dynamic_array",
        "label": "uint256[]",
        "numberOfBytes": "32"
      },
      "t_bool": {
        "encoding": "inplace",
        "label": "bool",
        "numberOfBytes": "1"
      },
      "t_mapping(t_address,t_bool)": {
        "encoding": "mapping",
        "key": "t_address",
        "label": "mapping(address => bool)",
        "numberOfBytes": "32",
        "value": "t_bool"
      },
      "t_mapping(t_address,t_mapping(t_address,t_bool))": {
        "encoding": "mapping",
        "key": "t_address",
        "label": "mapping(address => mapping(address => bool))",
        "numberOfBytes": "32",
        "value": "t_mapping(t_address,t_bool)"
      },
      "t_mapping(t_address,t_mapping(t_uint256,t_uint256))": {
        "encoding": "mapping",
        "key": "t_address",
        "label": "mapping(address => mapping(uint256 => uint256))",
        "numberOfBytes": "32",
        "value": "t_mapping(t_uint256,t_uint256)"
      },
      "t_mapping(t_address,t_uint256)": {
        "encoding": "mapping",
        "key": "t_address",
        "label": "mapping(address => uint256)",
        "numberOfBytes": "32",
        "value": "t_uint256"
      },
      "t_mapping(t_uint256,t_address)": {
        "encoding": "mapping",
        "key": "t_uint256",
        "label": "mapping(uint256 => address)",
        "numberOfBytes": "32",
        "value": "t_address"
      },
      "t_mapping(t_uint256,t_bool)": {
        "encoding": "mapping",
        "key": "t_uint256",
        "label": "mapping(uint256 => bool)",
        "numberOfBytes": "32",
        "value": "t_bool"
      },
      "t_mapping(t_uint256,t_uint256)": {
        "encoding": "mapping",
        "key": "t_uint256",
        "label": "mapping(uint256 => uint256)",
        "numberOfBytes": "32",
        "value": "t_uint256"
      },
      "t_string_storage": {
        "encoding": "bytes",
        "label": "string",
        "numberOfBytes": "32"
      },
      "t_uint256": {
        "encoding": "inplace",
        "label": "uint256",
        "numberOfBytes": "32"
      }
    }
  }
}